:0200000460009A
:100000004643464200000156000000000103030081
:1000100000000000000000000000000000000000E0
:1000200000000000000000000000000000000000D0
:1000300000000000000000000000000000000000C0
:1000400000000000010408000000000000000000A3
:100050000000800000000000000000000000000020
:100060000000000000000000000000000000000090
:100070000000000000000000000000000000000080
:10008000EB04180A063204260000000000000000FD
:10009000050404240000000000000000000000002F
:1000A0000000000000000000000000000000000050
:1000B0000604000000000000000000000000000036
:1000C0000000000000000000000000000000000030
:1000D00020041808000000000000000000000000DC
:1000E0000000000000000000000000000000000010
:1000F0000000000000000000000000000000000000
:10010000D8041808000000000000000000000000F3
:100110000204180804200000000000000000000095
:1001200000000000000000000000000000000000CF
:10013000600400000000000000000000000000005B
:1001400000000000000000000000000000000000AF
:10015000000000000000000000000000000000009F
:10016000000000000000000000000000000000008F
:10017000000000000000000000000000000000007F
:10018000000000000000000000000000000000006F
:10019000000000000000000000000000000000005F
:1001A000000000000000000000000000000000004F
:1001B000000000000000000000000000000000003F
:1001C000000100000010000001000000000000001D
:1001D000000001000000000000000000000000001E
:1001E000000000000000000000000000000000000F
:1001F00000000000000000000000000000000000FF
:10020000FFFFFFFFFFFFFFFFFFFFFFFFFFFFFFFFFE
:10021000FFFFFFFFFFFFFFFFFFFFFFFFFFFFFFFFEE
:10100000D100204325160060000000000000000011
:10101000201000600010006000AC006000000000C4
:101020000000006000B8000000000000FFFFFFFFAC
:10103000FFFFFFFFFFFFFFFFFFFFFFFFFFFFFFFFC0
:10104000FFFFFFFFFFFFFFFFFFFFFFFFFFFFFFFFB0
:10105000FFFFFFFFFFFFFFFFFFFFFFFFFFFFFFFFA0
:10106000FFFFFFFFFFFFFFFFFFFFFFFFFFFFFFFF90
:10140000884207D0904205D251F8043B40F8043B93
:101410008242F9D8704700BF884204D2002340F8C6
:10142000043B8142FBD870472DE9884800F012F94F
:101430000824614B614AC3F8544161496148FFF790
:10144000DFFF614A61496248FFF7DAFF614962489C
:10145000FFF7E2FF614C4FF0E0214FF470000023F2
:101460005F4AC1F8880D44F823200133B02BFAD12C
:101470005C4B80215C4A03F8011B9342FBD14FF087
:10148000E0254D4E4FF08039DFF88CB1DFF88CA1AC
:101490004FF0FF31C5F8084D0027C6F80491C6F893
:1014A00000B1C6F8F490C6F8F0A0D5F8243DDFF8F6
:1014B000708143F4E0234D4AC5F8243DD8F81C3030
:1014C00023F07F0343F04003C8F81C30D8F82430E1
:1014D00023F07F0343F04003C8F824309166D166BF
:1014E0001167516700F0BEF8414B4249A363424B7C
:1014F000E36363236B610323AF612B613F4BC5F84B
:10150000203DD5F8FC3D43F08073C5F8FC3D3C4BD5
:101510001A6842F001021A605B680B6000F0E0FAA2
:10152000C6F804913748C6F800B1C6F8F490C6F87A
:10153000F0A000F069FCD8F86C10334B334A41F44A
:101540004051C8F86C101F60C3F80871C3F81871D7
:10155000C3F82871C3F83871936BDB0708D442F6DF
:1015600015632B4951651365936B43F00103936336
:10157000264A284C936843F00113936000F0EEF87C
:1015800000F0DCFA00F05CFC00F002FB00F064F814
:101590002368132BFCD900F093FB2368B3F5967FE7
:1015A000FBD300F05DF800F059F800F03DFC00F0CE
:1015B00037FC30BFFDE700BF00800D4050720000D7
:1015C000801F006000000000C0160020D491006061
:1015D00000000020E02A0020C01600200014002097
:1015E000F53E000000E400E0A0E400E000C00A4096
:1015F000C16C000060250020C56C000000002020A8
:10160000001000E00046C3230040084000400D40A9
:101610000000C056642500201B1018200C0D11136B
:1016200000C00F40074B4FF42A01074A07485A648D
:101630001864074A99639546BFF34F8FBFF36F8FC6
:10164000FFF7F2FE00C00A40ABAAAAAA07002000DA
:1016500000800720704700BF704700BF704700BF81
:1016600000BF704710B44FF0E023002110242B4836
:10167000C3F8941DC3F89C4D1124C3F8A00D28484D
:10168000C3F89C4D1224C3F8A00D2648C3F89C4D06
:10169000254AC3F8A00D254C42F015022448C3F892
:1016A0009C4DC3F8A00D234C2348C3F89C4DC3F8B0
:1016B000A00D224CC3F89C2D2148224AC3F8A04D0E
:1016C000C3F89C0DC3F8A02D02F5A0221E4C0C32CD
:1016D0001E48C3F89C4DC3F8A02D1D4AC3F89C0DAD
:1016E0001C4CC3F8A02D01221B48C3F89C4DC3F825
:1016F000A00DC3F8942DBFF34F8FBFF36F8FC3F8C6
:10170000501FBFF34F8FBFF36F8FD3F8142D5DF8C9
:10171000044B42F44032C3F8142D70473F000010D0
:101720002500080309001000E02A00201300200013
:1017300021000207140000202500081309000010F2
:101740001600202027000B1317000040180000602F
:101750002F000B07190000702F000B13F0B5B84BCA
:101760001822B84E0120B84F83B0C3F85C62B74965
:10177000C3F86072B64DC3F86462A6F53046B54C46
:10178000C3F86862C3F86C52C3F87052C3F874525D
:10179000C3F8785248F20C75DA661A675A679A6786
:1017A000DA67C3F88020C3F88420C3F88820C1F822
:1017B0002C03A94AC1F83003C1F83403C1F8380337
:1017C000C1F83C03C1F85003A169A44B0A40A448E6
:1017D000A4491343A44AA361D4F8843043F00C0312
:1017E000C4F884304FF0FF34036843F00203036011
:1017F00003682B404FF400551A439C4B0260446031
:101800008A689B4C13409B4A43F000538360C36833
:1018100023F07803C360036A134023430362036A1F
:101820001340954A2343954C43628262C262002270
:10183000D1F8B83023F03F0343F00103C0F8B830CB
:10184000D1F8BC308E4923F03F0343F00103C0F8C8
:10185000BC3040F20563026105660467C0F8803061
:10186000456644670224C0F88430036823F002030D
:1018700003608161834B8449C46143F8042B8B422C
:10188000FBD1774A136843F001031360136813F028
:101890000103FBD17A48022140F2F564906140F2E5
:1018A0009940D16140F26641C2F8004242F20144DF
:1018B000C2F810127549C2F82002C2F8301240F284
:1018C00035417348C2F83442C2F84012714CC2F834
:1018D000500242F201207049C2F854120121C2F8AC
:1018E0006042C2F864025E48C2F8A030C2F8A43078
:1018F000C2F8B0104369DA07FCD5012300244FF485
:10190000803257494361C0F8A040C0F8A420C0F815
:10191000B0304B69DB07FCD5012300244FF40030C5
:101920004F4A4B61C1F8A040C1F8A400C1F8B030E3
:101930005369DF07FCD50123002458484849536107
:10194000C2F8A040C2F8A400C2F8B0304B69DE076C
:10195000FCD5D1F8003145F60D5221209BB24861EB
:10196000934265D100244FF4802201233C48C1F802
:10197000A040C1F8A420C1F8B0304369DD07FCD510
:1019800001234FF400040021354A4361C0F8A04010
:10199000C0F8A410C0F8B0305369DC07FCD50123AF
:1019A0004FF400044FF480302D495361C2F8A04039
:1019B000C2F8A400C2F8B0304B69D807FCD50123A7
:1019C0004FF400044FF40030254A4B61C1F8A040A9
:1019D000C1F8A400C1F8B0305369D907FCD5012380
:1019E0004FF400042D481E495361C2F8A040C2F8CC
:1019F000A400C2F8B0304B69DA07FCD5D1F8003149
:101A000045F60D5221209BB24861934250D00825E3
:101A10004FF4000422490020224B234A0090157005
:101A20005A1A01232148224400F0F2F903B0F0BD14
:101A30001E4B0022C3E90022C3E9022203B0F0BD1D
:101A400000801F40F9B00100F910010000841F4020
:101A5000F970010000C00F40FFFCFF1F000300A051
:101A600000402A4000802A401200FFFFFF37F700A5
:101A70004000008000FFF07CFF000F836300020045
:101A8000F05AF05A00422A4000432A409F0418307E
:101A9000EB06180A3806180A06320126040003006D
:101AA00000000070000000708E2A002060240020DA
:101AB0004FF400044FF4802201230848C1F8A040ED
:101AC000C1F8A420C1F8B0304369DB07FCD501237D
:101AD00010254FF0807443619CE700BF00402A400E
:101AE000F0B4154A40274FF480314FF480564FF43C
:101AF00000554FF4404443F24200136913F0020FC3
:101B00000ED113F4005F0FD013F4805F0ED0002BC2
:101B1000F3DA13F4803F0BD15B060BD5F0BC7047B2
:101B2000946151619061E8E75561E6E75661E4E749
:101B30009161E2E75761E0E700800D40104BA02083
:101B4000104AD96E41F4403110B4D96640F237647E
:101B5000D96E41F44071D96654649064936C1B064D
:101B6000FCD4094A40F23761A02351649364936C1A
:101B700013F08003FBD1054A13705DF8044B7047E6
:101B800000C00F4000400C4000800C408D2A002017
:101B90003F4A03203F49F3EE095AD2F880304FF014
:101BA000000C9FED3D6A23F001039FED3C5A30B4D9
:101BB000C2F88030C2F89000D1F8E010384DCBB2B6
:101BC000384C39482B6007EE903A0B0DC1F30B21CE
:101BD000F8EEE77A06EE903A07EE101A334BB8EEBD
:101BE000C77A2160F8EEE66A314937EEC66A37EE09
:101BF000C55A76EEC76A77EEE57A26EE266AC3ED19
:101C0000006A25EE265AD2F8803067EEA64AC0ED6B
:101C1000007AC6EE275A274885EE276AC4EEA76ADF
:101C200075EE875AFCEEE55A36EE076A15EE904AD5
:101C3000BCEEC66A43EA045376EE877AC2F8803077
:101C400016EE103AD2F89041FCEEE77A01EA034131
:101C5000214317EE903AC2F89011C3F30B03D2F868
:101C600090110B431449C2F89031D2F8803043F000
:101C70000203C2F88030114B80F840C0C1F84031F7
:101C80004FF0E023012230BCC3F80821704700BFA9
:101C900000810D4000441F400000AA420000B442F1
:101CA0000C250020082500201025002014250020E8
:101CB0000000FF0F00E400E0001400204D5200007F
:101CC000314B40F6617210B5C3F8202140F2044454
:101CD00000F0A2F82D4A2E49D2F880302D4843F06A
:101CE0000303C2F880302C4BC1F8604102681A42ED
:101CF00003D1D1F8A8319A071BD0254A4FF00041F3
:101D0000244B5963D2F8403143F00203C2F840310A
:101D1000D2F840319B07FBD44FF400304FF0E02164
:101D20001C4B4FF00042C1F88C0219209A6300F05E
:101D300083F8184A4FF08040154C002190630A2028
:101D4000164B11604FF42072C4F8A801184600F039
:101D50006FF84FF4800203464FF4810040F24311C4
:101D60001860C4F858311A640D4B0E4AC4F8481173
:101D7000C3F804224FF0E0224FF400310123C2F8EF
:101D80000C11C4F8403110BD00800D4000C00F4060
:101D900000002E4000900D40001C1E00000000209E
:101DA000001400203554000008B50E4B1B6E9B0735
:101DB00000D4FBBE72B60C4B00200C4AC3F84001A5
:101DC00003F160430A49A3F55F2311649D46BFF305
:101DD0004F8F4FF400130748074ADB6902609B6886
:101DE000984700BF00441F4000002E4000C00A403A
:101DF0000300200000802020000012EBF8B500BF97
:101E0000F8BC08BC9E4670475FF800F0A54800008B
:101E10005FF800F0C95100005FF800F0A55B00001A
:101E20005FF800F0214600005FF800F0F971000053
:101E30005FF800F0497100005FF800F0954B00007A
:101E40005FF800F065500000010100006D680000BF
:101E5000ED68000071690000F5690000796A000012
:0C1E6000FD6A0000816B0000056C0000B2
:101E6C001603550053004200200053006500720019
:101E7C00690061006C0000001803540065006500E7
:101E8C006E00730079006400750069006E006F00CD
:101E9C000403090409026200030100C032080B00AC
:101EAC0002020201000904000001020201000524E3
:101EBC00001001052401010104240206052406007A
:101ECC00010705820310001009040100020A00003A
:101EDC0000070503024000000705840240000009CA
:101EEC0004020002FF6AFF0007058102400001079F
:101EFC00050102400001000009026200030100C05C
:101F0C0032080B0002020201000904000001020267
:101F1C00010005240010010524010101042402061E
:101F2C0005240600010705820310000509040100C1
:101F3C00020A0000000705030200020007058402E4
:101F4C000002000904020002FF6AC70007058102B3
:101F5C000002010705010200020100000A0600024E
:101F6C00EF0201400100000000010101010101012B
:041F7C000100000060
:101F80000000000000000000000000000000000051
:101F90000000000000000000000000000000000041
:101FA000F8B54FF084439D695A6915400DD0244F10
:101FB00001269D6195FAA5F4B4FA84F457F824300B
:101FC00006FA04F49847A543F4D11E4B9D695A695B
:101FD00015400DD01C4F01269D6195FAA5F4B4FA69
:101FE00084F457F8243006FA04F49847A543F4D152
:101FF000164B9D695A6915400DD0154F01269D61FC
:1020000095FAA5F4B4FA84F457F8243006FA04F4E7
:102010009847A543F4D10F4B9D695A6915400DD0DF
:102020000D4F01269D6195FAA5F4B4FA84F457F892
:10203000243006FA04F49847A543F4D1F8BD00BF54
:10204000480F002000400042C80F002000800042DE
:102050004810002000C00042C81000200548064B70
:102060001B1AD90F01EBA301491002D0034B03B196
:1020700018477047C0160020C0160020000000005E
:1020800008B5054B1BB105490548AFF30080BDE815
:102090000840FFF7E3BF00BF0000000090240020CD
:1020A00000B8006011B1012918BF022104F082BB01
:1020B00011B1012104F042BB04F040BB08B504F0AB
:1020C00067FBA0F10100B0FA80F0400908BD00BF35
:1020D0000D284FF0000138B50446C5B210D805F1FF
:1020E0000E0005F00705C0B204F064FB0123601C7C
:1020F000E408AB40DBB20E4A115D0B43135538BD0B
:10210000284605F0070504F055FB0123621C04EB8B
:10211000030003FA05F3DBB207D1064991F8FF2F5C
:1021200022EA030381F8FF3F38BDC4F3CF04E2E79E
:10213000442400204414012010F0FF0010B50C4688
:1021400001D1208010BD0138C0B204F0B1FA80B2D4
:10215000208010BD10F0FF0000D17047013801232E
:10216000054900F00702C0F3C40093400A5CDBB2EB
:1021700022EA03030B547047442400200122C0F3D9
:10218000CF0300F0070110B4064C8A40E35C134013
:1021900004D001305DF8044B80B2704718465DF8FA
:1021A000044B704744240020B5EEC00B38B5F1EE67
:1021B00010FA0446C5B207DD104B0122B7EEC00B82
:1021C00028461A5504F098FE012305F00705621C05
:1021D00004EB030003FA05F3DBB206D0C4F3CF042B
:1021E000074A115D0B43135538BD064991F8FF2F7F
:1021F00022EA030381F8FF3F38BD00BF9822002088
:10220000341C0020340C012010F0FF000DD00138E8
:10221000064BC0B21B5C012B08BFB1EE400BFDEEBC
:10222000C07B17EE901A04F001BE70479822002080
:1022300010F0FF0000D1704701380123054900F07C
:102240000702C0F3C40093400A5CDBB222EA030336
:102250000B547047341C00200122C0F3CF0300F060
:10226000070110B4064C8A40E35C134004D00130EF
:102270005DF8044B80B2704718465DF8044B704718
:10228000341C002000207047002934D0002832D0B0
:102290001A4AB8EE007B92ED006B38B5B4EE476B8E
:1022A000F1EE10FA22D0D2E90045C1E900454368B9
:1022B00013491C68134D144892ED007B0C60D968DB
:1022C000D3E90124114B2A60114A046011600022F5
:1022D0001A6000F0C5FF0F4B0F4AC3E9002200F05F
:1022E00015FF10B90D4B01221A7038BDD1E9004518
:1022F000C2E90045DBE74FF0FF307047600C00207B
:10230000582A00205C2A0020602A0020682A002029
:10231000642A0020A425002039130000AA2A0020E6
:102320002DE9F04F2D4E0223DFF8B8A083B096F8C8
:10233000009005468AF800305FFA89F3019308B9E6
:1023400033787BB3337803F0FF0B002B3AD1244F63
:10235000002442F210780FE0BBF1000F37D104F0F7
:10236000D9FBA54248462CBF4FF0000B4FF0010BA4
:1023700000F0F4FE337833B93B780A20444403F08C
:10238000FF09002BE8D0BBF1000F4FF003030CBF97
:1023900000206FF063008AF80030019B5BB103B04E
:1023A000BDE8F08F0E4F3B78002BCBD1337873B95B
:1023B0004FF0010BCCE7019001F0FEF9019803B05A
:1023C000BDE8F08F032300208AF80030E5E70323FF
:1023D0006FF063008AF80030DFE700BFA92A002011
:1023E000AB2A0020AA2A0020B5EEC00BF1EE10FAAD
:1023F0003CD4FF2830B5044683B034D81D4B1A783E
:10240000032A0DD01A78012A0AD0012C0CD92046B3
:1024100000F078FE204603B0BDE8304001F0A2BBDA
:102420000422012C1A70F2D8134D55F82430002BD9
:10243000EDD08DED000B01F0A9FB02289DED000B06
:10244000E5D155F8243020469847054620469DEDB5
:10245000000B00F057FE002DDCD1204601F0B2FB4E
:10246000284603B030BD4FF0FF30FAE74FF0FF30A1
:10247000704700BFAA2A0020A4250020002000F0F9
:102480006DBE00BF70B50623064E0025337000F008
:1024900095FE054B0446C3E9005501F02BF9204693
:1024A000357070BDAA2A0020A4250020014B1878A1
:1024B000704700BFAB2A0020014B1878704700BF5F
:1024C000A62A0020094AB2F86E30B3FA83F35B09FA
:1024D0004370B2F87030B3FA83F35B098370B2F8DB
:1024E0007230B3FA83F35B09C37070478018002021
:1024F000174B10B493F8592022B3012A20D093F837
:102500005A2003EB82001349FF224FF0010CC46DE7
:10251000406E83F858204FF0FF3281F80CC2C1F8AA
:10252000F0219FED097BC3E914400B480B4B5DF88C
:10253000044B81ED747B90ED447B83ED307B7047E1
:102540000022DEE70122DCE70000000000000000BE
:1025500080180020F8190020700A002018190020A7
:102560001B4B10B593F8592082B3012A2CD093F855
:102570005A2003EB8201FF241E200A46C96D83F80E
:102580005840526EC3E91412FFF798FD04461F200D
:10259000FFF794FD0F4BB7EE006B84424FF0FF3214
:1025A0000D4993ED747BC3F8F0214FF0040208BF8E
:1025B00037EE067B83F8012218BF37EE467B83EDAA
:1025C000747B81ED307B10BD0022D2E70122D0E781
:1025D00080180020F81900201819002000000000C1
:1025E00010B51B4C94F80132013B012B8CBF00232A
:1025F000032384F80132FFF7B3FF164B0420164A79
:1026000093ED156A93ED147AB8EE466B134BB8EE62
:10261000477B9FED0B4B9FED0C5B92ED303BA6EEA5
:10262000047B84ED1E3BBDE8104027EE057BB0EE39
:10263000470B83ED007BFFF7D7BE00BFAFF30080F1
:10264000000000000000F0417B14AE47E17A643FD7
:10265000F8190020801800201819002008190020FF
:102660009FED137BB0EEC06BB4EEC76BF1EE10FACA
:1026700016D5B6EE007BB4EEC70BF1EE10FA04DB14
:1026800030EE070BBBFE400B7047BEEE006BB4EEA6
:10269000C60BF1EE10FA04DC30EE470BBAFE400B2D
:1026A00070479FED057B20EE070B7047AFF300806E
:1026B00000000000000030430000000000000000A7
:1026C0002DE9F041904C914DB4F86E30904EB3FA34
:1026D00083F201339BB25209022B84F8742028BF85
:1026E0000023B4F87020A4F86E30531C9BB2B3F5ED
:1026F000C87F28BF0023A4F87030B4F872300133CB
:102700009BB2B3F5487F28BF0023A4F8723095F838
:102710000232013B012B8CBF0023032385F80232D8
:1027200095F80032013B012B8CBF0023032385F871
:10273000003295F8FF31013B94ED086B96ED087B74
:10274000012BB4EEC67B8CBF0023032385F8FF3139
:10275000B2FA82F3F1EE10FA4FEA53132DED048B27
:1027600084F8753082B040F3608196ED5A5B37EEA5
:10277000077BB4EEC67BF1EE10FA40F3538196ED81
:102780005E6B96ED587BB5EE407BF1EE10FA40F0B3
:10279000AA8035EE065BB5EE405BF1EE10FA14BF91
:1027A0004FF001084FF00008D5F8F43106EE903AEA
:1027B00096ED367BB8EEE66BB4EE476BF1EE10FAB1
:1027C00002D5002B80F275819FED490B96ED347B8D
:1027D000B7EE005B4F4F37EE457BB4EEC76BF1EEC3
:1027E00010FAB4BF01330023C5F8F4311AB9D5E9A2
:1027F0007623C7E932234849012000F0DFFB30B1DE
:10280000042385F80232D7E93223C7E93423D5F807
:10281000E03106EE903A96ED687BB8EEE66B95ED0A
:102820001E8BB4EE476BF1EE10FA02D5002B80F24E
:102830003D819FED2F0B96ED667BB7EE005B374930
:10284000012037EE457BB4EEC76BF1EE10FAB4BF52
:1028500001330023C5F8E03100F0B0FBA0B14FF028
:10286000FF3396ED567BC5F8E83128EE078BB8F1BB
:10287000000F40F0378195ED207B38EE478B042325
:1028800085F8FF3187ED288B97ED346B96ED2C7B27
:102890000820B4EEC76B9FED189BF1EE10FAACBFA9
:1028A0000121002187F8DA10FFF702FC032097EDE1
:1028B000348B96ED6C6B96ED6E7BB0EEC88B28EE8C
:1028C000068B28EE078BB4EEC98BF1EE10FA27D8F1
:1028D000FFF7C2FCB5EEC08BF1EE10FA80F2138167
:1028E0009FED070B20E04FF001085DE7AFF300809C
:1028F00000000000000000000000000000E06F4049
:10290000000000000000008080180020F81900205E
:10291000700A0020181900208E2400208C2400202A
:10292000FFF79AFC9FED7C0BE866FFF76DFC94F8CF
:1029300074301BB1B5F8FC31A7F8D830D5F8E431C4
:1029400006EE903A96ED747BB8EEE66BB4EE476B0C
:10295000F1EE10FA02D5002B80F2A5809FED700BEE
:1029600096ED727BB7EE005B7349012037EE457B35
:10297000B4EEC76BF1EE10FAB4BF01330023C5F813
:10298000E43100F01BFBB0B3B7F8D83007EE103AD3
:102990004FF0FF3396ED4C5BB8EE477BC5F8EC315A
:1029A00096ED4E8B27EE057B27EE088BB8F1000FD6
:1029B00040F0878095ED4A7B95ED1C2B38EE477BE8
:1029C000042396ED023B87ED2A7B96ED064BA2EEA3
:1029D000437B85F8003222EE044B96ED005B96EDCA
:1029E000526B87ED2C4B26EE046B87EE054B87ED83
:1029F0002E6B85ED1C4B96ED780BFFF731FE9FEDAE
:102A00004A7BB4EEC70BF1EE10FA11D5B5EEC00B50
:102A1000F1EE10FA50DBFCEEC07BCDED017A9DF8B3
:102A2000041006E096ED606BABE696ED5C5B9EE60F
:102A3000FF210920FFF73CFBA36AE16A0133A3628F
:102A40000BB90131E16207EE901A94F8582094ED29
:102A50000C5BB8EE677B9FED366B27EE057B27EEB0
:102A6000067B06EE903AB8EE666BA6EE057B84ED2B
:102A7000087B1AB3012A13D094F85A00B0FA80F0F8
:102A80004009024684F85A00FF2084F8590004EBFC
:102A90008200C365416602B0BDEC048BBDE8F081E5
:102AA00000221046EEE796ED700B59E796ED640BA9
:102AB000C1E696ED320B89E60021BAE70122104605
:102AC000E0E798221D491E4887ED008B03F038F996
:102AD000A0221C49194803F033F9B0EE487B85ED7C
:102AE0004A8B69E798221849154887ED008B03F057
:102AF00027F9A0221349144803F022F9B0EE487BCD
:102B000085ED208BB9E628EE098B88EE090BB1EE36
:102B1000400B09E7AFF300800000000000E06FC049
:102B200000000000000000000000000000007040F5
:102B3000000000000000F0418D240020281B002030
:102B40002019002018190020801A002010B582B02A
:102B50000B4C0E20FFF712FB03220DF10601E0657E
:102B6000FFF7EAFA074ABDF80610936BA4F8FC11C8
:102B70000133936313B9D36B0133D36302B010BD38
:102B8000F819002080180020104A114992F8FE31EF
:102B900091F8ECC101EBC300634490ED0A7BDBB21A
:102BA00091F8B800984282F8FE3182ED767B03D22C
:102BB00091F8EA3182F8FE31064A136C013313644E
:102BC00013B9536C01335364704700BFF8190020E8
:102BD000700A0020801800202B492C4AD1F8F831C7
:102BE00006EE903A92ED407BB8EEE66B00B5B4EE9F
:102BF000476B83B0F1EE10FA01D5002B34DA9FED6C
:102C00001E0B92ED3E7BB7EE005B37EE457BB4EEDC
:102C1000C76BF1EE10FAB4BF01330023C1F8F831ED
:102C2000FFF71EFD9FED167BB4EEC70BF1EE10FA19
:102C30000BD5B5EEC00BF1EE10FA18DBFCEEC07B45
:102C4000CDED017A9DF8041000E0FF210D20FFF783
:102C50002FFA0F4A936C0133936413B9D36C013389
:102C6000D36403B05DF804FB92ED3C0BC9E700218F
:102C7000ECE700BFAFF300800000000000000000A0
:102C80000000000000007040F8190020700A0020C9
:102C900080180020000000002DE9F8438E4F8822A4
:102CA00000218E4C38464FF0000806F00DFA8C4A91
:102CB0008C4B0125BA6000268B4A8C489A601A62B8
:102CC0008B49DFF840920B607960C3E90022C3E9C9
:102CD0000422C3E9062204F20122C3E90922C3E95E
:102CE0000B2204F50072C3E90D2204F2FF12C3E9BE
:102CF0000F22804AC7E903027F4A7A6104F2022266
:102D0000DA6007F11803E0228B6007F108039FEDFA
:102D10006A7BC7E91E894B6007F12003DFF8E89161
:102D2000DFF8E881CB604846002187ED0C7B06F098
:102D3000CBF94FF406720021204606F0C5F929466A
:102D40000D2084F811526562D8E93A23C9E932238B
:102D5000FFF7A8F931461E2084F8285084F8406017
:102D600084F80E526564FFF79DF931461F2084F800
:102D7000485084F8306084F80D526563FFF792F98B
:102D800004225E491D2084F8385003F035F92946A5
:102D90000820C4F8E061267484F80F522676656135
:102DA000FFF780F90320257684F8606084F80952E3
:102DB00084F8686065669FED421B9FED430BFFF74B
:102DC000F3F9B8F8E8312946E0660920A9F8D830C7
:102DD00084F86850C4F8E461267084F80A522672B8
:102DE0006560FFF75FF90E20257284F8506084F863
:102DF000105284F858606565FFF76AF9B8F8E82161
:102E00003F4BA4F8FC2198F8EB21E06584F8FE2103
:102E100040F2033287F85A601A80032284F858502F
:102E20009A704FF6FF73D8E96201A7F858304FF057
:102E3000FF37C4E91E01D8E93A01C4E97601D8E9AF
:102E40003001C9E93401FFF753FBA022314604F5F4
:102E5000987084F8075284F80852C4F8EC7198ED21
:102E6000507B84ED1C7B9FED1A7B84ED4A7B84EDC7
:102E7000207B98ED467B89ED2E7B98ED487B89ED94
:102E80002A7B98ED4A7B89ED2C7B06F01DF9A02268
:102E9000314604F1880006F017F940F20111C4F838
:102EA000E871A4F80412D8E95423C9E92823BDE83D
:102EB000F88300BFAFF300807B14AE47E17A643F34
:102EC0000000000000E06F40000000000088C340E8
:102ED000000000000000000080180020F819002009
:102EE00054447DF31C250020480900203D68666994
:102EF000BC240020E878C5467771807D610600001B
:102F00008C2400200000324018190020700A002094
:102F100010B5294C94F8203013B9012384F82030DF
:102F200094F8403013B9012384F8403094F83030DD
:102F300013B9012384F83030237C0BB901232374A7
:102F400094F860306BB123780BB90123237094F8A7
:102F500050302BB90122636D934284F8502019D070
:102F600010BD0122636E934284F86020EBD194F887
:102F70006830002BE7D00320FFF76EF9E0669FED85
:102F80000C0BFFF741F90320FFF766F9E066FFF746
:102F90004FF9D8E794F85830002BE1D00E20FFF716
:102FA000EDF8E065BDE81040FFF7D4B8AFF300805E
:102FB0000000000000000080F8190020B5EEC00BF2
:102FC00091F800C010B5F1EE10FA0CF0030424DD06
:102FD0004FF0010E72460130174BC0B203EB840371
:102FE000022813F80E3015D8144C205C034211D07F
:102FF0001CF0080F4FEA9C000AD1C40613D442EA21
:10300000830213F0380F0A7010D04FF0FF3010BD5C
:103010005C07F2D500200A7010BD4CBF01220022CF
:1030200052009646D7E79806F4D4E8E713F0070075
:1030300018BF012010BD00BF5807002090020020DB
:1030400008B52DED048B9FED248BB0EE409B20EE58
:10305000088B9FED231BB0EE480B05F0C1FEBCEEC4
:10306000C00B9FED216BB4EEC68BF1EE10FA30DD94
:1030700088EE067BFCEEC77B17EE902A1E4BBFEE58
:10308000007B1E4983ED000A5A6091ED006BB4EE9F
:10309000476BF1EE10FA19D0B8EE007B91ED006BA2
:1030A000B4EE476BF1EE10FA10D0154B9FED107B8C
:1030B00091ED006B29EE077B36EE496BB4EEC76BE2
:1030C000F1EE10FA4CBF012200221A70BDEC048B05
:1030D00008BD0022D2E700BF0000000000408F4082
:1030E000000000000000F0410000E0FFFFFFEF41A2
:1030F000000000000000B03C9C250020600C002077
:10310000A62A002000B17047FFF79ABF00B5002340
:1031100083B000200021CDE900330E4BC3E900014C
:103120000D4B00200021C3E9000101A9684602F00F
:1031300047FDDDE9000101F0E7FE38B901A9684665
:1031400002F044FDDDE9000100F0FCFB03B05DF896
:1031500004FB00BF181C0020201C0020F8B5064608
:10316000002003F0D7FC01F097FF851C044618BF30
:10317000012560B15DB10025012736B185F001055B
:10318000002003F0C7FC2F43EDD02046F8BD00F02F
:10319000F9FB831C044618BF012308B1002BEBD1B7
:1031A0001D4301F041FF831C044618BF012308B1F1
:1031B000002BE1D11D430027DFE700BFF8B51D4F0D
:1031C0003B78002B31D100F0E1FC80B1002442F2C9
:1031D0001076194D0A20344403F09CFC0120FFF7BF
:1031E000BDFF00F0D3FCAC4201D20028F2D100F0C8
:1031F000D3FC002401F0FAFF002310494FF04045B2
:103200000F4A0B7013700F490F4A0B6013600F4980
:103210000F4A0B6013600F4A0F4913600F4AC1E950
:103220000045C2E900333B70F8BD002000F0C8FC47
:10323000C9E700BFA62A002000879303A92A00201F
:10324000AB2A0020582A00205C2A0020602A002097
:10325000642A0020682A0020600C00209C250020A1
:103260009FED0B7B0C4B00200C4A0D4910B483EDF5
:10327000007B12780B4B08701A700B490B4B0C4CEF
:103280000C4A08701870207010605DF8044B70478D
:103290000000000000000000281C0020A42A0020DC
:1032A000AD2A0020AC2A0020B02A0020A52A002048
:1032B000B22A0020782A00208D4BF0B5002832D1A8
:1032C0008C4A1C7811781D788C42157007D08A4979
:1032D0008A4D8B4C8B4A08702870206010701A78C9
:1032E000012A00F096801A78012A77D0854A117851
:1032F00001F0FF0000292CD0834E0020834C307059
:10330000217801F0FF0C002900F09B807A491070B1
:10331000087020701378042B00F2D781DFE803F0E7
:1033200055313C44AA001A78012A08D0784B1B7802
:1033300013B9714B1878F0BD764B1878F0BD764A0A
:10334000128892B29042F1D1744A116800294FD18B
:10335000ECE76E4C6C4E694D20703178287001B3EB
:103360000221117030701978D9B91078C0B20428D0
:1033700000F2A881DFE810F02800B700A1001700D4
:10338000B90000205E4C2368002B00F02181013B36
:103390002360002B00F01C8108785D4B00221A701E
:1033A000F0BD5549B6E75449554C2368002B7AD1F6
:1033B0005B4D2B68002B00F012812D680120042347
:1033C000087025601370E8E74B493378002BE3D091
:1033D00002240023087814703370DEE74E4A128806
:1033E00092B2002A82D14D4A116800293FF47EAF83
:1033F0004C4C2478002C5CD0424A1278022A00F00F
:10340000998000283FF472AF414B1B78002B90D07D
:1034100092E73C4A117821B93B4E317809B1384CDA
:1034200009E0117801297FF45EAF354C216801294C
:103430007FF459AF344E00213170216002211170A8
:1034400051E71978002990D02C4D1178287885F80B
:1034500000C0042900F22E810FF2040C5CF821F068
:1034600049140000671500004516000027140000ED
:103470006D1500000020224C23681BB1013B236026
:10348000002B89D1284B1B78012B00F0B180274BF2
:103490001D68002D00F0B1801D6800200123087018
:1034A0002560137079E7013B2360002B7FF474AF34
:1034B0007EE71268002AA4D09EE71D49086800280C
:1034C00003DD1B78012B00F0A08015490B68002B51
:1034D00000F0898009680120094B074C196004231A
:1034E0002070137059E704494CE701200249C2E7F4
:1034F000A42A0020AC2A0020B22A0020B02A0020F2
:10350000782A0020A52A0020D5110020A02A00201A
:10351000A72A0020A82A0020862A0020982500201B
:10352000A0110020A32A0020A22A00209425002018
:1035300090250020664D2C78002C7FF462AF654FFB
:103540003A7891ED007B002A76D0634A1178002901
:1035500067D111780129CCB203D01478A21E54424D
:1035600054415E4A92ED006BB4EEC67BF1EE10FA68
:1035700080F292805A4E92ED006BB4EEC67BF1EE73
:1035800010FA12DD92ED006B96ED005BB4EE465B37
:10359000F1EE10FA09D15349096821B952494FF0A7
:1035A000010E81F800E001212970002C4AD12A780F
:1035B000B2FA82F2520986ED007B3A7000287FF45D
:1035C00023AF93E600287FF478AF474B1878E4E602
:1035D00000287FF4EDAE022308781370DDE618466C
:1035E0000B701370D9E64049184613700B70D4E67F
:1035F000002318460B701370CFE670B13B4B0425C7
:1036000008781B6815702360C7E60C6803233848E8
:103610003549046013700878BFE602230870137000
:10362000BBE611781678C9B2012E07D01278022AAB
:1036300004D0022995D02246294EB9E7022937D075
:10364000264A274E92ED006BB4EEC67BF1EE10FADF
:1036500011D592ED006B96ED005BB4EEC65BF1EE1A
:1036600010FA08DB1F4A126812B91F4901220A70BA
:1036700001222A709CE792ED006BB4EE467BF1EEDE
:1036800010FA94D192ED006B96ED005BB4EEC65B40
:10369000F1EE10FA8BDDE5E7114E92ED006B96ED41
:1036A000005BB4EEC65BF1EE10FA3FF574AF62E773
:1036B000012456E70C490023237018460B702B7029
:1036C00013706AE60849024DF5E7014DF3E700BFC4
:1036D000B02A0020AD2A0020A12A0020101C0020C2
:1036E000281C002090250020B22A0020A0110020D4
:1036F000782A002010B4002200231A4C00201A4916
:103700004FF0010CC4E90023184C087020701849D0
:10371000184C087020801849184C087020701849FF
:10372000184C086020701849184C0870206018491F
:10373000184C08701849C4E900234FF47A74174BE9
:10374000174A0C601860174B106017491870174B18
:1037500081F800C0164A1870164B107018705DF88A
:10376000044B7047281C0020AD2A0020A52A002009
:10377000AC2A0020862A0020B22A0020B02A00208D
:10378000782A0020A82A0020A72A002098250020B7
:10379000A32A0020101C0020A01100209425002046
:1037A00090250020A12A0020D5110020A02A002069
:1037B000A42A0020A22A0020104B1B7893B9104B9A
:1037C0001A7882B90F4A12784AB11B7803F0FF02C7
:1037D0002BB90D4801210D4B0270197070470B4B2E
:1037E00000221A707047074A11780029EBD1012393
:1037F0000549064A0B701370704700BFA42A0020C9
:10380000D5110020A02A0020A82A0020A72A0020E5
:1038100002234FF0FF301360704700BF10B514460D
:1038200008B101F0ADFD0020206010BD10B9FF23EC
:103830000B707047FE2310300B700F2836D8DFE86E
:1038400000F0322F2C292623201D1A1714110E0BDD
:10385000083522234B70704730234B707047292363
:103860004B70704700234B70704723234B70704799
:1038700021234B70704711234B7070472A234B70E4
:10388000704727234B70704710234B7070472423D9
:103890004B70704728234B70704726234B7070473E
:1038A00031234B70704733234B70704720234B708C
:1038B000704700BF014B1878704700BFB12A002045
:1038C000014B1870704700BFB12A0020014B1878D7
:1038D000704700BFAF2A0020024B1A7810431870BF
:1038E000704700BFAF2A0020024A137823EA000085
:1038F00010707047AF2A0020014B1878704700BF46
:10390000AE2A0020014B1888704700BF882A00208B
:1039100079B18AB1002300B501E09A420ED091F846
:1039200000E08C4601330C318645F6D160465DF8E7
:1039300004FB8C46604670479446FBE74FF0000C52
:10394000F4E700BF70B50D4E34789CB90C4D00F013
:103950004DFA00F053FA286000F0ACFE00F0C0FE13
:10396000A86001F063FA01F069FA0123686033701E
:10397000204670BD6FF00B04FAE700BF902A0020CC
:1039800074240020734B00202DE9F04188B01B788F
:10399000CDE90300CDE905000790002B00F0C080C1
:1039A00006AC05AB04AA03A9009401F09BFB431DE0
:1039B0000446DBB2012B01D9002865D10398002809
:1039C00069D0049ADDE9051301EB030C944507D98E
:1039D0006FF0070401F0D4FC204608B0BDE8F08188
:1039E000425C012B5C4B00EB0106A2F1C0051B7889
:1039F000B5FA85F54FEA55150ED96DB1002B5DD09E
:103A000002F12D037578DBB20F2B03D9013D012D97
:103A100000F28F80022304E0002B42D0F02A5AD912
:103A200000234E4D55F82330002B4DD010469847BB
:103A3000002847D0D0E90138002B3CD007AA0599CF
:103A4000039898470746B8F1000FC5D0079D002D91
:103A5000C2D0069A954245D80021304605F034FB85
:103A6000059B03993846079A1944C047079C039A57
:103A70004FF6FF71DDE90430CDE90004012001F0CB
:103A800093FA04460028A7D003980028A2D1204624
:103A900008B0BDE8F0816FF00704204608B0BDE82B
:103AA000F081FF2A0AD12D4B1B68002B48D010460D
:103AB00098470028BED16FF00B04E5E707AAFFF78F
:103AC000ADFE89E70398059907AADFF89480FFF710
:103AD0009FFE0746BAE702F11C03DBB20C2B22D88B
:103AE00001239EE701F07CFB0446039801F048FCAB
:103AF0000021284601F044FB049001F03BFB0499AF
:103B0000059001B3204601F06BFD069A0390002852
:103B1000A2D1014630466FF0090405F0D5FA5BE703
:103B20006FF0080458E702F12D03DBB20F2B7FF68C
:103B300071AF02F13803DBB20A2BC5D8032370E75B
:103B40006FF00B0446E7069A30466FF0070405F065
:103B5000BBFA41E7902A0020B12A002074240020FB
:103B6000AD180000084B1B7853B110B5044602F0A5
:103B7000E1FB002201462046BDE8104000F0B6BD42
:103B80006FF00800704700BF902A0020014B1878A2
:103B9000704700BFB12A002008B501F055F901F0C7
:103BA000E3F800F031F90020034B044AC3E90000B8
:103BB000C3E90200107008BD74240020902A002080
:103BC00000F088BF0122002100F090BD06230020F4
:103BD00013607047084410B4C37841683BB931B9E9
:103BE00002246FF00B0014605DF8044B704704482A
:103BF000012403710160002014605DF8044B7047DC
:103C00006C2A002007220149FFF782BE70080020BD
:103C1000F8B544180B4B154666781F6801F0C8FAD2
:103C2000B04207D957B16378002007495A1C0B707E
:103C30002A60F8BD02226FF00100F9E702226FF05E
:103C40000B00F5E76C2A0020B32A002070B5441859
:103C50001546667801F0ACFAB04212D9E378626892
:103C60002BB922B902236FF00B002B6070BD617875
:103C70000648026003714B1C054A00202B6011703E
:103C800070BD02236FF00100EFE700BF6C2A002037
:103C9000B32A002010B5144600F0D0FF20B902234B
:103CA0006FF00400236010BD01F090FA00F0D2FF25
:103CB00002236FF00400236010BD00BF0023FF2229
:103CC00010B50C46C1F801304B710A70FFF7FEFDCC
:103CD0006070FFF711FEA070FFF714FEA08010BD0A
:103CE00010B5144600F0B8FF30B10020FFF7E8FD32
:103CF00001230020236010BD02236FF00A00F9E7C2
:103D000038B54518144600F0A7FF68B16B78012B51
:103D100006D80120FFF7D4FD08230020236038BD1A
:103D200002236FF00100F9E702236FF00A00F5E7C4
:103D300088B9052210B50C46FF2120606060217013
:103D4000627001F035FAE07001F030FA0123A080D2
:103D5000A371E37110BDFFF769BD00BF80B9944640
:103D6000FF222DE9F0410D4E0A70356835B1DFF8BC
:103D7000308098F800707A1C944503D0BDE8F0813B
:103D8000FFF754BD0446481C29463D443A4601F01D
:103D9000D7FF88F800403560F0E700BF6C2A0020AC
:103DA000B32A002080B99446FF222DE9F0410D4E40
:103DB0000A70356835B1DFF8308098F800707A1CE9
:103DC000944503D0BDE8F081FFF730BD0446481CA0
:103DD00029463D443A4601F0B3FF88F8004035607B
:103DE000F0E700BF6C2A0020B32A0020014B024AF2
:103DF0001A607047A8240020851C0000014B186839
:103E0000704700BFA8240020014B00221A607047B1
:103E1000A8240020014B1868704700BF6C2A0020BE
:103E2000034611B908B900207047024A0120136007
:103E3000117170476C2A0020024A13681844106000
:103E4000704700BF6C2A0020F0B4244C0144236862
:103E50003BB3234DA4882888844222D900EB40003C
:103E600053F8304003EBC003DCB1A8781E798642DA
:103E700017D9C0EBC00054F8206004EB800486B171
:103E80002479E87884420CD95B79023B012B21D953
:103E90004B78FF2B0BD002236FF00100F0BC1360B6
:103EA000704702236FF005001360F0BC704791F873
:103EB00002C006EBC0044F6806F83030013084F8C9
:103EC00001C0CB78E8700020A37001236760136005
:103ED000F0BC704702236FF00700E5E7AC25002037
:103EE000AC11002010B51B4C236833B30144A488E7
:103EF0004888844221D900EB400003EBC003587985
:103F00000238012822D9B1F804E01FFA8EF07F2888
:103F100013D8C87988B991F801C03CF0100011D1CC
:103F2000012483F808C0A3F806E089799872A142B9
:103F300038BF21465972146010BD02246FF0010091
:103F4000146010BD02246FF00900F4E702246FF042
:103F50000700F0E7AC25002008230020136070471D
:103F6000FF2201234FF0340C00200A704B708A703E
:103F7000CB700A7181F805C08B71C871704700BFA2
:103F800002236FF00F001360704700BF08444378AE
:103F9000012B32D130B5B0F806C0448801791FFA40
:103FA0008CFE45791D480368A3B38088A04229D9B7
:103FB000F4B9B1FA81F011F0FD0F4FEA501017D1AA
:103FC000012D15D1BEF1010F0ED168B1587902381B
:103FD00001281BD90124002019732146A3F80EC023
:103FE0005C731882116030BD11B1BEF1010FEDD8C4
:103FF00002216FF00900116030BD02214FF0FF3047
:104000001160704702216FF00100EBE702216FF0B1
:104010000700E7E702216FF00300E3E7AC2500208B
:10402000FF2300224FF0110C6FF07F00CA800B704D
:1040300081F801C08B70CB7008714A71704700BF66
:104040000D220149FFF764BC4C0300202DE9F04725
:10405000254E0844154682B0326843880479477972
:10406000002A38D0B188994231D903EB43034FEA93
:10407000C30802EBC30352F808A0BAF1000F2AD01C
:104080001B79A34223D9C4EBC404A4005AF80490BA
:10409000B9F1000F1FD1D7B1FA001046019201F01B
:1040A00043F933684AF8040053F808301859B0B19E
:1040B000019A494605F008F833684846012253F84A
:1040C000083023441F712A6002B0BDE8F087022245
:1040D0006FF00100F7E702226FF00300F3E702221E
:1040E0006FF00200EFE700BFAC2500202DE9F043A0
:1040F0001F4E084483B01746D6F80090448890F8C5
:104100000480B9F1000F27D0B388A34228D908F161
:10411000FF33DBB2FB2B23D804EB4404E40059F853
:104120000450CDB9C8EBC80292001046019201F0CC
:10413000FBF8336849F804001859A8B1019A2946D8
:1041400004F0C2FF336828460122234483F8048028
:104150003A6003B0BDE8F08302226FF00300F7E796
:1041600002226FF00100F3E702226FF00200EFE796
:10417000AC2500202DE9F047DFF888A00144174660
:10418000DAF80050B1F8029085BB1FFA89F84FF6B3
:10419000FE7308F1FF329A422CD808EB4801CE009A
:1041A000304601F0C1F8044640B33246294604F0D7
:1041B0008BFFAAF80490CAF80040B8F1000F10D0A5
:1041C00020464FF0FF32A11901234261183000F858
:1041D0000C5C00F80B3C20F80A3C20F8085C884294
:1041E000F3D1012300203B60BDE8F08702236FF08C
:1041F0000300F8E702236FF00100F4E702236FF0F9
:104200000200F0E7AC2500200B4660B9074AFF200A
:1042100007491268187002EB4202096801EBC202FA
:10422000D27A5A707047FFF701BB00BF841100209B
:10423000AC250020082300201360704770B5017979
:10424000044651B300252E462B462268C3EBC3001B
:104250000121013502EB8000E28994F808C08068F2
:1042600000FB02F250181BB91CF0100F18BF501DB4
:1042700000F086FF21798642EBB238BF06469942AC
:10428000E3D801EB410104F11402304601F0A4F837
:1042900010B14FF0FF33636170BD0E46F3E700BF0E
:1042A0002DE9F04FDFF8F481461883B0D8F800000C
:1042B0000192B6F8029018B1B8F804304B4507D80F
:1042C0006FF001000223019A136003B0BDE8F08F84
:1042D0006F4BC3F800907378022B2CD809EB49017F
:1042E00000EBC10AC9009AF8054094B99AF8084051
:1042F00014F0020F44585BD0002C6FD098F8075090
:104300009AF804402C44802C68DC8AF80B5088F81A
:104310000740013B012B11D972B65E4B1C68002C83
:1043200042D17378012B5ED0022B75D0002B78D050
:1043300062B60020C6E76FF00900C3E79AF80430C0
:10434000002BE9D040584FF0000BCBEBCB0300EB38
:1043500083019D000979002943D050F823300822B9
:10436000002412FB013193F801C0083399426444E0
:10437000F9D1BBF1000F03D19AF80830DB0624D441
:10438000BAF80E3004FB03F35F1C00F00FFF874206
:1043900024D8DAF800000BF1010B0544AC609AF860
:1043A00004305B45D1DCB7E762B66FF00A0089E7FD
:1043B000A4B198F806509AF804402C44FC2C0DDC6B
:1043C0008AF80B5088F80640A3E7BAF80E3004FBD1
:1043D00003F35F1D00F0EAFE8742DAD96FF00800B0
:1043E00070E70C46C5E7DAF8143001330AD12A4BDE
:1043F000BAF806101888884237D0B9F1000F01D1F9
:1044000004293ED9032302208AF80530FFF758FA21
:104410004020FFF761FA8BE78AF8053062B6204644
:1044200050E701238AF80530B8F80430B3B1013BF6
:10443000D8F8002099B201EB410102EBC10102E082
:10444000012B7FF675AF53798A4202F11802A3F16E
:104450000203DBB2F4D1012B7FF66AAF0120FFF734
:104460002FFA4020FFF740FA62E70AF11402D3E97D
:10447000010101F083F80028C4D062B66FF0020099
:1044800020E75046FFF7DAFEAAF81040F3E700BF36
:1044900084110020742A0020B0110020AC250020D7
:1044A00070B41C4C23685BB30844B4F804C044885F
:1044B000A1B28C4524D901EB410153F8315003EBF3
:1044C000C103EDB190F804C01979614518D9CCEB5E
:1044D000CC0155F8216005EB81058EB14079297931
:1044E00081420DD95B79023B012B0FD90A4B012187
:1044F000D87000201C8083F802C0116070BC704727
:1045000002216FF00100116070BC704702216FF052
:104510000700F8E7AC250020AC11002008442DE985
:10452000F84343781446022B0FD85F4E336893B19B
:10453000B38883B172B65D4B1F6897B162B6022330
:104540006FF00A002360BDE8F88302236FF00900D2
:104550002360BDE8F88302236FF001002360BDE80B
:10456000F8834378012B3FD0022B06D063B362B6A9
:10457000012300202360BDE8F883B588E5B13168E8
:1045800005EB450001260B4601EBC0005A791833B4
:10459000022A08BF03F8136C9842F7D1002201E009
:1045A000012BE4D901324B79183192B2023BAA4275
:1045B000DBB2F5D3012BDAD90120FFF781F94020D6
:1045C000FFF792F962B6D3E7B1880029F4D03368D7
:1045D00001EB4101012003EBC1015A7902B158718D
:1045E00018338B42F9D1E7E7B1880029BFD03D46A7
:1045F000DFF8BC803068B8F800C005EB45024FEA30
:10460000C20900EBC2025379022B1AD001358D4248
:10461000F3DB0029ABD000254FF0030802E0B3889C
:10462000AB4234DD336801353B44183758790228F2
:10463000F5D183F80580FFF743F94020FFF74CF9E7
:10464000EDE75369013303D00135A942D5DCE0E73A
:10465000D388634508D0002DF6D1042B19D9012940
:104660004FF00105C9D8D4E714320135D8E901016A
:1046700000F084FFB188A94213DD0028BAD062B6E9
:1046800000283FF475AF02236FF0020060E70020BE
:10469000F5E71046FFF7D2FD33684B441D82012534
:1046A000E8E70028B5D0EAE7AC250020742A00200E
:1046B000B01100200023064A0649074810B4074CF1
:1046C00013605360236008605DF8044B704700BFBF
:1046D000AC250020AC240020C1200000742A00205A
:1046E000014B1868704700BFAC2400202DE9F04F43
:1046F0002DED028B8DB00490CDE9052172B6DFF867
:10470000CC83D8F800300133C8F8003062B6DFF847
:10471000C0A3DAF80070002F3ED0BAF80430002BA6
:104720003AD04FF0000907E009F10109BAF8043066
:104730001FFA89F94B452FD909EB4903DE0007EB36
:10474000C303187A10F00204EED15A79032AEBD190
:10475000DB88049A9342E7D14946204600F020FCCA
:10476000059B09903BB3DAF80030002B00F09581EF
:10477000BAF804204A4540F2C9809C19237B022BD9
:1047800000F04C81099B002B40F0808109F1010968
:104790001FFA89F94A45CFD80023039372B6D8F897
:1047A0000030013BC8F8003062B603980DB0BDEC94
:1047B000028BBDE8F08FDAF80030002B00F09E800D
:1047C000BAF804204A4540F299801E44337B022BFC
:1047D00000F00F81059B0793012308933379002B89
:1047E00000F0CC80099B0022B3FA83F303925B09AB
:1047F0005B4208EE103A0123CDE90A971F4607F104
:10480000FF3B346800F0B6FC079B5FFA8BF58146EE
:10481000AB46C5EBC50504EB8504AD00002B40F0AD
:10482000C18033682B449A68F38902FB03F3327A20
:10483000581CBBF1000F02D1D10648BF581D012101
:10484000206100F09DFC736901465A1C00F0C58090
:10485000184600F0C5FEE060002800F0A88033682C
:10486000484400222B4460619A615869F17A0246FB
:10487000594402F8011BBBF1000F0AD1317AC90675
:1048800007D50699C0F801109969C3F818B004312A
:104890000A445A61E368002B4FD08B4BF2881B8887
:1048A0009A4252D022796369002A4DD000252A46C7
:1048B00011E00A68104214BF012200221A70A16997
:1048C00001359BF801200A4400211344A161EAB29A
:1048D0002179914238D9216801EBC20B11F83220BD
:1048E0000121FF2A01FA02F0DBF80410E1D1184699
:1048F0009BF8012001F024FA0346E0E7099B002B16
:1049000040F0D6804FF0FF33039347E7099B002B1D
:10491000F8D009F101034FF0FF329BB203924946F0
:104920000020994600F03EFBBAF804304B457FF674
:1049300035AF002C7FF400AF30E73379BB4240F253
:1049400094800137FFB25AE76361089B002BF4D0D3
:104950000121206900F014FC034618EE100AD4E986
:104960000321CDE900910A9900F01EFB0390002875
:1049700036D13379BB42E4D8DDE90A97002301241C
:104980000393338AF2890133B3FBF2F102FB113353
:104990003382099B002B40F0938009F101091FFA33
:1049A00089F9C1E7338A002B3FF43BAF72E76FF020
:1049B0000903DDE90A970393338AF2890133B3FBD4
:1049C000F2F102FB11333382099B002B3FF4E6AE78
:1049D00009F1010300249BB2A1E700F0A5FC3AE72E
:1049E000E06800F0CDFC3379BB42AAD8DDE90A9734
:1049F000E2E7354BF2881B889A423FF4EBAEB9F1FF
:104A0000000F7FF4E7AE338AF28901339B1AB3FAC1
:104A100083F35B09089301230793DFE62A4BE188C0
:104A20001B8899423FF4AEAEB9F1000F7FF4AAAEF5
:104A3000238A0BB323795BB100252E462368013608
:104A40002B441C35D86800F09BFC23799E42F5DB93
:104A50004FF000032382099B9BB9BAF80430012B65
:104A60007FF69AAE4FF0010966E6039BB3FA83F432
:104A7000DDE90A97640984E7099B13B9012AF1D893
:104A80008AE6002301240393234648E709F1010342
:104A9000002201249BB2039241E700283FF432AF89
:104AA0001C464FF0FF3209F1010303929BB236E737
:104AB00009F101034FF0FF32059C9BB203922EE7F0
:104AC00009F101039BB22AE7B0110020742A0020EB
:104AD000AC2500202DE9F04F554F89B03B68002BE5
:104AE00000F0978072B6534B1D68002D40F08A800D
:104AF000B7F804B0D7F800A0BBF1000F7CD00AF1E2
:104B0000050253462C46A94603920AF1100204926C
:104B100005E001340635A4B2A3456ED03B6803EB33
:104B200085031A7B022AF4D1DA88434B1B889A4208
:104B3000EFD0002CEDD1039B13F82530032BE8D1E7
:104B4000049B33F82530002BE3D02146204600F0AB
:104B500027FA0AF10403B0FA80F013F8252040097F
:104B60004142002A5ED0A046CDF818B007948B468B
:104B70004C46994607E019F8252008F101081FFA6C
:104B800088F39A424AD9C8EBC8065AF82530012161
:104B900003EB8603B600D8680028EED0186900F051
:104BA000EFFA059000F0E6FA5AF8252004460021B5
:104BB00002EB060CDCF80C200244DCE904C0821A8B
:104BC000ACEB020204F080FA5AF82520059B002184
:104BD00002EB060C5846DCE903E2CDE900427246DE
:104BE00000F0E2F904460028C5D05AF825303344D5
:104BF000D86800F0C5FBBEE7D94662B6484609B0A2
:104C0000BDE8F08F62B66FF00509484609B0BDE80F
:104C1000F08F9946484609B0BDE8F08FA146DDF80F
:104C200018B0079C0023049A22F8253071E700BFD2
:104C3000AC250020742A0020B011002072B6044B6D
:104C40001B68002B0CBF0120002000D062B670470B
:104C5000742A002062B670472DE9F84F364B1F6862
:104C6000002F57D09E8872B6344A1568002D0CBFAD
:104C70004FF001094FF0000943D14FF0FF3AC3E96B
:104C800000552F4BC3F800A062B600F093FA7EB334
:104C9000BB46DFF8B08004E001350BF1180BAE42E3
:104CA00026D0BBF80630B8F800209A422DD00DB9B6
:104CB000042B34D9DBF80030002BEDD09BF8041026
:104CC00071B10024C4EBC402013453F8220028B1AE
:104CD00000F056FB9BF80410DBF80030A142F1DC39
:104CE0000135184600F04CFB0BF1180BAE42D8D141
:104CF000384600F045FB4020FEF7F6FD4846BDE88B
:104D0000F88F62B64846BDE8F88FDBF8140000F073
:104D100059FCCFE74FF001094846BDE8F88FDBF8B2
:104D20001400431C02D1CBF814A0C3E700F0E8FB49
:104D3000CBF814A0BEE700BFAC250020742A0020E9
:104D400084110020B011002010B51446FFF784FF35
:104D500030B10120FEF7B4FD01230020236010BD17
:104D600002236FF00A00F9E708B5FFF775FF024B61
:104D700000221A6008BD00BFAC24002002220149B5
:104D8000FEF7C6BD3003002070B5441882B015464A
:104D9000667800F00DFA0838864215D8E178606828
:104DA000FFF73EF8A0B162780192FFF733F8019A5D
:104DB00004F1080100F0C4FF6078FFF73DF801231B
:104DC00000202B6002B070BD02236FF00100F8E7F5
:104DD00002236FF00B00F4E7F0B5441883B01546DA
:104DE000FFF718F86778064600F0E2F99FB1831ED6
:104DF0009F4210D8AEB162780192FFF70BF8019A8A
:104E0000A11C00F09DFF6078FFF716F80123002039
:104E10002B6003B0F0BD02236FF001002B6003B0E4
:104E2000F0BD02236FF00B00F2E700BF014B024A16
:104E30001A607047B0240020FD2D0000014B186857
:104E4000704700BFB0240020704700BF0023C0E9B6
:104E500000307047436800220A6019604160704763
:104E600003680B6013B11B68036003B170474060B7
:104E7000704700BF03680B600BB101607047416071
:104E8000016070470023C0E90030704710B500236F
:104E900082B0019372B60E4C204601A9FFF7E0FFE5
:104EA000019820B100F06CFA019B002BF4D1094C61
:104EB00003E000F065FA019B33B1204601A9FFF73A
:104EC000CFFF01980028F4D162B602B010BD00BF38
:104ED0006C2500207425002010B5002382B00193BA
:104EE00072B6084C03E000F04BFA019B33B1204648
:104EF00001A9FFF7B5FF01980028F4D162B602B00E
:104F000010BD00BFD02400202DE9F0411F4F3B7899
:104F100023B16FF00B042046BDE8F08105461C4824
:104F20000E46FFF793FF1B48FFF790FF1A48FFF765
:104F30008DFF00F089F904460028ECD100F010FE46
:104F4000804600F00DFE80451ED808F1080800F0EC
:104F5000FFFD804400F0FEFD4044DFF84080022168
:104F6000424600F039FA04460028D4D1D8F80000AF
:104F700000F006FE3146284600F098FC0446002862
:104F8000C9D101233B70C6E72046E6E7912A0020FD
:104F90006C25002074250020D0240020A4110020BE
:104FA00001207047002070472DE9F0411D4682B076
:104FB0000023089E0193431CDDF82480022B29D88E
:104FC00014463AB3074600F0C3FD0830B04221D181
:104FD000B8F1000F1ED04644AE421BD8104B1B78D0
:104FE000DBB172B6A5F10801434601AA04F108003D
:104FF00000F03EFD054620B162B6284602B0BDE88D
:10500000F081019B21460748636000EBC700FFF772
:1050100021FFF1E74FF0FF35EFE76FF00805ECE710
:10502000912A00206C250020194B70B5002582B014
:105030001B7801954BB372B6164E01A906F1080014
:10504000FFF70EFF62B6019898B10125426808216A
:1050500000F048FC044610B9204602B070BD72B69C
:10506000019906EBC500FFF705FF62B6204602B0C6
:1050700070BD72B601A93046FFF7F2FE62B6019824
:105080000028E3D16FF00104E6E76FF00804E3E7DE
:10509000912A00206C250020104A002310B582B010
:1050A0001278CDE90033AAB16A46082101A800F0C0
:1050B0007DFC044610B1204602B010BDDDE900239E
:1050C0005A6072B606480199FFF7C4FE62B62046E0
:1050D00002B010BD6FF00804EDE700BF912A002078
:1050E000D0240020F0B583B01C46089F002F18BFC5
:1050F000002B4FF000030CBF4FF0010C4FF0000CE1
:105100000193002A08BF4CF0010C002908BF4CF0A5
:10511000010CBCF1000F1FD1F0B9144B1B78F3B197
:1051200015460E4672B6124801A9FFF799FE62B6FF
:105130000198B8B13A464168083000F0B3FC019BD1
:10514000074633605B6808332B6000F001FD0830D0
:105150002060384603B0F0BD4FF0FF37F9E76FF03D
:105160000807F6E76FF00107F3E700BF912A002078
:10517000D024002008B500F0EBFC083008BD00BFCB
:1051800010B5044629B900F0EBFCA04205D200207E
:1051900010BD00F0E1FCA042F9D3083400F0D8FCC7
:1051A000044400F0D7FC204410BD00BF00F0D4BC84
:1051B00000F0D6BC10B500F0D5FC044618B9FFF7D6
:1051C00065FEFFF789FE204610BD00BF10B500F058
:1051D000C9FC044608B9FFF759FE204610BD00BFC0
:1051E000014B1868704700BFA411002038B5114D5D
:1051F0002C780CB9204638BD00F0C8FC04460028C5
:10520000F8D1FFF743FEFFF767FE0B4B186800F07D
:1052100077F900F01DFA04460028EBD10748FFF7A4
:1052200031FE0748FFF72EFE0648FFF72BFE2C70D5
:10523000E0E700BF912A0020A41100206C25002087
:1052400074250020D02400202DE9F04F2E4B83B090
:10525000DFF8CCB00322DFF8CCA018462B4F59461C
:105260000193564600F0FEFA27F003074FF00009BD
:105270004FF0FF08019B53F8042B5BF8045B141DEF
:10528000F260376005FB04F2C6E901553261C7B12F
:1052900000213846019303F017FF019B85B13A4680
:1052A0000021C7F8049087F8008004E0C2F8049059
:1052B00000F8048042600131104622448D42F5D14D
:1052C00032691744124A14369345D4D14FF46772A9
:1052D0000021104803F0F8FE00200F4B0F4ACAF8D7
:1052E0003C00CAF844001060CAF84000CAF85000F8
:1052F000CAE91200CAE91500CAE91700C3E90000AB
:1053000003B0BDE8F08F00BFBC110020BF25002016
:10531000D4110020B8260020B4250020542A0020F3
:10532000C81100205426002020B330B472B61249B0
:105330000023124C0A4654F8045B5FFA83FCA8422F
:1053400001D8556835B901331432032BF3D162B655
:1053500000200DE003EB83039B00C8580028F6D023
:105360004268013DCA5019444D6000F804CB62B652
:1053700030BC7047704700BF54260020BC1100208D
:10538000F0B110F8043C021F052B1AD0042B17D8DB
:1053900010B472B603EB83030D4CFF214FEA830C6C
:1053A00000F8041C04EB830354F80C1001605968E6
:1053B00044F80C200131596062B65DF8044B704727
:1053C0007047044B5B68002BFAD01046184700BFAB
:1053D00054260020B4250020002918BF002800F022
:1053E00085802DE9F84F1546002A48D00330414EFC
:1053F0000C4620F0030026F00306071D01FB07FB07
:1054000072B63D4BD96BDA6C51B1196D79B362B696
:105410004FF0FF386FF00900C5F80080BDE8F88F45
:10542000002A60D09345F0D84FF0030808EB8801BC
:1054300043F8216003EB8103C3E902405C609EB145
:105440005A460021304603F03FFE0022FF2133463A
:1054500010467260317003E07060D9555E603B4465
:1054600001323E449442F7D862B60020D4E7196E68
:10547000164439B18B45CAD84FF00408D6E74FF02F
:10548000FF30CBE74FF00408DFF870A040F299310D
:10549000DAF80090A1EB09015945B8D308EB88016F
:1054A00043F8216003EB8103C3E902405C60C3F869
:1054B00010B09EB15A460021304603F005FE00238D
:1054C000FF2031461A467360307003E07260C855A1
:1054D0004E60394401333E449C42F7D809EB0B023D
:1054E000CAF80020C0E74FF00308CDE74FF0FF30C7
:1054F000704700BFBB26002054260020542A0020FD
:10550000C31E012B32D872B603281A4B03D11A6D71
:1055100092B91A6E82B900EB80000022810003EB81
:1055200080005A50D96BC260C0E9012261B11A6D86
:105530009AB162B6002070470022DA639A64C3E928
:10554000102262B600207047DA6C002AEFD00A48B9
:10555000D9640168891A0160E9E7196E0029E8D069
:1055600005481A6603685B1A0360E2E74FF0FF30F4
:10557000704700BF54260020542A0020002918BF7D
:10558000002819D0C2B110B472B60D4C23680BB903
:10559000636843B162B64FF0FF316FF009005DF808
:1055A000044B11607047C4E9000162B6052118463A
:1055B0005DF8044B116070474FF0FF30704700BF3B
:1055C000B4250020052806D172B6044B0020C3E99B
:1055D000000062B670474FF0FF307047B4250020DE
:1055E00081B3052838B5044621D0C31E012B1CD831
:1055F00000EB8003144A4FEA830C02EB830352F85A
:105600000C0090B1D86888420FD372B6596859B16E
:1056100052F80C0040B14568013942F80C5059600D
:1056200000F8044B62B638BD62B6002038BD074BA7
:105630001B68002BF9D0081D98470028F5D000F80A
:10564000044B38BD0020704754260020B4250020AC
:10565000002197220B4810B50C4603F035FD4FF49E
:1056600067720948214603F02FFD084B642221464A
:1056700007481C6003F028FD064B2046C3E90044A0
:1056800010BD00BFBC250020B8260020542A0020F1
:1056900054260020B425002038B5094C25686B1C21
:1056A00006D100F07BFE0028206004DB002038BD1E
:1056B0006FF00B0038BD6FF00B00256038BD00BFE8
:1056C000440F00200128034603D8034A002013702A
:1056D00070474FF0FF3070478F2A00202DE9F04FC0
:1056E000002383B00193002943D0B0FA80F8064626
:1056F0004FEA581800283CD0214F3868431C3BD053
:105700000D46DFF88090DFF880A044462A1B31194F
:1057100001AB00F053FE00BB019B53EA04021C44A2
:105720000DD0A54294BF4FF0010B4FF0000B0BD8EA
:10573000BBF1000F0FD0002003B0BDE8F08F9AF846
:1057400000309BB114469346C84509D96FF00E004E
:1057500003B0BDE8F08F3868D8E76FF00B00EBE7D7
:10576000002008F10A0801F0D5F9E1E76FF0050023
:10577000E2E74FF0FF30DFE76FF00800DCE700BF43
:10578000440F00207F841E008F2A00202DE9F04F57
:10579000002383B00193002943D0B0FA80F8064675
:1057A0004FEA581800283CD0214F3868431C3BD0A2
:1057B0000D46DFF88090DFF880A044462A1B31199F
:1057C00001AB00F005FE00BB019B53EA04021C4440
:1057D0000DD0A54294BF4FF0010B4FF0000B0BD83A
:1057E000BBF1000F0FD0002003B0BDE8F08F9AF896
:1057F00000309BB114469346C84509D96FF00D009F
:1058000003B0BDE8F08F3868D8E76FF00B00EBE726
:10581000002008F10A0801F07DF9E1E76FF00100CE
:10582000E2E74FF0FF30DFE76FF00800DCE700BF92
:10583000440F00203F420F008F2A002010B5084C73
:105840002068431C06D000F0F3FD28B94FF0FF3369
:10585000236010BD002010BD6FF00B0010BD00BF15
:10586000440F002002B3F0B5A0F1040E0EEB820E3F
:10587000012A18D08C46034601261D4653F8044BD6
:105880006D68A54209D2DCF800500026DCF80470EF
:10589000CCE900751D6843E901549E450CF1040CE8
:1058A000EBD1002EE4D0F0BD704700BF10B5094C1D
:1058B00023785BB9FFF7F0FE38B9074B0749084A70
:1058C0001880012308801060237010BD6FF00B005A
:1058D00010BD00BF922A00207C2A0020802A0020D0
:1058E00070240020052A2DE9F84354D9B0FA80F33A
:1058F00004465B0900284ED02A48007800284DD085
:1059000034F801806718B8F1000F41D008F10601A2
:1059100091423DD8244D4FF6FC7208F1040C2988C1
:10592000904507EB0C06798008D017FA8CF03A46C0
:1059300012F8011B0B4482429BB2F9D10421384674
:1059400027F80C30FFF7CAFE814610B14846BDE883
:10595000F8830120FFF7B6FE4146381DFFF7BEFE73
:10596000814628B902213046FFF7B8FE814628B1AA
:105970000020FFF7A7FE4846BDE8F8832046FFF762
:10598000FFFC2B88002001332B80FFF79BFEF2E702
:105990006FF00609DAE74FF0FF39D7E76FF0080933
:1059A000D4E700BF922A0020802A00202DE9F0478A
:1059B00082B0002852D01746002A4FD02A4B1B78BD
:1059C000002B45D00C46042106460DEB0100FFF7E5
:1059D000DDFE054660BBBDF804A0BAF1000F3AD069
:1059E000224B0AF10609186804EB0901FFF7F8FDDC
:1059F0008046B0B32946224603F066FB019B012096
:105A000048F804304444FFF75DFE51460434204614
:105A1000FFF7BCFE80B904EB0A000221FFF7B6FED7
:105A2000054648B9FFF74EFEC6F80080C7F800905B
:105A3000284602B0BDE8F08700206FF00605FFF7AA
:105A400041FE0023404633603B60FFF799FCEFE7DF
:105A50006FF00805ECE76FF00605E9E74FF0FF355A
:105A6000E6E76FF00905E3E7922A0020A81100207D
:105A7000002B18BF002A0ED0B0FA80FC4FEA5C1C45
:105A800048B110B49C1D8C4208D803806046146055
:105A90005DF8044B70474FF0FF3070474FF0FF3018
:105AA000F6E700BF002A18BF042947D970B504469D
:105AB000002837D0234B1B78002B3CD00588438827
:105AC000A81D1FFA83FC884232D11F49086800B321
:105AD0001E490888844520D901308445D4BF002060
:105AE0006FF004000B806319B3F804E04FF6FC7309
:105AF0009D4215D005F1040C002314FA8CFC14F817
:105B0000011B0B4464459BB2F9D19E450DD1156034
:105B100070BD01260E600D49E4E76FF00300E1E778
:105B20000023F2E74FF0FF3070BD6FF00C0070BD46
:105B30006FF0060070BD6FF0080070BD4FF0FF30D1
:105B4000704700BF922A0020702400207C2A002089
:105B500004207047022070474FF6FC70704700BF6A
:105B6000FF20704700200349034A044B088010803F
:105B700018607047802A00207C2A002070240020B2
:105B8000014B1860704700BFA811002010B5084CE9
:105B9000207800B910BDFFF751FE0028FAD1054961
:105BA000054A064B207008801080186010BD00BFA9
:105BB000922A0020802A00207C2A002070240020C5
:105BC00018B111B1002303600B60704718B111B117
:105BD000002303600B60704700224FF416511046FB
:105BE00000F004B808B500F02BFBFEE72DE9F04308
:105BF0000023DFF8448183B0C8F80030082814D8A7
:105C0000DFE800F02248525C66707A0516008023B7
:105C100000223E480191C8F8003002F085FBD8F818
:105C20000030019913F4807F03D003B0BDE8F08306
:105C3000002343F4807300223548C8F8003003B0D5
:105C4000BDE8F04302F070BB0123324D324CC8F87E
:105C5000003040F2EE28314F2E68DFF8E09004E08B
:105C6000B3F5FA6FE1D803F00DF803F00BF82378E1
:105C700043B13B78DB0705D52B68D9F800209B1A88
:105C80000E2BD2D82B6822789B1B002AE8D14345E3
:105C9000E9D9CAE7022300222148C8F8003003B03E
:105CA000BDE8F04302F040BB042300221D48C8F8C1
:105CB000003003B0BDE8F04302F036BB08230022F9
:105CC0001948C8F8003003B0BDE8F04302F02CBB1F
:105CD000102300221548C8F8003003B0BDE8F04397
:105CE00002F022BB202300221148C8F8003003B084
:105CF000BDE8F04302F018BB402300220D48C8F86D
:105D0000003003B0BDE8F04302F00EBB801E00205F
:105D1000E01E0020642500209D2A00209C2A0020EF
:105D2000401C0020A01C0020001D0020601D002041
:105D3000C01D0020201E00200823002084250020F4
:105D4000844641EA000313F003036DD1403A41D386
:105D500051F8043B40F8043B51F8043B40F8043B45
:105D600051F8043B40F8043B51F8043B40F8043B35
:105D700051F8043B40F8043B51F8043B40F8043B25
:105D800051F8043B40F8043B51F8043B40F8043B15
:105D900051F8043B40F8043B51F8043B40F8043B05
:105DA00051F8043B40F8043B51F8043B40F8043BF5
:105DB00051F8043B40F8043B51F8043B40F8043BE5
:105DC00051F8043B40F8043B51F8043B40F8043BD5
:105DD000403ABDD2303211D351F8043B40F8043B75
:105DE00051F8043B40F8043B51F8043B40F8043BB5
:105DF00051F8043B40F8043B103AEDD20C3205D385
:105E000051F8043B40F8043B043AF9D2043208D07C
:105E1000D2071CBF11F8013B00F8013B01D30B88EE
:105E200003806046704700BF082A13D38B078DD0CC
:105E300010F003038AD0C3F10403D21ADB071CBF9E
:105E400011F8013B00F8013B80D331F8023B20F808
:105E5000023B7BE7043AD9D3013A11F8013B00F841
:105E6000013BF9D20B7803704B7843708B788370C9
:105E70006046704772B6EFF305834F4CC4F8843028
:105E8000EFF308824FF0E0234C4E4D4DD3F8280D30
:105E9000D3F82C1DC4E92201D3F8341DD3F8383DC2
:105EA000C4E924139369C4F89830D369C4F89C30CA
:105EB00001F08EF984ED280A01F00EF90B214FF064
:105EC000FF32C4F8A4000B46C4F880103D49301DD1
:105ED0005A40202402F00103013C01FB03F383EA52
:105EE0005202F7D1A84202D073680646EFE7324B60
:105EF000C3F8A820BFF34F8F4FF0E0232F49324A59
:105F0000C3F8701FC3F8702FBFF34F8FBFF36F8FAD
:105F10002E4A02252E48D36E2E4943F44053D366B1
:105F20000560D3692C4823F07F0343F04003D3611D
:105F30000B6883423DD8264D00214FF0E0234FF0FF
:105F4000FF3229600126C5F808112449C5F800115F
:105F5000C5F80861C3F88021C3F88421C3F88821FB
:105F6000C3F88C21C3F8902101E001F023FAD5F8A1
:105F70000C31002BF9D00134C5F80C614F2CF4D949
:105F8000174B022017494FF00042C1F840015A63F5
:105F9000D5F80C313BB9144814490D4A0163D2F8C5
:105FA0000C31002BFAD04FF0E023114AC3F80C2D2E
:105FB000FEE700F037FCBEE700FF272080FF272028
:105FC000A8FF27202083B8EDA0FF272000C00F40A6
:105FD000004008406C0C0020803DCD0B009F240049
:105FE00000900D4000002E4000800F40F100AD0BEE
:105FF0000400FA05704700BF362852D80001F0B4FB
:10600000314C324D2358AB4250D043D8B3F1844F7A
:1060100045D0A5F58045AB423AD12D4D04442D4ED7
:106020002D486768C0F8B462E0684FF0E0244FF094
:106030000056042AC4F810612AD85C6924EA0004D6
:106040005C614FF005043C605C6824EA00045C601D
:10605000224C54F8224090FAA0F2B2FA82F245F8AB
:1060600022106FEA00011DD0DD690F2A01EA050147
:10607000D9611DDC52000325D968944005FA02F26B
:1060800021EA02022243DA6098615A6902435A61A6
:10609000F0BC7047124DAB42FAD1124DBEE7124D23
:1060A000BCE77047DA690243DA61EDE70F4DB5E707
:1060B000103A032519695200944005FA02F221EAC8
:1060C000020222431A61DFE7E80300200080004259
:1060D000C80F0020210000000014002094020020BE
:1060E00000C00042C8100020480F002048100020C7
:1060F000002805DA044B00F00F00C05C400970472F
:10610000024B185C704700BF14ED00E000E400E0B3
:1061100080B485B000AF78607B6801335B017B6041
:106120007B68FB60FB6883F3118800BF00BF1437F6
:10613000BD465DF8047B7047EFF3008001B5EFF3D7
:10614000118003B46520FFF7D3FF03461846FFF71D
:10615000DFFF0B4B9B680A4A43F001039360084B37
:106160009B68074A43F002039360054B9B68044A0F
:1061700043F004039360034800F098F800BF00BFA9
:1061800000001F40F142000080B485B000AF78608D
:106190003960204B9B6E1F4A43F0407393661E4B41
:1061A0001B681D4A43F0400313601B4B1A4A5B688F
:1061B0005360194BDB68184A43F00103D360164A59
:1061C0003B681361144B1B68134A43F001031360CF
:1061D000124B134ADA627B68DBB2FB73114BBB6074
:1061E000FB7B10330D49BA6841F8232000BF7B6860
:1061F00003F01F03012202FA03F17B685A090A4BDC
:1062000013449B000A461A6000BF1437BD465DF870
:10621000047B704700C00F4000001F4000140020A6
:106220005D430000B94100004038003880B500AF40
:106230004EF660216520FFF7A7FF00BF80BD00BFBD
:1062400080B400AF034B20221A6000BFBD465DF84A
:10625000047B70478CE100E080B400AF034B202248
:106260001A6000BFBD465DF8047B70470CE100E09A
:1062700080B500AFBFF34F8F00BFBFF36F8F00BF7C
:10628000FFF7DEFF00F0DCF8FFF7E6FF00BF80BDA0
:1062900080B483B000AF0023FB710123FB71FB7955
:1062A00018460C37BD465DF8047B70471EF0100F92
:1062B00008BFB0EE400A03B488B004A006904FF0C7
:1062C000807007907FF006008646704703BC8047C9
:1062D000BFF36F8F00DFFEE700BF00BF1EF0100F9F
:1062E00008BFB0EE400A1EF0040F0CBFEFF30880A9
:1062F000EFF30980816911F8020C10B101280DD06B
:106300000BE01EF0100F0CBF1AB008B003BC80F3F6
:10631000118803BC80F300880847FEE74EF614514D
:10632000CEF200010A6842F001020A607047F4E709
:1063300000BF00BF134B10B51B78134C012B02D0CC
:106340002368012B16D1236853B1104B1C6800F051
:1063500035FC8442A0EB040088BF00F1FF3010BD83
:106360002368002BF1D100F029FC084B01221860B2
:106370002260EBE700F022FC044A03460020136091
:1063800010BD00BF942A0020D4220020D02200207B
:10639000014B00221A707047932A002000224FF40C
:1063A000E131104608B5FFF721FC01E001F088FE5D
:1063B00001F07AFE0028F9D108BD00BF38B51446B7
:1063C0001D46084611B201F0A1FE00202C6038BD28
:1063D00000202DE9F04118601C460E46154601F0DC
:1063E00063FE90B1114F4FF0010803E001F068FE29
:1063F00002280DD03B78002BF8D003E001F060FEBE
:10640000431C0DD120688542F8D80020BDE8F081FA
:1064100087F8008006F8010B236801332360E9E761
:1064200006F8010B206801302060ECE7932A002079
:106430004FF47A7008B500F06DFB002008BD00BF76
:106440002DE9F041524C2DED068B267884B0731C5B
:10645000237046B14F4B012226701A6004B0BDEC88
:10646000068BBDE8F08103A84B4DFCF72BF8FFF736
:10647000F3FE4A4B1F6897ED080B8DED000BFCF700
:106480001FF930462E469DED000BFBF7ADFFFFF7E1
:10649000D7FE227803AB0121013A22702A4613F875
:1064A000010F20B15078441C5470002861D1013193
:1064B00001320429F3D10124354E9FED319B9FED2C
:1064C00032ABA04616F8013F002BC7D115F8013FAB
:1064D0003BB90134042CF5D104B0BDEC068BBDE80A
:1064E000F08186F80080FFF7B7FE022C2DD0032C38
:1064F00019D1D7ED137AD7ED126AB8EE677BB8EEF3
:10650000668BA7EE098BFCF767FB204638EE080B7D
:10651000FBF76AFFFFF794FE2B78013B2B70337873
:10652000013B3370D5E7D7ED0F7AD7ED0E6AB8EEA1
:10653000677BB8EE668BA7EE098BFCF707FB0120A3
:1065400028EE0A0BFBF750FFE4E7D7ED117AD7ED01
:10655000106AB8EE677BB8EE660BA7EE090B8DEDFF
:10656000000BFCF711FB20469DED000BFBF73CFFF9
:10657000D0E7084B012270541A609CE7AFF300800B
:10658000000000000000F0417B14AE47E17A743F48
:1065900084240020301C0020882400204803002090
:1065A0002DE9F04100243F4D3F4E404F2C70347098
:1065B000FFF712FBD7F8008021462046C8F80040BC
:1065C000FBF760FE08B1BDE8F081FCF765FB72B631
:1065D00062B608F17801D8F80400FBF755FE0028F0
:1065E00049D072B6FFF722FEFBF766FF00284ED0B7
:1065F0000023DBB23370FFF72FFEFDF75BF9C4B267
:1066000062B6337893B92DE001232B702B78B3FA5F
:1066100083F35B0933702B78CBB9012C1BD0FDF7CA
:1066200049F9C4B2FFF734FE3378DBB1FBF726FF3C
:10663000FBF742FF0028E7D1FBF738FF0028E3D142
:106640003B6893F88030003B18BF0123DDE7FFF77C
:10665000F7FD012CE3D1FDF72DF90028DFD1FFF77D
:1066600097FEDCE7FCF754FCFBF70CFFFFF7BAFAE8
:1066700072B60020A7E74FF0FF30FBF751FEFBF7A3
:1066800015FF0028ADD0012388F88030A9E7FBF77B
:106690000DFF0028ACD13B6893F88030B3FA83F348
:1066A0005B09A6E7982A0020942A002048030020CE
:1066B0002A2839D8F8B51D4F04463B7893B91C4BAE
:1066C0001B5DFF2B1FD01C061FD41A4C2360236AAE
:1066D000D80704D402F0D6FA236AD907FAD5154BA5
:1066E000586AF8BD134D144E01E002F0CBFAAB6CC2
:1066F0001B06FAD4B36C13F08003F6D13B700C4B3D
:106700001B5DFF2BDFD10020F8BD0B4C03F07F0396
:106710002360236ADA0704D402F0B4FA236ADB07A1
:10672000FAD5054B586AF8BD002070478D2A002025
:106730006807002000400C4000800C40362816D826
:106740000201104B03EB00109B5810B4C2685C6848
:10675000144205D061B95DF8044BC3F88820704736
:10676000836851B1084A5DF8044B1A60704770475E
:106770005DF8044BC3F884207047044A5DF8044B6D
:106780001A607047E803002038F00100383001003B
:1067900036280BD8064B020103EB00109A58C36849
:1067A00092681A4214BF01200020704700207047F1
:1067B000E8030020362829D8164B0201012903EBF3
:1067C00000109A5810B45368C4680ED004290CD035
:1067D00023EA040353608368A9B1022917D003296F
:1067E0000CBF0D4A0D4A1A6007E02343012953608C
:1067F000836808D040F638021A60436815225DF8B5
:10680000044B1A60704738221A60F6E77047044A52
:106810001A60F2E7E8030020383001003800010078
:1068200038F00100A249A34B88422DE9F047A24C61
:106830005E699A69D4F80C801BD9A04B984240F24B
:106840000281C31A9E491B0AA1FB031340F2276170
:10685000DB0903EB830303EB830303F2E2438B4285
:1068600028BF0B46A3F54877964BA3FB0737FF08D5
:1068700004E0954FB8428CBF0E2706278D4908F0DB
:106880001F09D1F88030B94543F0C003C1F880300A
:106890000CD228F01F08A1F5F82148EA0708C1F832
:1068A0000C800B68002BFCDA08F01F0916F000734F
:1068B00024D186490C698649A14300F0EA8082F41C
:1068C000805134464FF4805514F0605F04D026F0B8
:1068D00060561E43774B5E6111F4405F07D022F48F
:1068E000405274492A438A618B6C1A07FCD446F0E3
:1068F0000076704A5661936C9B06FCD4754CA0429E
:1069000000F2CE804FF0010C0146634603FB0112FA
:1069100003F1010E0CF10105A24218D8BEF1080FD7
:106920004FF0010340F08D80BCF1040F00F2918024
:106930000A18A24200F2A48005FB00F1AC4603F164
:10694000010E03FB01120CF10105A242E6D90CF184
:10695000FF318C0286EA81215F4810445F4A9042F1
:106960007FD9DFF8A4A16C225D48584DB0FBFEF042
:10697000D5F800E0B0FBFCF0DFF890C10EEA0C0C9B
:10698000D44509D042F400524FF4805CC5F800C0F1
:106990002A602A68002AFCDA464A156905F00705CC
:1069A0009D4203D01361936CDD03FCD411F4E05FCE
:1069B00009D026F4E05604F4E0543E4A26435661DA
:1069C000936C9907FCD44749474A014491423CD80B
:1069D000464BC909A3FB0131090B4B1E1B0286EA7A
:1069E000030212F4407F06D026F4407603F440738D
:1069F000304A334353612F4A536923F00073536184
:106A0000936C9B06FCD43A4B4F45A3FB00234FF0FD
:106A1000FF324FEA9343B0FBF1F1B2FBF3F3354A97
:106A20001060354A1160354A136008D228F01F08FB
:106A3000214A48EA0707D7601368002BFCDABDE853
:106A4000F087734662E7122718E74FF4407304217A
:106A5000C5E70CF1FF31204807238C02104486EA79
:106A60008121274ADFF8A8A0A2FB0020020D2548BB
:106A7000362A38BF362202FB00F042EA0A0A74E7DF
:106A80004FEA8C24002386EA8C214FF0010EAC469D
:106A900062E71D4686F0C05411464FF0C05313E71D
:106AA00000244FF0010C024631462346E64653E7E8
:106AB00000A4781F00C00F40000008400046C32318
:106AC00023B24C001F85EB5100366E0100800D4053
:106AD00040300080FFB19F26808D5B00FF7EF64D29
:106AE00000643F4D7FD1F0087F17B42C9F10E50064
:106AF00083DE1B436C0C0020680C0020182500204E
:106B0000819F5E16001BB7006C2000807F300180E3
:106B10000020008000B970472DE9F84F012181461F
:106B2000214C224D224E54E8003F2A68306844E848
:106B30000013002BF7D11F494B684FF47A7BDFF825
:106B400078A01B1A01270BFB02F8DAF80020A3FB40
:106B500002325A4594BF9044D84454E8003F2A6812
:106B6000306844E80073002BF7D14B68DAF800C0B6
:106B70001B1A0BFB02F2A3FB0C3CBCF57A7F94BF03
:106B8000624402F57A72A2EB0802B2F57A7F06D36C
:106B9000B9F1010908F57A78DFD1BDE8F88F02F084
:106BA00071F80449D9E700BF68250020642500205A
:106BB00060250020001000E01825002030B40F4BA5
:106BC0004FF0010C0E4D0F4C53E8002F2868216840
:106BD00043E800C2002AF7D10B4B5B680B4A5B1AF3
:106BE0004FF47A71126801FB00F0A3FB023230BC53
:106BF0008A4294BF80184018704700BF6825002063
:106C00006425002060250020001000E018250020E9
:106C10004FF0010C0CFA01FC01EB410100EB4111BA
:106C200070B5B1F80EE01FFA8CF5254C1FFA8EFEF8
:106C300024782E010EFB033306F0F006E340B0F893
