:0200000460009A
:100000004643464200000156000000000103030081
:1000100000000000000000000000000000000000E0
:1000200000000000000000000000000000000000D0
:1000300000000000000000000000000000000000C0
:1000400000000000010408000000000000000000A3
:100050000000800000000000000000000000000020
:100060000000000000000000000000000000000090
:100070000000000000000000000000000000000080
:10008000EB04180A063204260000000000000000FD
:10009000050404240000000000000000000000002F
:1000A0000000000000000000000000000000000050
:1000B0000604000000000000000000000000000036
:1000C0000000000000000000000000000000000030
:1000D00020041808000000000000000000000000DC
:1000E0000000000000000000000000000000000010
:1000F0000000000000000000000000000000000000
:10010000D8041808000000000000000000000000F3
:100110000204180804200000000000000000000095
:1001200000000000000000000000000000000000CF
:10013000600400000000000000000000000000005B
:1001400000000000000000000000000000000000AF
:10015000000000000000000000000000000000009F
:10016000000000000000000000000000000000008F
:10017000000000000000000000000000000000007F
:10018000000000000000000000000000000000006F
:10019000000000000000000000000000000000005F
:1001A000000000000000000000000000000000004F
:1001B000000000000000000000000000000000003F
:1001C000000100000010000001000000000000001D
:1001D000000001000000000000000000000000001E
:1001E000000000000000000000000000000000000F
:1001F00000000000000000000000000000000000FF
:10020000FFFFFFFFFFFFFFFFFFFFFFFFFFFFFFFFFE
:10021000FFFFFFFFFFFFFFFFFFFFFFFFFFFFFFFFEE
:10100000D100204325160060000000000000000011
:10101000201000600010006000BC006000000000B4
:101020000000006000C8000000000000FFFFFFFF9C
:10103000FFFFFFFFFFFFFFFFFFFFFFFFFFFFFFFFC0
:10104000FFFFFFFFFFFFFFFFFFFFFFFFFFFFFFFFB0
:10105000FFFFFFFFFFFFFFFFFFFFFFFFFFFFFFFFA0
:10106000FFFFFFFFFFFFFFFFFFFFFFFFFFFFFFFF90
:10140000884207D0904205D251F8043B40F8043B93
:101410008242F9D8704700BF884204D2002340F8C6
:10142000043B8142FBD870472DE9884800F012F94F
:101430000824614B614AC3F8544161496148FFF790
:10144000DFFF614A61496248FFF7DAFF614962489C
:10145000FFF7E2FF614C4FF0E0214FF470000023F2
:101460005F4AC1F8880D44F823200133B02BFAD12C
:101470005C4B80215C4A03F8011B9342FBD14FF087
:10148000E0254D4E4FF08039DFF88CB1DFF88CA1AC
:101490004FF0FF31C5F8084D0027C6F80491C6F893
:1014A00000B1C6F8F490C6F8F0A0D5F8243DDFF8F6
:1014B000708143F4E0234D4AC5F8243DD8F81C3030
:1014C00023F07F0343F04003C8F81C30D8F82430E1
:1014D00023F07F0343F04003C8F824309166D166BF
:1014E0001167516700F0BEF8414B4249A363424B7C
:1014F000E36363236B610323AF612B613F4BC5F84B
:10150000203DD5F8FC3D43F08073C5F8FC3D3C4BD5
:101510001A6842F001021A605B680B6000F0E0FAA2
:10152000C6F804913748C6F800B1C6F8F490C6F87A
:10153000F0A000F085FCD8F86C10334B334A41F42E
:101540004051C8F86C101F60C3F80871C3F81871D7
:10155000C3F82871C3F83871936BDB0708D442F6DF
:1015600015632B4951651365936B43F00103936336
:10157000264A284C936843F00113936000F0EEF87C
:1015800000F0DCFA00F050FC00F002FB00F064F820
:101590002368132BFCD900F093FB2368B3F5967FE7
:1015A000FBD300F05DF800F059F800F031FC00F0DA
:1015B0003FFC30BFFDE700BF00800D40A080000071
:1015C000801F006000000000C01A002024A00060FE
:1015D00000000020C0340020C01A002000180020A5
:1015E000194E000000E400E0A0E400E000C00A4062
:1015F000157B0000C82B0020197B00000000202074
:10160000001000E00046C3230040084000400D40A9
:101610000000C056CC2B00201B1018200C0D1113FD
:1016200000C00F40074B4FF42A01074A07485A648D
:101630001864074A99639546BFF34F8FBFF36F8FC6
:10164000FFF7F2FE00C00A40AFAAAAAA07002000D6
:1016500000000720704700BF704700BF704700BF01
:1016600000BF704710B44FF0E023002110242B4836
:10167000C3F8941DC3F89C4D1124C3F8A00D28484D
:10168000C3F89C4D1224C3F8A00D2648C3F89C4D06
:10169000254AC3F8A00D254C42F015022448C3F892
:1016A0009C4DC3F8A00D234C2348C3F89C4DC3F8B0
:1016B000A00D224CC3F89C2D2148224AC3F8A04D0E
:1016C000C3F89C0DC3F8A02D02F5A0221E4C0C32CD
:1016D0001E48C3F89C4DC3F8A02D1D4AC3F89C0DAD
:1016E0001C4CC3F8A02D01221B48C3F89C4DC3F825
:1016F000A00DC3F8942DBFF34F8FBFF36F8FC3F8C6
:10170000501FBFF34F8FBFF36F8FD3F8142D5DF8C9
:10171000044B42F44032C3F8142D70473F000010D0
:101720002500080309001000C03400201300200029
:1017300021000207140000202500081309000010F2
:101740001600202027000B1317000040180000602F
:101750002F000B07190000702F000B13F0B5B84BCA
:101760001822B84E0120B84F83B0C3F85C62B74965
:10177000C3F86072B64DC3F86462A6F53046B54C46
:10178000C3F86862C3F86C52C3F87052C3F874525D
:10179000C3F8785248F20C75DA661A675A679A6786
:1017A000DA67C3F88020C3F88420C3F88820C1F822
:1017B0002C03A94AC1F83003C1F83403C1F8380337
:1017C000C1F83C03C1F85003A169A44B0A40A448E6
:1017D000A4491343A44AA361D4F8843043F00C0312
:1017E000C4F884304FF0FF34036843F00203036011
:1017F00003682B404FF400551A439C4B0260446031
:101800008A689B4C13409B4A43F000538360C36833
:1018100023F07803C360036A134023430362036A1F
:101820001340954A2343954C43628262C262002270
:10183000D1F8B83023F03F0343F00103C0F8B830CB
:10184000D1F8BC308E4923F03F0343F00103C0F8C8
:10185000BC3040F20563026105660467C0F8803061
:10186000456644670224C0F88430036823F002030D
:1018700003608161834B8449C46143F8042B8B422C
:10188000FBD1774A136843F001031360136813F028
:101890000103FBD17A48022140F2F564906140F2E5
:1018A0009940D16140F26641C2F8004242F20144DF
:1018B000C2F810127549C2F82002C2F8301240F284
:1018C00035417348C2F83442C2F84012714CC2F834
:1018D000500242F201207049C2F854120121C2F8AC
:1018E0006042C2F864025E48C2F8A030C2F8A43078
:1018F000C2F8B0104369DA07FCD5012300244FF485
:10190000803257494361C0F8A040C0F8A420C0F815
:10191000B0304B69DB07FCD5012300244FF40030C5
:101920004F4A4B61C1F8A040C1F8A400C1F8B030E3
:101930005369DF07FCD50123002458484849536107
:10194000C2F8A040C2F8A400C2F8B0304B69DE076C
:10195000FCD5D1F8003145F60D5221209BB24861EB
:10196000934265D100244FF4802201233C48C1F802
:10197000A040C1F8A420C1F8B0304369DD07FCD510
:1019800001234FF400040021354A4361C0F8A04010
:10199000C0F8A410C0F8B0305369DC07FCD50123AF
:1019A0004FF400044FF480302D495361C2F8A04039
:1019B000C2F8A400C2F8B0304B69D807FCD50123A7
:1019C0004FF400044FF40030254A4B61C1F8A040A9
:1019D000C1F8A400C1F8B0305369D907FCD5012380
:1019E0004FF400042D481E495361C2F8A040C2F8CC
:1019F000A400C2F8B0304B69DA07FCD5D1F8003149
:101A000045F60D5221209BB24861934250D00825E3
:101A10004FF4000422490020224B234A0090157005
:101A20005A1A01232148224400F0FAF903B0F0BD0C
:101A30001E4B0022C3E90022C3E9022203B0F0BD1D
:101A400000801F40F9B00100F910010000841F4020
:101A5000F970010000C00F40FFFCFF1F000300A051
:101A600000402A4000802A401200FFFFFF37F700A5
:101A70004000008000FFF07CFF000F836300020045
:101A8000F05AF05A00422A4000432A409F0418307E
:101A9000EB06180A3806180A06320126040003006D
:101AA00000000070000000705E340020782A0020E2
:101AB0004FF400044FF4802201230848C1F8A040ED
:101AC000C1F8A420C1F8B0304369DB07FCD501237D
:101AD00010254FF0807443619CE700BF00402A400E
:101AE000F0B4154A40274FF480314FF480564FF43C
:101AF00000554FF4404443F24200136913F0020FC3
:101B00000ED113F4005F0FD013F4805F0ED0002BC2
:101B1000F3DA13F4803F0BD15B060BD5F0BC7047B2
:101B2000946151619061E8E75561E6E75661E4E749
:101B30009161E2E75761E0E700800D40104BA02083
:101B4000104AD96E41F4403110B4D96640F237647E
:101B5000D96E41F44071D96654649064936C1B064D
:101B6000FCD4094A40F23761A02351649364936C1A
:101B700013F08003FBD1054A13705DF8044B7047E6
:101B800000C00F4000400C4000800C405D3400203D
:101B90003F4A03203F49F3EE095AD2F880304FF014
:101BA000000C9FED3D6A23F001039FED3C5A30B4D9
:101BB000C2F88030C2F89000D1F8E010384DCBB2B6
:101BC000384C39482B6007EE903A0B0DC1F30B21CE
:101BD000F8EEE77A06EE903A07EE101A334BB8EEBD
:101BE000C77A2160F8EEE66A314937EEC66A37EE09
:101BF000C55A76EEC76A77EEE57A26EE266AC3ED19
:101C0000006A25EE265AD2F8803067EEA64AC0ED6B
:101C1000007AC6EE275A274885EE276AC4EEA76ADF
:101C200075EE875AFCEEE55A36EE076A15EE904AD5
:101C3000BCEEC66A43EA045376EE877AC2F8803077
:101C400016EE103AD2F89041FCEEE77A01EA034131
:101C5000214317EE903AC2F89011C3F30B03D2F868
:101C600090110B431449C2F89031D2F8803043F000
:101C70000203C2F88030114B80F840C0C1F84031F7
:101C80004FF0E023012230BCC3F80821704700BFA9
:101C900000810D4000441F400000AA420000B442F1
:101CA000282B0020242B00202C2B0020302B002060
:101CB0000000FF0F00E400E000180020A160000019
:101CC000314B40F6617210B5C3F8202140F2044454
:101CD00000F0B2F82D4A2E49D2F880302D4843F05A
:101CE0000303C2F880302C4BC1F8604102681A42ED
:101CF00003D1D1F8A8319A071BD0254A4FF00041F3
:101D0000244B5963D2F8403143F00203C2F840310A
:101D1000D2F840319B07FBD44FF400304FF0E02164
:101D20001C4B4FF00042C1F88C0219209A6300F05E
:101D300073F8184A4FF08040154C002190630A2038
:101D4000164B11604FF42072C4F8A801184600F039
:101D50005BF84FF4800203464FF4810040F24311D8
:101D60001860C4F858311A640D4B0E4AC4F8481173
:101D7000C3F804224FF0E0224FF400310123C2F8EF
:101D80000C11C4F8403110BD00800D4000C00F4060
:101D900000002E4000900D40001C1E00000000209E
:101DA000001800208962000008B50E4B1B6E9B07CF
:101DB00000D4FBBE72B60C4B00200C4AC3F84001A5
:101DC00003F160430A49A3F55F2311649D46BFF305
:101DD0004F8F4FF400130748074ADB6902609B6886
:101DE000984700BF00441F4000002E4000C00A403A
:101DF0000300200000802020000012EBF8B500BF97
:101E0000F8BC08BC9E4670475FF800F0997F000060
:101E10005FF800F0498000005FF800F03D5A0000D4
:101E20005FF800F01D6000005FF800F0B95E000090
:101E30005FF800F0C95400005FF800F0F969000095
:101E40005FF800F04D57000001010000C17600006E
:101E500041770000C577000049780000CD78000088
:0C1E600051790000D5790000597A00008B
:101E6C001603550053004200200053006500720019
:101E7C00690061006C0000001803540065006500E7
:101E8C006E00730079006400750069006E006F00CD
:101E9C000403090409026200030100C032080B00AC
:101EAC0002020201000904000001020201000524E3
:101EBC00001001052401010104240206052406007A
:101ECC00010705820310001009040100020A00003A
:101EDC0000070503024000000705840240000009CA
:101EEC0004020002FF6AFF0007058102400001079F
:101EFC00050102400001000009026200030100C05C
:101F0C0032080B0002020201000904000001020267
:101F1C00010005240010010524010101042402061E
:101F2C0005240600010705820310000509040100C1
:101F3C00020A0000000705030200020007058402E4
:101F4C000002000904020002FF6AC70007058102B3
:101F5C000002010705010200020100000A0600024E
:101F6C00EF0201400100000000010101010101012B
:041F7C000100000060
:101F80000000000000000000000000000000000051
:101F90000000000000000000000000000000000041
:101FA000F8B54FF084439D695A6915400DD0244F10
:101FB00001269D6195FAA5F4B4FA84F457F824300B
:101FC00006FA04F49847A543F4D11E4B9D695A695B
:101FD00015400DD01C4F01269D6195FAA5F4B4FA69
:101FE00084F457F8243006FA04F49847A543F4D152
:101FF000164B9D695A6915400DD0154F01269D61FC
:1020000095FAA5F4B4FA84F457F8243006FA04F4E7
:102010009847A543F4D10F4B9D695A6915400DD0DF
:102020000D4F01269D6195FAA5F4B4FA84F457F892
:10203000243006FA04F49847A543F4D1F8BD00BF54
:10204000E811002000400042681200200080004299
:10205000E812002000C00042681300200548064B2B
:102060001B1AD90F01EBA301491002D0034B03B196
:1020700018477047C01A0020C01A00200000000056
:1020800008B5054B1BB105490548AFF30080BDE815
:102090000840FFF7E3BF00BF00000000A42A0020B3
:1020A00000C8006011B1012918BF022105F0D6BA9D
:1020B00011B1012105F096BA05F094BA08B505F002
:1020C000BBFAA0F10100B0FA80F0400908BD00BFE2
:1020D0000D284FF0000138B50446C5B210D805F1FF
:1020E0000E0005F00705C0B205F0B8FA0123601C28
:1020F000E408AB40DBB20E4A115D0B43135538BD0B
:10210000284605F0070505F0A9FA0123621C04EB37
:10211000030003FA05F3DBB207D1064991F8FF2F5C
:1021200022EA030381F8FF3F38BDC4F3CF04E2E79E
:102130005C2A00205C1A012010F0FF0010B50C464C
:1021400001D1208010BD0138C0B205F005FA80B27F
:10215000208010BD10F0FF0000D17047013801232E
:10216000054900F00702C0F3C40093400A5CDBB2EB
:1021700022EA03030B5470475C2A00200122C0F3BB
:10218000CF0300F0070110B4064C8A40E35C134013
:1021900004D001305DF8044B80B2704718465DF8FA
:1021A000044B70475C2A0020B5EEC00B38B5F1EE49
:1021B00010FA0446C5B207DD104B0122B7EEC00B82
:1021C00028461A5505F0C2FD012305F00705621CDB
:1021D00004EB030003FA05F3DBB206D0C4F3CF042B
:1021E000074A115D0B43135538BD064991F8FF2F7F
:1021F00022EA030381F8FF3F38BD00BFB828002062
:10220000542200205412012010F0FF000DD001389C
:10221000064BC0B21B5C012B08BFB1EE400BFDEEBC
:10222000C07B17EE901A05F02BBD7047B828002030
:1022300010F0FF0000D1704701380123054900F07C
:102240000702C0F3C40093400A5CDBB222EA030336
:102250000B547047542200200122C0F3CF0300F03A
:10226000070110B4064C8A40E35C134004D00130EF
:102270005DF8044B80B2704718465DF8044B704718
:102280005422002000207047002835D0002933D088
:102290001B4AB8EE007B92ED006B38B5B4EE476B8D
:1022A000F1EE10FA23D0D2E90045C1E900454368B8
:1022B00014491C68144D154892ED007B0C60D968D8
:1022C000D3E90124124B2A60124A046011600022F3
:1022D0001A6001F04DFF104B104AC3E900229A60CA
:1022E00001F096FE10B90E4B01221A7038BDD1E9EB
:1022F0000045C2E90045DAE74FF0FF30704700BF04
:10230000000F0020283400202C340020303400201E
:1023100038340020343400200C2C002049220000E6
:102320007A3400202DE9F04F2D4E0223DFF8B8A0BB
:1023300083B096F8009005468AF800305FFA89F37A
:10234000019308B933787BB3337803F0FF0B002B8C
:102350003AD1244F002442F210780FE0BBF1000F75
:1023600037D105F02BFBA54248462CBF4FF0000BA0
:102370004FF0010B01F074FE337833B93B780A203B
:10238000444403F0FF09002BE8D0BBF1000F4FF0ED
:1023900003030CBF00206FF063008AF80030019B3C
:1023A0005BB103B0BDE8F08F0E4F3B78002BCBD173
:1023B000337873B94FF0010BCCE7019002F084F948
:1023C000019803B0BDE8F08F032300208AF80030A5
:1023D000E5E703236FF063008AF80030DFE700BF12
:1023E000793400207B3400207A340020B5EEC00B15
:1023F000F1EE10FA41D4FF2838B504462DED028BDA
:1024000038D81F4BB0EE408B1A78032A19D01A78AF
:10241000012A16D0022C07D81A4D55F824301BB1CA
:1024200002F034FB022811D0B0EE480B204601F038
:10243000CBFD01462046BDEC028BBDE8384002F0E2
:1024400019BB0422022C1A70E6D9EDE755F82430A6
:10245000204698470546B0EE480B204601F0B4FDF3
:102460000146002DE6D1204602F02CFB2846BDECAB
:10247000028B38BD4FF0FF30F9E74FF0FF30704767
:102480007A3400200C2C0020002001F0E9BD00BFB0
:1024900070B50623074E0024337001F011FE064B81
:1024A0000546C3E900449C6002F0ACF8284634704D
:1024B00070BD00BF7A3400200C2C0020014B18782E
:1024C000704700BF7B340020014B1878704700BF75
:1024D000763400200000000070B5334D334C95F881
:1024E000903194F85120013B012B8CBF0023032332
:1024F00085F89031002A4AD0012A46D094F852300B
:1025000004EB8302FF2127201346526D84F85010FC
:10251000DB6DC4E91223FFF7D1FD06462520FFF746
:10252000CDFDB7EE007B864294ED135A4FF0FF339A
:102530001F49B8EE455B4FF00402C5F8E8314FF093
:1025400003001C4B85F8902195ED786B9FED123BB5
:102550009FED134B0CBF36EE076B36EE476B94EDD9
:10256000127AB8EE477B85ED786BA5EE037B85ED9F
:10257000486B81EDB46BBDE8704027EE047BB0EE94
:10258000470B83ED007BFFF731BF0023B8E7012342
:10259000B6E700BFAFF30080000000000000F0418C
:1025A0007B14AE47E17A543F38200020681F00209A
:1025B000901C0020801C002070B5334D334C95F8E2
:1025C0008F3194F86D20013B012B8CBF0023032336
:1025D00085F88F31002A4AD0012A46D094F86E300F
:1025E00003F11C021E33FF21192054F8222054F855
:1025F000233084F86C10C4E91923FFF75FFD064609
:102600001B20FFF75BFDB7EE007B864294ED1A5A64
:102610004FF0FF334FF00400B8EE455B1C4AC5F89D
:10262000D8311C4B85F88F0195ED746B9FED123BF3
:102630009FED134B0CBF36EE076B36EE476B94EDF8
:10264000197AB8EE477B85ED746BA5EE037B85EDBB
:102650004C6B82EDB26BBDE8704027EE047BB0EEB0
:10266000470B83ED007BFFF7C1BE0023B8E70123D2
:10267000B6E700BFAFF30080000000000000F041AB
:102680007B14AE47E17A543F38200020681F0020B9
:10269000901C0020801C002070B5334D334C95F801
:1026A0008E3194F88920013B012B8CBF002303233A
:1026B00085F88E31002A4CD0012A48D094F88A300F
:1026C00004EB8302FF211D201346D2F88C2084F8EE
:1026D0008810D3F89430C4E92023FFF7EFFC0646B6
:1026E0001F20FFF7EBFCB7EE007B864294ED215AEA
:1026F0004FF0FF331E49B8EE455B4FF00402C5F8BA
:10270000C8314FF005001B4B85F88E2195ED706B9D
:102710009FED113B9FED124B0CBF36EE076B36EE73
:10272000476B94ED207AB8EE477B85ED706BA5EE94
:10273000037B85ED4E6B81EDB06BBDE8704027EEFD
:10274000047BB0EE470B83ED007BFFF74FBE002309
:10275000B6E70123B4E700BF000000000000F0412D
:102760007B14AE47E17A543F38200020681F0020D8
:10277000901C0020801C002070B5334D334C95F820
:102780008D3194F8A520013B012B8CBF002303233E
:1027900085F88D31002A4CD0012A48D094F8A63013
:1027A00003F12A022C33FF21232054F8222054F86D
:1027B000233084F8A410C4E92723FFF77FFC0646E2
:1027C0002120FFF77BFCB7EE007B864294ED285A70
:1027D0004FF0FF331E49B8EE455B4FF00402C5F8D9
:1027E000B8314FF006001B4B85F88D2195ED6C6BD1
:1027F0009FED113B9FED124B0CBF36EE076B36EE93
:10280000476B94ED277AB8EE477B85ED6C6BA5EEB0
:10281000037B85ED4A6B81EDAE6BBDE8704027EE22
:10282000047BB0EE470B83ED007BFFF7DFBD002399
:10283000B6E70123B4E700BF000000000000F0414C
:102840007B14AE47E17A543F38200020681F0020F7
:10285000901C0020801C0020064AB2F8BA30B3FA5F
:1028600083F35B094370B2F8BC30B3FA83F35B09BE
:1028700083707047681F00209FED137BB0EEC06B24
:10288000B4EEC76BF1EE10FA16D5B6EE007BB4EEDF
:10289000C70BF1EE10FA04DB30EE070BBBFE400B6A
:1028A0007047BEEE006BB4EEC60BF1EE10FA04DC1E
:1028B00030EE470BBAFE400B70479FED057B20EED4
:1028C000070B7047AFF300800000000000003043AA
:1028D00000000000000000002DE9F04FE04E102045
:1028E000E04DB6F8BA20B6F8BC300132DE4F013305
:1028F00092B29BB2022A28BF0022B3F5C86FA6F895
:10290000BA2028BF002395F89121A6F8BC30013ADF
:1029100095F88C31012A03F1FF338CBF002203228A
:10292000012B85F891218CBF0023032385F88C317E
:1029300095F8AA31013B012B2DED028B88BF0023B6
:1029400093B098BF032385F8AA31FFF717FC032241
:102950000DF13601C5F8DC00FFF7EEFB1120FFF7A3
:102960000DFC03220DF13E01C5F8CC00FFF7E4FB9E
:102970001420FFF703FC03220EA9C5F8BC00FFF7E3
:10298000DBFB1520FFF7FAFB03220DF13A01C5F836
:10299000AC00FFF7D1FB0F20FFF7F0FB03220FA9DC
:1029A000C5F89C00FFF7C8FBD5F8683106EE903AF1
:1029B00097EDC47BB8EEE66BB4EE476BF1EE10FA20
:1029C00002D5002B80F23D859FEDA10B97EDC27BD8
:1029D000B7EE005BA54CA649012037EE457B84EDA0
:1029E000A40BB4EEC76BF1EE10FAB4BF01330023B1
:1029F000C5F8683101F03EFA00284AD0BDF83630FB
:102A000001EE103ABDF83E3000EE103ABDF8383015
:102A1000B8EE411B08EE103AB8EE400BBDF83A3064
:102A2000B8EE488B97EDB45B97EDB04B97EDB27B6A
:102A300097EDB62B97EDAC3BA4EE007BA5EE082BF3
:102A400097EDAE6B97EDB84B84ED927BA3EE016BE7
:102A500001EE103ABDF83C3005EE903A0423B0EE9A
:102A6000420BB8EE411B85F88C31B8EE652B97ED23
:102A7000BA3B97EDBE5B97EDBC7BA3EE014BA5EE99
:102A8000027B84ED906B84ED940B84ED964B84ED8A
:102A9000987BD5F87C3106EE903A97ED8A7BB8EEBC
:102AA000E66BB4EE476BF1EE10FA02D5002B80F224
:102AB000C4849FED670B97ED887BB7EE005B6D4993
:102AC000012037EE457B84EDA40BB4EEC76BF1EE2D
:102AD00010FAB4BF01330023C5F87C3101F0CAF904
:102AE000002840F0FB8194ED9A5B97EDCC6B97ED5D
:102AF000CE4B97EDD07B36EE456B26EE046BB4EEF5
:102B0000C76BF1EE10FA08DC97EDD27BB4EEC76B21
:102B1000F1EE10FA58BFB0EE467B02209FED4E6BEF
:102B2000B4EEC67BF1EE10FA88BFB0EE467B84EDC2
:102B3000A47BFFF791FB00220023C5F81C0194ED54
:102B4000A47BB5EEC07BF1EE10FAC0F284849FED59
:102B5000426B27EE067B87EE060BB1EE400BFFF7CC
:102B600053FB97EDD46B94ED9C4B97EDD65B97EDB3
:102B7000D87B36EE446B26EE056BB4EEC76BF1EEF8
:102B800010FA08DC97EDDA7BB4EEC76BF1EE10FAC1
:102B900058BFB0EE467B04209FED2F6BB4EEC67B92
:102BA000F1EE10FA88BFB0EE467B84EDA47BFFF710
:102BB00053FB00220023C5F80C0194EDA47BB5EE75
:102BC000C07BF1EE10FAC0F240849FED236B27EE3C
:102BD000067B87EE060BB1EE400BFFF715FBD5F831
:102BE0006C3106EE903A97EDE07BB8EEE66BB4EE12
:102BF000476BF1EE10FA02D5002B80F21A849FED9C
:102C0000140B97EDDE7BB7EE005B1B49012037EE1E
:102C1000457B95ED488BB4EEC76B84EDA40BF1EECC
:102C200010FA84EDA28BB4BF01330023C5F86C31D8
:102C300001F020F920B3114B13ED027B042327EEA2
:102C4000087B85F8AA3184EDAC7B19E0AFF30080F6
:102C500000000000000000000000000000E06F40E5
:102C6000681F002038200020700A0020901C0020DF
:102C7000C02A0020C12A0020BF2A0020000F002007
:102C8000D5F8703106EE903A97EDEA7BB8EEE66B38
:102C9000B4EE476BF1EE10FA02D5002B80F2C6833A
:102CA0009FEDB10B97EDE87BB7EE005BB2490120D9
:102CB00037EE457B95ED4A8BB4EEC76B84EDA40BE4
:102CC000F1EE10FA84EDA28BB4BF01330023C5F8F6
:102CD000703101F0CFF848B1A84B13ED027B04230B
:102CE00027EE087B85F8A83184EDA87BD5F87431F0
:102CF00006EE903A97EDF47BB8EEE66BB4EE476BD8
:102D0000F1EE10FA02D5002B80F28D839FED960B29
:102D100097EDF27BB7EE005B9949012037EE457BDA
:102D200095ED4C8BB4EEC76B84EDA40BF1EE10FA6D
:102D300084EDA28BB4BF01330023C5F8743101F0D8
:102D400099F848B18F4B13ED027B042327EE087BE3
:102D500085F8A93184EDAA7BD5F8783106EE903A52
:102D600097EDFE7BB8EEE66BB4EE476BF1EE10FA32
:102D700002D5002B80F254839FED7B0B97EDFC7BFB
:102D8000B7EE005B8049012037EE457B95ED4E8B19
:102D9000B4EEC76B84EDA40BF1EE10FA84EDA28BB8
:102DA000B4BF01330023C5F8783101F063F848B1AE
:102DB000764A042312ED027B85F8A73127EE087BC3
:102DC00084EDA67BB36AF26A0133B3620BB90132B8
:102DD000F26207EE902A96F8501096ED0C5BB8EE72
:102DE000677B9FED636B27EE057B27EE067B06EE88
:102DF000903AB8EE666BA6EE057B86ED087B00295F
:102E000000F03883012966D096F85200B0FA80F0BD
:102E10004009014686F85200FF2006EB810486F83F
:102E2000510096F86C006365E265002800F01F838E
:102E300001284DD096F86E00B0FA80F040090146A6
:102E400086F86E00FF2001F11C041E3186F86D002B
:102E500096F8880046F8243046F82120002800F033
:102E60000383012831D096F88A00B0FA80F0400937
:102E7000014686F88A00FF2006EB810486F8890067
:102E800096F8A400C4F88C30C4F89420002800F010
:102E9000E882012816D096F8A600B0FA80F0400922
:102EA000014686F8A600FF2086F8A50001F12A0059
:102EB0002C3146F8203046F8212013B0BDEC028BAF
:102EC000BDE8F08F00210846EBE700210846D0E777
:102ED00000210846B4E7002108469BE74FF0FF3386
:102EE0002B4AC5F88431002302F504789646C4F8CD
:102EF00010329C46C2F82432C2E98533C2E98733D6
:102F0000012384F8103207EE103A84F8163284F860
:102F10001C3284F8223284F8283214461D4B03F107
:102F200028000A93A0F1280341467246B8EEC77BF9
:102F3000B3EC026B36EE477B8342A2EC027B04D0FB
:102F400011F9019F07EE109AF0E70CF1070C0EF152
:102F5000380E03F12800BCF1230F1DD018F9053FEE
:102F600007EE103ADEE700BF00000000000000009E
:102F7000000000000000F041BD2A0020E00E00200B
:102F8000BE2A0020F00E0020BC2A0020D00E002017
:102F9000901C0020700A0020DFF8EC82DFF8ECE2E1
:102FA000B8E80F00AEE80F00B8E80F00AEE80F0079
:102FB00008F1080A0EF11809AEF1200BA8F1E80C8F
:102FC00098E803009FEDAA7B8EE80300BAE80F00A3
:102FD000A9E80F00BAE80F00A9E80F009AE803007B
:102FE00084ED507B89E8030084ED527B84ED5E7BA9
:102FF00084ED607BAEF59C74234638330CF1100CE5
:10300000DCE942015B4543E90401DCE9440143E9B1
:103010000201F2D12822002199484FF0070806F05A
:103020007BFF984B964A0020109340F20563A2F56F
:10303000C0710992ADF8443010AB02928E460193F4
:10304000A2F5A8734FF0330B0222824684469946BC
:103050008DF846800B9107949FED877B97EDC86BA9
:1030600097EDCA4BCDE9058286EE075B84EE076BD0
:1030700084ED6C5B84ED6E6B1EED023B4FEACA0083
:10308000724601230021B0EEC33BB2EC025BB0EE0E
:10309000C55BB4EEC35BF1EE10FA02DDB0EE453B6A
:1030A000194601334345F0D10844079B03EBC000A8
:1030B00090ED007BB5EE407BF1EE10FA40F0C08061
:1030C000019B93F900300893CAF10503CCF1090183
:1030D0000EF1380003930CF13003049303E0073141
:1030E000383059451ED010ED026BB5EE406BF1EE55
:1030F00010FAF4D0039B0B449942F0DC049CB1EE2F
:10310000466B72460346044493ED007BB2EC024BDF
:10311000A4EE067BA3EC027BA342F5D10731383045
:103120005945E0D10AF1010A089B9A450CD007994C
:103130003033029A01EBC30392ED003BD3E9000167
:10314000C2E9000183ED003B029BBAF1060F0BF1CF
:10315000010B0EF1400E03F10803ACF1080C08F16D
:10316000FF3809F138090293019B03F10103019330
:10317000059B03F107030593069B03F108030693E0
:103180007FF47AAF079C02203D4ADDF82CE002F183
:10319000380C84EDA25B84EDA43B04E001300EF119
:1031A000400E09281CD0B2EC026BB5EE406BF1EE7C
:1031B00010FAF3D0082813D07146134601E012ED3F
:1031C000026B93ED007BB1EC025BA5EE467BA3ECBA
:1031D000027B6345F3D101300EF1400E0928E2D1A4
:1031E000DFF8AC800520A8F1700EA8F5E07C42461F
:1031F00006E0431C4ED00138AEF1380EACF1400C65
:1032000032ED027BB5EE407BF1EE10FAF1D0431CBB
:103210009CED605B002B87EE056B82ED006BE8DDBB
:103220007146099B01E092ED006B93ED007BB1ECE0
:10323000025BA5EE467BA3EC027B9342F3D1DAE777
:10324000002940F01A81019B93F900300893DDE9D1
:10325000052393423FF738AF734693ED004B1EEDC5
:10326000026B84EE067BA3EC027B4B45F5D12BE78A
:103270000000000000000000B81E85EB51B8FE3FC2
:10328000181E002001020304380B0020A81D002096
:10329000501E00209FED866BDFF850928C4BB0EEF5
:1032A000465B09F128014A461033B2EC027B93EDEC
:1032B000423B93ED444B9142A3EE075BA4EE076BB8
:1032C000F2D1844B4A46099903F1280094ED904BC2
:1032D0009FED792B94ED927B9FED793B34EE024B81
:1032E00037EE037B84EDA45B34EE455B37EE464B53
:1032F00084EDA24B9C4608339CED007B9CED0A2B91
:1033000092ED003B25EE077B9842B1EC026BA4EEF8
:10331000027B37EE037B37EE466BA2EC027B81ED3E
:103320000C6BE7D1DFF8B4A14246694B9FED606BAF
:10333000B2EC025B93ED5A7B10339245A5EE076B1E
:10334000F6D14246624B94ED6C5B9FED597B35EEB6
:10335000465B84ED8C5BB2EC026B93ED5C5B1033EF
:103360009245A5EE067BF6D1002128225A4894ED1D
:103370006E6B36EE476B84ED8E6B06F0CDFD4846E6
:103380000021DDF828C062464346B0EC025B93EDB5
:10339000007BB2EC026BA6EE057BA3EC027B9A45A8
:1033A000F5D105310CF1280C1929ECD12822002186
:1033B0004A4806F0B1FD494B49491A4694ED8C5BE9
:1033C00092ED007BB1EC026B4648A5EE067BA2ECC9
:1033D000027B9042F4D1444A94ED8E5B93ED007BE6
:1033E000B2EC026B3F49A6EE057BA3EC027B99424F
:1033F000F4D1B8EC026B98ED087BC24537EE067B42
:10340000A9EC027BF5D1D4E98E2394ED8C5BC4E961
:103410009C23042384ED9A5B85F89131FFF765BB0B
:1034200097EDFA0BAAE497EDF00B71E497EDE60B3C
:1034300038E497EDDC0BFFF7E4BB97ED860BFFF765
:103440003ABB97EDC00BFFF7C1BA9FED1F0BC4E964
:10345000A423FFF7C2BB9FED1C0BC4E9A423FFF715
:103460007EBB012108461CE50121084601E501213A
:103470000846E5E401210846CCE401EB0A03029C7E
:103480000799581CA4F5C47201EBC30341B201981B
:1034900008910170D3E9000192ED003BE2E80E01D2
:1034A0001946A24203F1380381ED003BF2D1CEE68A
:1034B00000000000000000005C8FC2F5285CE73FC0
:1034C0007B14AE47E17AB43F0000000000000080AA
:1034D000700A0020280C0020501E0020781E0020BA
:1034E000380B0020A01E0020600B00207821002057
:1034F00070B5514C4FF0FF32504E514DD4E9900110
:1035000094ED8E6BC6E9A00104F58261C5F88821AF
:1035100004F5846204F5866491ED007B12ED025B94
:103520002DED048B37EE467B92ED008B27EE057B6D
:1035300086ED9E6BB4EEC78BF1EE10FA07D414ED56
:10354000028BB4EEC78BF1EE10FA38FE078B9FEDBD
:10355000349B0520B4EEC98BF1EE10FA09D8FEF7C2
:103560007BFEB5EEC08BF1EE10FA50DA9FED2E0B1C
:1035700003E0FEF771FE9FED2E0BC5F8FC00FEF791
:1035800043FE304B96EDA06B94ED007B93ED008BEA
:1035900037EE467B13ED026B27EE067BB4EEC78B4E
:1035A000F1EE10FA07D493ED028BB4EEC78BF1EE77
:1035B00010FA38FE078B9FED1A9B0620B4EEC98BDC
:1035C000F1EE10FA09D8FEF747FEB5EEC08BF1EE2A
:1035D00010FA15DA9FED140B03E0FEF73DFE9FEDA8
:1035E000140BC5F8EC00FEF70FFE174A936B01337E
:1035F000936313B9D36B0133D363BDEC048B70BDFC
:1036000028EE098B88EE090BB1EE400BE9E728EEB6
:10361000098B88EE090BB1EE400BAEE7AFF30080EB
:103620000000000000E06F4000000000000000808B
:103630000000000000E06FC0700A0020901C002015
:1036400038200020B00E0020681F0020000000007D
:103650002B492C4AD1F8803106EE903A92ED967BB8
:10366000B8EEE66B00B5B4EE476B83B0F1EE10FA3E
:1036700001D5002B34DA9FED1E0B92ED947BB7EE53
:10368000005B37EE457BB4EEC76BF1EE10FAB4BFCA
:1036900001330023C1F88031FFF7EEF89FED167B70
:1036A000B4EEC70BF1EE10FA0BD5B5EEC00BF1EE90
:1036B00010FA18DBFCEEC07BCDED017A9DF804100A
:1036C00000E0FF210D20FEF7F3FC0F4A136C0133DD
:1036D000136413B9536C0133536403B05DF804FBF6
:1036E00092ED920BC9E70021ECE700BFAFF3008039
:1036F000000000000000000000000000000070401A
:1037000038200020700A0020681F00200000000000
:103710002DE9F047EC4FD0220021EC4C3846EC4E1E
:1037200004F291154FF00008DFF8D4934FF0FF0A30
:103730002DED048B06F0F0FBE64AE74B04F5C7706D
:10374000BA60E64AE6499A600B607960C3E90022F4
:10375000C3E90522C3E90722C3E90922C3E90B2211
:10376000C3E90D22C3E9035504F5C872DD4DC3E971
:103770001022C3E91222C7E9036504F28F12DA4D61
:1037800000267D6104F5C6759FEDC97BC3E914224F
:10379000C3E9162204F28D12DD63012587ED0C7B4F
:1037A000C7E93089C3E91800C3E91C22C3E91E2216
:1037B00004F5D572DFF84C93DFF84C83C3F8802012
:1037C00004F2A912C3F8842004F5D472C3F8882047
:1037D00004F2A712C3E91A00C3F88C2007F11803FA
:1037E0004FF4367248468B6007F108034B6007F1CF
:1037F0002003CB60002106F08FFB4FF4F87200210C
:10380000204606F089FB102084F8A251C4F8D45059
:10381000FEF75EFCC4F8DC00112084F8C06084F878
:10382000C86084F8D85084F8A151C4F8C450FEF799
:103830004FFCC4F8CC00142084F8B06084F8B86061
:1038400084F8C85084F8A051C4F8B450FEF740FC86
:10385000C4F8BC00152084F8A06084F8A86084F83F
:10386000B85084F89F51C4F8A450FEF731FCC4F856
:10387000AC000F2084F8906084F8986084F8A85019
:1038800084F89E51C4F89450FEF722FC2946C4F8EF
:103890009C000D20C4F868612670267284F8985048
:1038A00084F8A65165609FED849B9FED858BC4E9EC
:1038B0005F66FEF7F7FBB0EE491BB0EE480B022047
:1038C00084F8106184F81861257284F89551C4F861
:1038D0001451FEF769FCB0EE491BC4F81C01B0EEB0
:1038E000480B042084F8006184F8086184F81851BA
:1038F00084F89451C4F80451FEF756FC3146C4F8DC
:103900000C012720C4F86C6184F8806084F80851A9
:1039100084F89D51C4F88450FEF7C4FB314625203D
:1039200084F8706084F8885084F89C516567FEF7CD
:10393000B9FB04226D49282084F8785003F0EEFA90
:1039400031462320C4F8706184F8206084F89751D0
:103950006562FEF7A7FB31462120267484F82850C3
:1039600084F896516561FEF79DFB0422604924208E
:10397000257603F0D3FA31461920C4F8746184F82F
:10398000606084F89B516566FEF78CFB31461B2016
:1039900084F8506084F8685084F89A516565FEF7A1
:1039A00081FB042253491A2084F8585003F0B6FAD8
:1039B00031461D20C4F8786184F8406084F899513C
:1039C0006564FEF76FFB31461F2084F8306084F891
:1039D000485084F898516563FEF764FB0422464919
:1039E0001E2084F8385003F099FAB0EE491BB0EE6F
:1039F000480B052084F8F06084F8F86084F893514F
:103A0000C4F8F450FEF7D0FBB0EE491BC4F8FC003C
:103A1000B0EE480B062084F8E06084F8E86084F893
:103A2000F85084F89251C4F8E450FEF7BDFB08F555
:103A30008262324BC4F8EC004FF00330314687F815
:103A40005260186004F5A07087F86E6087F88A608D
:103A500087F8A66008F58A6684F8E85087F851A0D0
:103A600087F86DA087F889A087F8A5A098EDE46B8A
:103A700012ED027B40F2033284ED486B98EDEE6B61
:103A80009A80282284ED4A6B98EDF86B84ED4C6B9C
:103A900084ED4E7B06F040FA08F590624FF0FF335C
:103AA00008F58C6E08F58E6C30E000BFAFF3008037
:103AB0007B14AE47E17A543F0000000000E06F4005
:103AC000000000000040AF40681F002038200020A8
:103AD00067956D7C27434648382B00204809002015
:103AE000D82A00207EF9B822FC11C2E45905000052
:103AF000F90700003906000019070000BC2A002061
:103B00000000F0BF901C0020700A002084F8A4512F
:103B100087F85030C4F8E83184F8ED5198ED827B95
:103B2000D2E900017A6D89ED9A7B98ED847BBA64C5
:103B3000FA6D89ED9C7B98EDA27BFA64D7F8A820FA
:103B400089ED907B98EDA47BC9E9AC01C7F89C2076
:103B500000200021D7F8B02089ED927B98EDA67B5C
:103B6000C4E96133C4E9780189ED947B98EDA87BC1
:103B700089ED967B98EDAA7B89ED987B98ED9A7BF1
:103B800089EDB47BC7F8A020C4F8B831C4F8D831A7
:103B9000C4F8C83187F8A4A084F8BD5187F86CA098
:103BA00087F888A084F8DD5184F8CD51DEE9002340
:103BB000C4E96C01C9E9A823DCE90023C4E9740164
:103BC000C9E9AA23D7F88C30C7F88030D7F89430E9
:103BD000C7F88430D8E99E23C4E97001C9E9B0234D
:103BE000D6E90023C9E9A6233A6FBB6FC7E91923B9
:103BF000D8E99C23C9E9B223D8E9A023C9E9AE23B7
:103C0000BDEC048BBDE8F08710B5994C94F8D0302A
:103C10003BB90122D4F8D430934284F8D02000F08C
:103C2000EF8094F8C0303BB90122D4F8C4309342FD
:103C300084F8C02000F0F18094F8B0303BB9012244
:103C4000D4F8B430934284F8B02000F0F38094F8B4
:103C5000A0303BB90122D4F8A430934284F8A020CC
:103C600000F0F58094F890303BB90122D4F89430FC
:103C7000934284F8902000F0B68023780BB901239A
:103C8000237094F81031002B57D094F80031002B9A
:103C900000F08B8094F8803013B9012384F88030D1
:103CA00094F8703013B9012384F8703094F8203000
:103CB00013B9012384F82030237C0BB9012323742A
:103CC00094F8603013B9012384F8603094F85030D0
:103CD00013B9012384F8503094F8403013B901230C
:103CE00084F8403094F8303013B9012384F8303030
:103CF00094F8F030002B3CD094F8E03003B110BDC4
:103D00000122D4F8E430934284F8E020F7D194F80B
:103D1000E830002BF3D00620FEF79EFAC4F8EC0042
:103D20009FED510BFEF770FA0620FEF795FAC4F8E6
:103D3000EC00BDE81040FEF77BBA0122D4F8143144
:103D4000934284F81021A0D194F81831002B9CD014
:103D50000220FEF781FAC4F81C019FED430BFEF729
:103D600053FA0220FEF778FAC4F81C01FEF760FA55
:103D70008BE70122D4F8F430934284F8F020BBD1D1
:103D800094F8F830002BB7D00520FEF765FAC4F898
:103D9000FC009FED350BFEF737FA0520FEF75CFAC5
:103DA000C4F8FC00FEF744FAA6E70122D4F8043177
:103DB000934284F800217FF46DAF94F80831002B12
:103DC0003FF468AF0420FEF747FAC4F80C019FEDFA
:103DD000260BFEF719FA0420FEF73EFAC4F80C0190
:103DE000FEF726FA56E794F89830002B3FF445AFDB
:103DF0000F20FEF7C3F9C4F89C00FEF7ABF93CE7CF
:103E000094F8D830002B3FF40CAF1020FEF7B6F931
:103E1000C4F8DC00FEF79EF903E794F8C830002BE5
:103E20003FF40AAF1120FEF7A9F9C4F8CC00FEF761
:103E300091F901E794F8B830002B3FF408AF142053
:103E4000FEF79CF9C4F8BC00FEF784F9FFE694F88D
:103E5000A830002B3FF406AF1520FEF78FF9C4F809
:103E6000AC00FEF777F9FDE60000000000000080DE
:103E700038200020B5EEC00B91F800C010B5F1EE6F
:103E800010FA0CF0030424DD4FF0010E72460130ED
:103E9000174BC0B203EB8403022813F80E3015D879
:103EA000144C205C034211D01CF0080F4FEA9C0018
:103EB0000AD1C40613D442EA830213F0380F0A7001
:103EC00010D04FF0FF3010BD5C07F2D500200A7013
:103ED00010BD4CBF0122002252009646D7E798063B
:103EE000F4D4E8E713F0070018BF012010BD00BFAD
:103EF000540700209002002008B52DED048B9FEDA3
:103F0000269BB0EE408B20EE099B9FED251BB0EE6B
:103F1000490B05F08DFEBCEEC00B9FED236BB4EE9C
:103F2000C69BF1EE10FA33DD89EE067BFCEEC77B13
:103F300017EE902A204BBFEE007B204983ED000A4C
:103F40005A6091ED006BB4EE476BF1EE10FA19D0A8
:103F5000B8EE007B91ED006BB4EE476BF1EE10FA1A
:103F600010D0174B9FED127B91ED006B28EE077B75
:103F700036EE486BB4EEC76BF1EE10FA4CBF01227F
:103F800000221A700F4B83ED008BBDEC048B08BD33
:103F90000022CFE7AFF300800000000000408F4018
:103FA000000000000000F0410000E0FFFFFFEF41D3
:103FB000000000000000B03C042C0020000F002096
:103FC000763400202822002008B52DED028BB0EEBB
:103FD000408B80B1B6EE000B9FED097B9FED0A1B75
:103FE000A8EE070B05F024FEFCEEC07BBDEC028BB7
:103FF00017EE900A08BDFFF77FFFEBE7AFF30080F5
:104000000000000080842E41000000000000F0410C
:1040100000B5002383B000200021CDE900330E4B12
:10402000C3E900010D4B00200021C3E9000101A9F3
:10403000684602F057FDDDE9000101F0E1FE38B904
:1040400001A9684602F054FDDDE9000100F002FC20
:1040500003B05DF804FB00BF38220020402200209E
:10406000F8B50646002003F0A9FC01F091FF851C7D
:10407000044618BF012560B15DB10025012736B1A6
:1040800085F00105002003F099FC2F43EDD0204678
:10409000F8BD00F0FFFB831C044618BF012308B1E4
:1040A000002BEBD11D4301F03BFF831C044618BFDE
:1040B000012308B1002BE1D11D430027DFE700BF3A
:1040C000F8B51F4F3B78002B36D100F0DFFC80B1F4
:1040D000002442F210761B4D0A20344403F06EFC9B
:1040E0000120FFF7BDFF00F0D1FCAC4201D2002857
:1040F000F2D100F0D1FC002401F0F4FF00231249BA
:104100004FF04045114A0B7013701149114A0B6072
:1041100013601149114A0B601360114A1149136071
:10412000114AC1E90045C2E9003300240F4A0025C5
:104130003B70C2E90045F8BD002000F0C1FCC4E7B7
:104140007634002000879303793400207B340020EC
:10415000283400202C340020303400203434002057
:1041600038340020000F0020042C002028220020DA
:104170009FED0B7B0C4B00200C4A0D4910B483EDD6
:10418000007B12780B4B08701A700B490B4B0C4CD0
:104190000C4A08701870207010605DF8044B70476E
:1041A00000000000000000004822002074340020BD
:1041B0007D3400207C3400208034002075340020C1
:1041C00082340020483400208D4BF0B5002832D1D5
:1041D0008C4A1C7811781D788C42157007D08A495A
:1041E0008A4D8B4C8B4A08702870206010701A78AA
:1041F000012A00F096801A78012A77D0854A117832
:1042000001F0FF0000292CD0834E0020834C307039
:10421000217801F0FF0C002900F09B807A49107092
:10422000087020701378042B00F2D781DFE803F0C8
:1042300055313C44AA001A78012A08D0784B1B78E3
:1042400013B9714B1878F0BD764B1878F0BD764AEB
:10425000128892B29042F1D1744A116800294FD16C
:10426000ECE76E4C6C4E694D20703178287001B3CC
:104270000221117030701978D9B91078C0B20428B1
:1042800000F2A881DFE810F02800B700A1001700B5
:10429000B90000205E4C2368002B00F02181013B17
:1042A0002360002B00F01C8108785D4B00221A70FF
:1042B000F0BD5549B6E75449554C2368002B7AD1D7
:1042C0005B4D2B68002B00F012812D680120042328
:1042D000087025601370E8E74B493378002BE3D072
:1042E00002240023087814703370DEE74E4A1288E7
:1042F00092B2002A82D14D4A116800293FF47EAF64
:104300004C4C2478002C5CD0424A1278022A00F0EF
:10431000998000283FF472AF414B1B78002B90D05E
:1043200092E73C4A117821B93B4E317809B1384CBB
:1043300009E0117801297FF45EAF354C216801292D
:104340007FF459AF344E0021317021600221117089
:1043500051E71978002990D02C4D1178287885F8EC
:1043600000C0042900F22E810FF2040C5CF821F049
:104370005923000077240000552500003723000052
:104380007D2400000020224C23681BB1013B2360E8
:10439000002B89D1284B1B78012B00F0B180274BD3
:1043A0001D68002D00F0B1801D68002001230870F9
:1043B0002560137079E7013B2360002B7FF474AF15
:1043C0007EE71268002AA4D09EE71D4908680028ED
:1043D00003DD1B78012B00F0A08015490B68002B32
:1043E00000F0898009680120094B074C19600423FB
:1043F0002070137059E704494CE701200249C2E7D5
:10440000743400207C34002082340020803400206A
:1044100048340020753400207514002070340020CA
:10442000773400207834002056340020002C0020FF
:10443000401400207334002072340020FC2B002034
:10444000F82B0020664D2C78002C7FF462AF654F6E
:104450003A7891ED007B002A76D0634A11780029E2
:1044600067D111780129CCB203D01478A21E54422E
:1044700054415E4A92ED006BB4EEC67BF1EE10FA49
:1044800080F292805A4E92ED006BB4EEC67BF1EE54
:1044900010FA12DD92ED006B96ED005BB4EE465B18
:1044A000F1EE10FA09D15349096821B952494FF088
:1044B000010E81F800E001212970002C4AD12A78F0
:1044C000B2FA82F2520986ED007B3A7000287FF43E
:1044D00023AF93E600287FF478AF474B1878E4E6E3
:1044E00000287FF4EDAE022308781370DDE618464D
:1044F0000B701370D9E64049184613700B70D4E660
:10450000002318460B701370CFE670B13B4B0425A7
:1045100008781B6815702360C7E60C6803233848C9
:104520003549046013700878BFE6022308701370E1
:10453000BBE611781678C9B2012E07D01278022A8C
:1045400004D0022995D02246294EB9E7022937D056
:10455000264A274E92ED006BB4EEC67BF1EE10FAC0
:1045600011D592ED006B96ED005BB4EEC65BF1EEFB
:1045700010FA08DB1F4A126812B91F4901220A709B
:1045800001222A709CE792ED006BB4EE467BF1EEBF
:1045900010FA94D192ED006B96ED005BB4EEC65B21
:1045A000F1EE10FA8BDDE5E7114E92ED006B96ED22
:1045B000005BB4EEC65BF1EE10FA3FF574AF62E754
:1045C000012456E70C490023237018460B702B700A
:1045D00013706AE60849024DF5E7014DF3E700BFA5
:1045E000803400207D3400207134002030220020EF
:1045F00048220020F82B00208234002040140020A4
:104600004834002010B4002200231A4C00201A491C
:104610004FF0010CC4E90023184C087020701849B1
:10462000184C087020801849184C087020701849E0
:10463000184C086020701849184C08702060184900
:10464000184C08701849C4E900234FF47A74174BCA
:10465000174A0C601860174B106017491870174BF9
:1046600081F800C0164A1870164B107018705DF86B
:10467000044B7047482200207D3400207534002010
:104680007C34002056340020823400208034002006
:10469000483400207834002077340020002C00209B
:1046A000733400203022002040140020FC2B002016
:1046B000F82B002071340020751400207034002085
:1046C0007434002072340020104B1B7893B9104BC7
:1046D0001A7882B90F4A12784AB11B7803F0FF02A8
:1046E0002BB90D4801210D4B0270197070470B4B0F
:1046F00000221A707047074A11780029EBD1012374
:104700000549064A0B701370704700BF74340020CF
:104710007514002070340020783400207734002095
:1047200002234FF0FF301360704700BF10B51446EE
:1047300008B101F09FFD0020206010BD10B9FF23DB
:104740000B707047FE2310300B700F2836D8DFE84F
:1047500000F0322F2C292623201D1A1714110E0BBE
:10476000083522234B70704730234B707047292344
:104770004B70704700234B70704723234B7070477A
:1047800021234B70704711234B7070472A234B70C5
:10479000704727234B70704710234B7070472423BA
:1047A0004B70704728234B70704726234B7070471F
:1047B00031234B70704733234B70704720234B706D
:1047C000704700BF014B1878704700BF813400204C
:1047D000014B1870704700BF81340020014B1878DE
:1047E000704700BF7F340020024B1A7810431870C6
:1047F000704700BF7F340020024A137823EA00008C
:10480000107070477F340020014B1878704700BF4C
:104810007E340020014B1888704700BF58340020B8
:1048200079B18AB1002300B501E09A420ED091F827
:1048300000E08C4601330C318645F6D160465DF8C8
:1048400004FB8C46604670479446FBE74FF0000C33
:10485000F4E700BF70B50D4E34789CB90C4D00F0F4
:1048600045FA00F04BFA286000F0A8FE00F0BCFE0C
:10487000A86001F057FA01F05DFA01236860337017
:10488000204670BD6FF00B04FAE700BF60340020D3
:104890008C2A0020734B00202DE9F04188B01B7852
:1048A000CDE90300CDE905000790002B00F0C080A2
:1048B00006AC05AB04AA03A9009401F08FFB431DCD
:1048C0000446DBB2012B01D9002865D103980028EA
:1048D00069D0049ADDE9051301EB030C944507D96F
:1048E0006FF0070401F0C6FC204608B0BDE8F08177
:1048F000425C012B5C4B00EB0106A2F1C0051B786A
:10490000B5FA85F54FEA55150ED96DB1002B5DD07E
:1049100002F12D037578DBB20F2B03D9013D012D78
:1049200000F28F80022304E0002B42D0F02A5AD9F3
:1049300000234E4D55F82330002B4DD0104698479C
:10494000002847D0D0E90138002B3CD007AA0599B0
:10495000039898470746B8F1000FC5D0079D002D72
:10496000C2D0069A954245D80021304605F0D4FAC7
:10497000059B03993846079A1944C047079C039A38
:104980004FF6FF71DDE90430CDE90004012001F0AC
:1049900087FA04460028A7D003980028A2D1204611
:1049A00008B0BDE8F0816FF00704204608B0BDE80C
:1049B000F081FF2A0AD12D4B1B68002B48D01046EE
:1049C00098470028BED16FF00B04E5E707AAFFF770
:1049D000ADFE89E70398059907AADFF89480FFF7F1
:1049E0009FFE0746BAE702F11C03DBB20C2B22D86C
:1049F00001239EE701F070FB0446039801F03AFCA6
:104A00000021284601F038FB049001F02FFB0499A7
:104A1000059001B3204601F075FD069A0390002829
:104A2000A2D1014630466FF0090405F075FA5BE744
:104A30006FF0080458E702F12D03DBB20F2B7FF66D
:104A400071AF02F13803DBB20A2BC5D8032370E73C
:104A50006FF00B0446E7069A30466FF0070405F046
:104A60005BFA41E760340020813400208C2A00206A
:104A7000BD270000044B1B7813B1002200F0BABD23
:104A80006FF00800704700BF60340020014B1878B9
:104A9000704700BF8134002008B501F051F901F0E2
:104AA000DFF800F031F90020034B044AC3E90000AD
:104AB000C3E90200107008BD8C2A00206034002079
:104AC00000F080BF0122002100F094BD06230020E9
:104AD00013607047084410B4C37841683BB931B9DA
:104AE00002246FF00B0014605DF8044B704704481B
:104AF000012403710160002014605DF8044B7047CD
:104B00003C34002007220149FFF78ABE70080020CC
:104B1000F8B544180B4B154666781F6801F0C4FAC7
:104B2000B04207D957B16378002007495A1C0B706F
:104B30002A60F8BD02226FF00100F9E702226FF04F
:104B40000B00F5E73C3400208334002070B5441896
:104B50001546667801F0A8FAB04212D9E378626887
:104B60002BB922B902236FF00B002B6070BD617866
:104B70000648026003714B1C054A00202B6011702F
:104B800070BD02236FF00100EFE700BF3C3400204E
:104B90008334002010B5144600F0CCFF20B9022366
:104BA0006FF00400236010BD01F08CFA00F0CEFF1E
:104BB00002236FF00400236010BD00BF0023FF221A
:104BC00010B50C46C1F801304B710A70FFF706FEB4
:104BD0006070FFF719FEA070FFF71CFEA08010BDEB
:104BE00010B5144600F0B4FF30B10020FFF7F0FD1F
:104BF00001230020236010BD02236FF00A00F9E7B3
:104C000038B54518144600F0A3FF68B16B78012B46
:104C100006D80120FFF7DCFD08230020236038BD03
:104C200002236FF00100F9E702236FF00A00F5E7B5
:104C300088B9052210B50C46FF2120606060217004
:104C4000627001F031FAE07001F02CFA0123A080CB
:104C5000A371E37110BDFFF771BD00BF80B9944629
:104C6000FF222DE9F0410D4E0A70356835B1DFF8AD
:104C7000308098F800707A1C944503D0BDE8F0812C
:104C8000FFF75CBD0446481C29463D443A4601F006
:104C9000E9FF88F800403560F0E700BF3C340020B1
:104CA0008334002080B99446FF222DE9F0410D4E57
:104CB0000A70356835B1DFF8308098F800707A1CDA
:104CC000944503D0BDE8F081FFF738BD0446481C89
:104CD00029463D443A4601F0C5FF88F8004035605A
:104CE000F0E700BF3C34002083340020014B024A2F
:104CF0001A607047C42A0020852B0000014B1868F9
:104D0000704700BFC42A0020014B00221A60704780
:104D1000C42A0020014B1868704700BF3C340020B3
:104D2000034611B908B900207047024A01201360F8
:104D3000117170473C340020024A13681844106017
:104D4000704700BF3C340020F0B4244C0144236879
:104D50003BB3234DA4882888844222D900EB40002D
:104D600053F8304003EBC003DCB1A8781E798642CB
:104D700017D9C0EBC00054F8206004EB800486B162
:104D80002479E87884420CD95B79023B012B21D944
:104D90004B78FF2B0BD002236FF00100F0BC1360A7
:104DA000704702236FF005001360F0BC704791F864
:104DB00002C006EBC0044F6806F83030013084F8BA
:104DC00001C0CB78E8700020A370012367601360F6
:104DD000F0BC704702236FF00700E5E7182C0020B5
:104DE0004C14002010B51B4C236833B30144A48835
:104DF0004888844221D900EB400003EBC003587976
:104E00000238012822D9B1F804E01FFA8EF07F2879
:104E100013D8C87988B991F801C03CF0100011D1BD
:104E2000012483F808C0A3F806E089799872A142AA
:104E300038BF21465972146010BD02246FF0010082
:104E4000146010BD02246FF00900F4E702246FF033
:104E50000700F0E7182C002008230020136070479B
:104E6000FF2201234FF0340C00200A704B708A702F
:104E7000CB700A7181F805C08B71C871704700BF93
:104E800002236FF00F001360704700BF084430B575
:104E90004378012B36D1B0F806C0418804791FFA57
:104EA0008CFE45791F480368C3B3808888422DD99A
:104EB000012922D8B4FA84F014F0FD0F4FEA501003
:104EC0001BD1012D19D1BEF1010F12D188B101EB17
:104ED000410103EBC1035979023901291AD9012192
:104EE00000201C730C46A3F80EC05973188214607E
:104EF00030BD14B1BEF1010FE9D802246FF00900F2
:104F0000146030BD02244FF0FF30F0E702246FF050
:104F10000100ECE702246FF00700E8E702246FF0DD
:104F20000300E4E7182C0020FF2300224FF0110CAF
:104F30006FF07F00CA800B7081F801C08B70CB705E
:104F400008714A71704700BF0D220149FFF768BC24
:104F5000480300202DE9F047254E0844154682B04D
:104F60003268438804794779002A38D0B188994259
:104F700031D903EB43034FEAC30802EBC30352F8F2
:104F800008A0BAF1000F2AD01B79A34223D9C4EBA1
:104F9000C404A4005AF80490B9F1000F1FD1D7B18E
:104FA000FA001046019201F039F933684AF804001A
:104FB00053F808301859B0B1019A494604F0ACFFD3
:104FC00033684846012253F8083023441F712A6091
:104FD00002B0BDE8F08702226FF00100F7E702227D
:104FE0006FF00300F3E702226FF00200EFE700BF6B
:104FF000182C00202DE9F0431F4E084483B01746BB
:10500000D6F80090448890F80480B9F1000F27D0BA
:10501000B388A34228D908F1FF33DBB2FB2B23D896
:1050200004EB4404E40059F80450CDB9C8EBC802BD
:1050300092001046019201F0F1F8336849F804003B
:105040001859A8B1019A294604F066FF336828462A
:105050000122234483F804803A6003B0BDE8F08362
:1050600002226FF00300F7E702226FF00100F3E77E
:1050700002226FF00200EFE7182C00202DE9F04724
:10508000DFF888A001441746DAF80050B1F8029022
:1050900085BB1FFA89F84FF6FE7308F1FF329A427A
:1050A0002CD808EB4801CE00304601F0B7F8044692
:1050B00040B33246294604F02FFFAAF80490CAF8FC
:1050C0000040B8F1000F10D020464FF0FF32A11978
:1050D00001234261183000F80C5C00F80B3C20F80A
:1050E0000A3C20F8085C8842F3D1012300203B6091
:1050F000BDE8F08702236FF00300F8E702236FF0AA
:105100000100F4E702236FF00200F0E7182C002002
:105110000B4660B9074AFF2007491268187002EB76
:105120004202096801EBC202D27A5A707047FFF757
:1051300005BB00BF24140020182C002008230020E9
:105140001360704770B50179044651B300252E46AF
:105150002B462268C3EBC3000121013502EB80001E
:10516000E28994F808C0806800FB02F250181BB96D
:105170001CF0100F18BF501D00F07EFF21798642F1
:10518000EBB238BF06469942E3D801EB410104F186
:105190001402304601F09AF810B14FF0FF3363610A
:1051A00070BD0E46F3E700BF2DE9F04FDFF8F48144
:1051B000461883B0D8F800000192B6F8029018B1F2
:1051C000B8F804304B4507D86FF001000223019A6C
:1051D000136003B0BDE8F08F6F4BC3F80090737895
:1051E000022B2CD809EB490100EBC10AC9009AF83F
:1051F000054094B99AF8084014F0020F44585BD067
:10520000002C6FD098F807509AF804402C44802C5A
:1052100068DC8AF80B5088F80740013B012B11D954
:1052200072B65E4B1C68002C42D17378012B5ED0A5
:10523000022B75D0002B78D062B60020C6E76FF045
:105240000900C3E79AF80430002BE9D040584FF02A
:10525000000BCBEBCB0300EB83019D000979002908
:1052600043D050F823300822002412FB013193F878
:1052700001C0083399426444F9D1BBF1000F03D156
:105280009AF80830DB0624D4BAF80E3004FB03F396
:105290005F1C00F007FF874224D8DAF800000BF10A
:1052A000010B0544AC609AF804305B45D1DCB7E7EC
:1052B00062B66FF00A0089E7A4B198F806509AF830
:1052C00004402C44FC2C0DDC8AF80B5088F8064076
:1052D000A3E7BAF80E3004FB03F35F1D00F0E2FE13
:1052E0008742DAD96FF0080070E70C46C5E7DAF8B4
:1052F000143001330AD12A4BBAF8061018888842B4
:1053000037D0B9F1010F01DC06293ED90323022071
:105310008AF80530FFF75CFA4020FFF765FA8BE763
:105320008AF8053062B6204650E701238AF8053036
:10533000B8F80430B3B1013BD8F8002099B201EBC2
:10534000410102EBC10102E0012B7FF675AF5379F9
:105350008A4202F11802A3F10203DBB2F4D1012B5D
:105360007FF66AAF0120FFF733FA4020FFF744FAD7
:1053700062E70AF11402D3E9010101F091F8002873
:10538000C4D062B66FF0020020E75046FFF7DAFEA5
:10539000AAF81040F3E700BF241400204434002092
:1053A00050140020182C002070B41C4C23685BB3F0
:1053B0000844B4F804C04488A1B28C4524D901EB58
:1053C000410153F8315003EBC103EDB190F804C033
:1053D0001979614518D9CCEBCC0155F8216005EB62
:1053E00081058EB14079297981420DD95B79023BE3
:1053F000012B0FD90A4B0121D87000201C8083F8A3
:1054000002C0116070BC704702216FF00100116092
:1054100070BC704702216FF00700F8E7182C0020DD
:105420004C14002008442DE9F04743781446022B21
:105430000FD85F4D2B6893B1AB8883B172B65D4BCB
:105440001E6896B162B602236FF00A002360BDE8C1
:10545000F08702236FF009002360BDE8F087022384
:105460006FF001002360BDE8F0874378012B3FD047
:10547000022B06D063B362B6012300202360BDE88F
:10548000F087AE88E6B1296806EB460001250B4699
:1054900001EBC0005A791833022A08BF03F8135CE5
:1054A0008342F7D1002201E0012BE4D901324B798C
:1054B000183192B2023BB242DBB2F5D3012BDAD9FA
:1054C0000120FFF785F94020FFF796F962B6D3E790
:1054D000A9880029F4D02B6801EB4101012003EBDE
:1054E000C1015A7902B1587118339942F9D1E7E7ED
:1054F000A9880029BFD03746DFF8BC80B14607EB4A
:10550000470A2868B8F800C07B1C00EBCA004FEAC5
:10551000CA0A06E08B420CDA1830013301370AF16F
:10552000180A4279022AF5D14269013219D099420A
:10553000F2DC00299FD000274FF0030802E0AB887F
:10554000BB4230DD2B6801373344183658790228C6
:10555000F5D183F80580FFF73BF94020FFF744F9C8
:10556000EDE7C288624517D0012FE0DC062ADED8BD
:10557000FFF7E8FD2B685344A3F810900137A98882
:10558000B94212DD0028BAD062B600283FF474AFE9
:1055900002236FF002005FE700F11402D8E9010175
:1055A00000F07EFFEAE70020EEE70028C1D0EBE73D
:1055B000182C002044340020501400200023064AF8
:1055C0000649074810B4074C136053602360086015
:1055D0005DF8044B704700BF182C0020C82A00203B
:1055E000C92F000044340020014B1868704700BFE9
:1055F000C82A00202DE9F04F2DED028B8FB00490CA
:10560000CDE9052172B6DFF8C0A2DAF80030013327
:10561000CAF8003062B6AA4FD7F80090B9F1000F6F
:1056200039D0BB88002B36D04FF0000802E0BB8891
:10563000434530D908F101081FFA88F808F1FF3412
:10564000A4B204EB440309EBC302DE00107A10F0AD
:105650000205ECD151790329E9D1D288049B9A4201
:10566000E5D12146284600F017FC059B09900BB3B5
:105670003A68002A00F09881B988A14240F2D180AE
:105680001644337B022B00F05D81099B002B40F018
:105690007D814145CED80023039372B6DAF80030FD
:1056A000013BCAF8003062B603980FB0BDEC028B24
:1056B000BDE8F08F3B68002B00F0AB80BA88A242B7
:1056C00040F2A78033440B931B7B022B00F0258113
:1056D000059B0793012308930B9A1379002B00F085
:1056E000D880099B0126CDF834809046B3FA83F325
:1056F000CDF830900A945B095B4208EE103A002323
:10570000039306F1FF3BD8F8004000F0AFFC079B85
:105710005FFA8BF58146AB46C5EBC50504EB850406
:10572000AD00002B40F0C580D8F800302B449A68BB
:10573000B8F80E3002FB03F398F80820581CBBF1B0
:10574000000F02D1D10648BF581D0121206100F091
:1057500093FCD8F8143001465A1C00F0CE8018464D
:1057600000F0D0FEE060002800F0B080D8F80030F3
:10577000484400222B4460619A61586998F80B10E4
:105780000246594402F8011BBBF1000F0BD198F8F7
:105790000810C90607D50699C0F801109969C3F821
:1057A00018B004310A445A61E368002B4BD0454BD2
:1057B000B8F806201B889A424ED022796369002AE5
:1057C00049D000252A4611E00A68104214BF012280
:1057D00000221A70A16901359BF801200A440021BA
:1057E0001344A161EAB22179914234D9216801EBD5
:1057F000C20B11F832200121FF2A01FA02F0DBF876
:105800000410E1D118469BF8012001F02BFA034661
:10581000E0E7099B002B40F0D0804FF0FF3303936B
:105820003BE7099B002BF8D04FF0FF330393214651
:10583000002000F033FBBB8843457FF62EAF002DE0
:105840007FF4F8AE29E798F80430B34240F2A28022
:105850000136F6B255E76361089B002BF3D00121B6
:10586000206900F009FC034618EE100AD4E9032170
:10587000CDE900910A9900F013FB039000283FD175
:1058800098F80430B342E3D8DDF830900A9CDDF894
:1058900034800023012503930B98038AC2890133C6
:1058A000B3FBF2F102FB11330382099B002BC2D040
:1058B000BDE7B8F81030002B3FF436AF74E700BFF7
:1058C000182C002050140020443400206FF00903ED
:1058D000DDF830900A9CDDF8348003930B98038A3E
:1058E000C2890133B3FBF2F102FB11330382099B3E
:1058F000002B3FF4D2AE002599E700F08FFC31E792
:10590000E06800F0B7FC98F80430B342A0D8DDF8A6
:1059100030900A9CDDF83480E0E70B99284BCA8868
:105920001B889A423FF4D4AE012C3FF6D1AE0B8ACD
:10593000CA8901339B1AB3FA83F35B0908930123E5
:105940000793C9E61E4BF2881B889A423FF49DAE2E
:10595000012C3FF69AAE338A002B3FF496AE337992
:105960006BB14FF0000B5D46336801355B440BF1C2
:105970001C0BD86800F07EFC33799D42F4DB4FF0BD
:1059800000033382099B002B3FF451AE0023012515
:1059900003934CE7039BDDF83090B3FA83F50A9C40
:1059A000DDF834806D0977E7134600283FF435AF02
:1059B0001D464FF0FF33039339E7059D34E700BFE1
:1059C000501400202DE9F04F574F89B03B68002B51
:1059D00000F09A8072B6554B1D68002D40F08D8006
:1059E000B7F804B0D7F800A0BBF1000F7FD00AF1E0
:1059F000050253462C46A94603920AF1100204926E
:105A000005E001340635A4B2A34571D03B6803EB31
:105A100085031A7B022AF4D1DA88454B1B889A4207
:105A2000EFD0012CEDD8039B13F82530032BE8D1E0
:105A3000049B33F82530002BE3D02146002000F0F2
:105A40002BFA0AF10403B0FA80F013F8252040097C
:105A500006934142002A61D04B46CDF81CB0A146C6
:105A60004FF000088B461C4608E0069B13F82520E3
:105A700008F101081FFA88F39A424AD9C8EBC80610
:105A80005AF82530012103EB8603B600D8680028B8
:105A9000EED0186900F0F0FA059000F0E7FA5AF835
:105AA00025200446002102EB060CDCF80C20024401
:105AB000DCE904C0821AACEB020204F02DFA5AF8B9
:105AC0002520059B494602EB060C5846DCE903E21B
:105AD000CDE90042724600F0E3F904460028C4D044
:105AE0005AF825303344D86800F0C4FBBDE7D946E6
:105AF00062B6484609B0BDE8F08F62B66FF005099E
:105B0000484609B0BDE8F08F9946484609B0BDE85F
:105B1000F08F2346DDF81CB04C4699460023049ACA
:105B200022F825306DE700BF182C002044340020F7
:105B30005014002072B6044B1B68002B0CBF0120D0
:105B4000002000D062B670474434002062B670472F
:105B50002DE9F84F364B1F68002F58D09E8872B63B
:105B6000344A1568002D0CBF4FF001094FF00009B1
:105B700044D14FF0FF3AC3E900552F4BC3F800A0C2
:105B800062B600F093FA86B3BB46DFF8B08004E05B
:105B900001350BF1180BAE4227D0BBF80630B8F830
:105BA00000209A422ED0012D01DC062B34D9DBF8DF
:105BB0000030002BECD09BF8041071B10024C4EB32
:105BC000C402013453F8220028B100F053FB9BF8C3
:105BD0000410DBF80030A142F1DC0135184600F07A
:105BE00049FB0BF1180BAE42D7D1384600F042FB0F
:105BF0004020FEF701FE4846BDE8F88F62B64846F1
:105C0000BDE8F88FDBF8140000F06EFCCFE74FF032
:105C100001094846BDE8F88FDBF81400431C02D1A7
:105C2000CBF814A0C3E700F0E7FBCBF814A0BEE765
:105C3000182C00204434002024140020501400208C
:105C400010B51446FFF784FF30B10120FEF7C0FD08
:105C500001230020236010BD02236FF00A00F9E742
:105C600008B5FFF775FF024B00221A6008BD00BFA0
:105C7000C82A002002220149FEF7D2BD30030020CD
:105C800070B5441882B01546667800F00DFA0838F1
:105C9000864215D8E1786068FFF742F8A0B16278D3
:105CA0000192FFF737F8019A04F1080100F0DAFFDA
:105CB0006078FFF741F8012300202B6002B070BD2F
:105CC00002236FF00100F8E702236FF00B00F4E706
:105CD000F0B5441883B01546FFF71CF86778064600
:105CE00000F0E2F99FB1831E9F4210D8AEB16278F6
:105CF0000192FFF70FF8019AA11C00F0B3FF607842
:105D0000FFF71AF8012300202B6003B0F0BD022337
:105D10006FF001002B6003B0F0BD02236FF00B00A9
:105D2000F2E700BF014B024A1A607047CC2A0020FC
:105D3000F53C0000014B1868704700BFCC2A0020DA
:105D4000704700BF0023C0E900307047436800225D
:105D50000A6019604160704703680B6013B11B68EB
:105D6000036003B170474060704700BF03680B6079
:105D70000BB1016070474160016070470023C0E9CA
:105D80000030704710B5002382B0019372B60E4CFC
:105D9000204601A9FFF7E0FF019820B100F06AFA60
:105DA000019B002BF4D1094C03E000F063FA019B46
:105DB00033B1204601A9FFF7CFFF01980028F4D1A5
:105DC00062B602B010BD00BFD42B0020DC2B002037
:105DD00010B5002382B0019372B6084C03E000F0C6
:105DE00049FA019B33B1204601A9FFF7B5FF01989D
:105DF0000028F4D162B602B010BD00BFEC2A00202A
:105E00002DE9F0411F4F3B7823B16FF00B04204682
:105E1000BDE8F08105461C480E46FFF793FF1B487E
:105E2000FFF790FF1A48FFF78DFF00F089F904464D
:105E30000028ECD100F026FE804600F023FE8045CD
:105E40001ED808F1080800F015FE804400F014FE8A
:105E50004044DFF840800221424600F037FA044611
:105E60000028D4D1D8F8000000F01CFE31462846A6
:105E700000F0AEFC04460028C9D101233B70C6E700
:105E80002046E6E761340020D42B0020DC2B0020E4
:105E9000EC2A0020441400200120704700207047A5
:105EA0002DE9F0411D4682B00023089E0193431C5A
:105EB000DDF82480022B29D814463AB3074600F0B7
:105EC000D9FD0830B04221D1B8F1000F1ED04644B0
:105ED000AE421BD8104B1B78DBB172B6A5F108019E
:105EE000434601AA04F1080000F054FD054620B124
:105EF00062B6284602B0BDE8F081019B2146074802
:105F0000636000EBC700FFF721FFF1E74FF0FF35BB
:105F1000EFE76FF00805ECE761340020D42B002098
:105F2000194B70B5002582B01B7801954BB372B642
:105F3000164E01A906F10800FFF70EFF62B60198A0
:105F400098B101254268082100F05EFC044610B9B2
:105F5000204602B070BD72B6019906EBC500FFF78E
:105F600005FF62B6204602B070BD72B601A9304688
:105F7000FFF7F2FE62B601980028E3D16FF001044A
:105F8000E6E76FF00804E3E761340020D42B00203B
:105F9000104A002310B582B01278CDE90033AAB1BF
:105FA0006A46082101A800F093FC044610B120467F
:105FB00002B010BDDDE900235A6072B606480199AF
:105FC000FFF7C4FE62B6204602B010BD6FF00804B1
:105FD000EDE700BF61340020EC2A0020F0B583B06B
:105FE0001C46089F002F18BF002B4FF000030CBF6A
:105FF0004FF0010C4FF0000C0193002A08BF4CF049
:10600000010C002908BF4CF0010CBCF1000F1FD19E
:10601000F0B9144B1B78F3B115460E4672B6124810
:1060200001A9FFF799FE62B60198B8B13A464168F6
:10603000083000F0C9FC019B074633605B680833F9
:106040002B6000F017FD08302060384603B0F0BD2B
:106050004FF0FF37F9E76FF00807F6E76FF0010739
:10606000F3E700BF61340020EC2A002008B500F0FF
:1060700001FD083008BD00BF10B5044629B900F085
:1060800001FDA04205D2002010BD00F0F7FCA042A7
:10609000F9D3083400F0EEFC044400F0EDFC204499
:1060A00010BD00BF00F0EABC00F0ECBC10B500F081
:1060B000EBFC044618B9FFF765FEFFF789FE2046A2
:1060C00010BD00BF10B500F0DFFC044608B9FFF7B3
:1060D00059FE204610BD00BF014B1868704700BF35
:1060E0004414002038B5114D2C780CB9204638BD29
:1060F00000F0DEFC04460028F8D1FFF743FEFFF76E
:1061000067FE0B4B186800F077F900F033FA04468D
:106110000028EBD10748FFF731FE0748FFF72EFEB6
:106120000648FFF72BFE2C70E0E700BF613400202B
:1061300044140020D42B0020DC2B0020EC2A00206B
:106140002D4B03222DE9F04F23F00308DFF8C8B0F0
:106150002A4B83B059462A4E1846019300F014FB8F
:10616000019B37464FF0000A1A464FF0FF0943469D
:10617000904658F8042B5BF8045B141DFA603B60F2
:1061800005FB04F2C7E901553A61BBB1184600218D
:1061900003F0C2FE034685B102460021C0F804A008
:1061A00080F8009004E0C2F804A000F80490426077
:1061B0000131104622448D42F5D13A691344114A07
:1061C00014379345D5D140F2D95200210E4803F03F
:1061D000A3FE0E4900230E4A0B60F363C6E9103399
:1061E000C6E9123314369642F7D10A4A0020C2E9B2
:1061F000003303B0BDE8F08F2B2C00205C1400208E
:10620000D02D002074140020482E002024340020BB
:106210000C2E0020202C00206814002020B330B465
:1062200072B612490023124C0A4654F8045B5FFA16
:1062300083FCA84201D8556835B901331432032BC9
:10624000F3D162B600200DE003EB83039B00C85836
:106250000028F6D04268013DCA5019444D6000F84C
:1062600004CB62B630BC7047704700BFD02D002011
:106270005C140020F0B110F8043C021F062B1AD069
:10628000052B17D810B472B603EB83030D4CFF2116
:106290004FEA830C00F8041C04EB830354F80C1041
:1062A0000160596844F80C200131596062B65DF80C
:1062B000044B70477047044B5B68002BFAD01046C4
:1062C000184700BFD02D0020202C0020002918BF27
:1062D000002800F087802DE9F04F914683B0002A16
:1062E00058D003308846414C20F0030124F00304C9
:1062F00001F1040A08FB0AF272B6DFF8F4C00323C6
:106300006046C66B1F46C56C01338EB1062B00F18B
:1063100014002C44F5D14FF0FF3762B67B1C14BF3C
:1063200000206FF00900C9F8007003B0BDE8F08FDD
:106330000DB39542EAD307EB87034CF823400CEBEF
:10634000830CCCE90281CCF80480002CE5D03146E6
:10635000204603F0E1FDFF222346314666602270AD
:1063600004E0616003F80A205C6053440136544441
:10637000B045F6D8D1E7DFF87CB040F2D653DBF871
:1063800000609B1B934208D262B64FF0FF376FF05C
:106390000900C8E74FF0FF30C7E707EB87034CF869
:1063A00023400CEB8303C3E90281C3F804801A6124
:1063B000A4B129462046019203F0AEFDFF212346F9
:1063C0002846019A6560217004E0606003F80A10B5
:1063D0005C60534401355444A845F6D81644CBF8C4
:1063E00000609AE74FF0FF30704700BF4B2E00204F
:1063F000D02D002024340020C31E022B48D870B4B6
:1064000072B6052821D0052323491A4604E0DCF89A
:10641000104064B9834219DD02EB8202013B51F85E
:106420002240DBB201EB820C1A46002CEFD000EBCD
:106430008000002301EB8002800093600B505360CA
:10644000D36062B6002070BC7047134900EB800037
:106450000022124D01EB80040F4B80002E68A260D9
:106460000A5003F13C006260E260D96B49B1143319
:106470009842FAD1002AE4D02E6062B6002070BCA7
:106480007047DC6C002CF2D0361B0122D964EEE799
:106490004FF0FF30704700BFD02D00202434002083
:1064A000002918BF002819D0C2B110B472B60D4C23
:1064B00023680BB9636843B162B64FF0FF316FF0E8
:1064C00009005DF8044B11607047C4E9000162B631
:1064D000062118465DF8044B116070474FF0FF30FD
:1064E000704700BF202C0020062806D172B6044B4E
:1064F0000020C3E9000062B670474FF0FF307047DC
:10650000202C002081B3062838B5044621D0C31EB4
:10651000022B1CD800EB8003144A4FEA830C02EBD9
:10652000830352F80C0090B1D86888420FD372B63A
:10653000596859B152F80C0040B14568013942F828
:106540000C50596000F8044B62B638BD62B60020AA
:1065500038BD074B1B68002BF9D0081D9847002851
:10656000F5D000F8044B38BD00207047D02D002036
:10657000202C0020002140F2A7120B4810B50C4639
:1065800003F0CAFC40F2D9520848214603F0C4FC8B
:10659000074B7822214607481C6003F0BDFC064BE0
:1065A0002046C3E9004410BD282C0020482E0020BE
:1065B00024340020D02D0020202C002038B5094C98
:1065C00025686B1C06D100F04DFE0028206004DB1E
:1065D000002038BD6FF00B0038BD6FF00B00256058
:1065E00038BD00BFE41100200128034603D8034A48
:1065F0000020137070474FF0FF3070475F34002069
:106600002DE9F04F002383B00193002943D0B0FA65
:1066100080F806464FEA581800283CD0214F3868C9
:10662000431C3BD00D46DFF88090DFF880A0444645
:106630002A1B311901AB00F025FE00BB019B53EA78
:1066400004021C440DD0A54294BF4FF0010B4FF043
:10665000000B0BD8BBF1000F0FD0002003B0BDE83A
:10666000F08F9AF800309BB114469346C84509D97B
:106670006FF00E0003B0BDE8F08F3868D8E76FF018
:106680000B00EBE7002008F10A0801F097F9E1E7B9
:106690006FF00500E2E74FF0FF30DFE76FF0080032
:1066A000DCE700BFE41100207F841E005F3400207F
:1066B0002DE9F04F002383B00193002943D0B0FAB5
:1066C00080F806464FEA581800283CD0214F386819
:1066D000431C3BD00D46DFF88090DFF880A0444695
:1066E0002A1B311901AB00F0D7FD00BB019B53EA17
:1066F00004021C440DD0A54294BF4FF0010B4FF093
:10670000000B0BD8BBF1000F0FD0002003B0BDE889
:10671000F08F9AF800309BB114469346C84509D9CA
:106720006FF00D0003B0BDE8F08F3868D8E76FF068
:106730000B00EBE7002008F10A0801F03FF9E1E760
:106740006FF00100E2E74FF0FF30DFE76FF0080085
:10675000DCE700BFE41100203F420F005F3400205F
:1067600010B5084C2068431C06D000F0C5FD28B9C0
:106770004FF0FF33236010BD002010BD6FF00B0001
:1067800010BD00BFE411002002B3F0B5A0F1040E6B
:106790000EEB820E012A18D08C46034601261D46B8
:1067A00053F8044B6D68A54209D2DCF8005000266E
:1067B000DCF80470CCE900751D6843E901549E457E
:1067C0000CF1040CEBD1002EE4D0F0BD704700BFFB
:1067D00010B5094C23785BB9FFF7F0FE38B9074BC9
:1067E0000749084A1880012308801060237010BDF3
:1067F0006FF00B0010BD00BF623400204C3400204D
:1068000050340020882A0020052A2DE9F84354D965
:10681000B0FA80F304465B0900284ED02A4800787D
:1068200000284DD034F801806718B8F1000F41D02E
:1068300008F1060191423DD8244D4FF6FC7208F153
:10684000040C2988904507EB0C06798008D017FACC
:106850008CF03A4612F8011B0B4482429BB2F9D1EC
:106860000421384627F80C30FFF7CAFE814610B1E4
:106870004846BDE8F8830120FFF7B6FE4146381DC3
:10688000FFF7BEFE814628B902213046FFF7B8FE69
:10689000814628B10020FFF7A7FE4846BDE8F883EF
:1068A0002046FFF7E7FC2B88002001332B80FFF701
:1068B0009BFEF2E76FF00609DAE74FF0FF39D7E702
:1068C0006FF00809D4E700BF623400205034002084
:1068D0002DE9F04782B0002852D01746002A4FD049
:1068E0002A4B1B78002B45D00C46042106460DEBA5
:1068F0000100FFF7DDFE054660BBBDF804A0BAF15C
:10690000000F3AD0224B0AF10609186804EB09017E
:10691000FFF7F8FD8046B0B32946224603F0FCFAA3
:10692000019B012048F804304444FFF75DFE5146C6
:1069300004342046FFF7BCFE80B904EB0A000221B4
:10694000FFF7B6FE054648B9FFF74EFEC6F80080D1
:10695000C7F80090284602B0BDE8F08700206FF02D
:106960000605FFF741FE0023404633603B60FFF71A
:1069700081FCEFE76FF00805ECE76FF00605E9E74B
:106980004FF0FF35E6E76FF00905E3E762340020DA
:1069900048140020002B18BF002A0ED0B0FA80FC4B
:1069A0004FEA5C1C48B110B49C1D8C4208D803808F
:1069B000604614605DF8044B70474FF0FF3070473D
:1069C0004FF0FF30F6E700BF002A18BF042947D96F
:1069D00070B50446002837D0234B1B78002B3CD0E1
:1069E00005884388A81D1FFA83FC884232D11F49BD
:1069F000086800B31E490888844520D901308445C1
:106A0000D4BF00206FF004000B806319B3F804E0DA
:106A10004FF6FC739D4215D005F1040C002314FAC7
:106A20008CFC14F8011B0B4464459BB2F9D19E45C4
:106A30000DD1156070BD01260E600D49E4E76FF0C1
:106A40000300E1E70023F2E74FF0FF3070BD6FF085
:106A50000C0070BD6FF0060070BD6FF0080070BDD7
:106A60004FF0FF30704700BF62340020882A0020BA
:106A70004C34002004207047022070474FF6FC7011
:106A8000704700BFFF20704700200349034A044BB2
:106A90000880108018607047503400204C3400206B
:106AA000882A0020014B1860704700BF481400205E
:106AB00010B5084C207800B910BDFFF751FE002832
:106AC000FAD10549054A064B2070088010801860ED
:106AD00010BD00BF62340020503400204C34002030
:106AE000882A002018B111B1002303600B607047A1
:106AF00018B111B1002303600B60704700224FF4FE
:106B00001651104600F004B808B500F02BFBFEE764
:106B10002DE9F0430023DFF8448183B0C8F800304A
:106B2000082814D8DFE800F02248525C66707A0525
:106B30001600802300223E480191C8F8003002F080
:106B40001DFBD8F80030019913F4807F03D003B007
:106B5000BDE8F083002343F4807300223548C8F871
:106B6000003003B0BDE8F04302F008BB0123324D12
:106B7000324CC8F8003040F2EE28314F2E68DFF872
:106B8000E09004E0B3F5FA6FE1D802F0A5FF02F05F
:106B9000A3FF237843B13B78DB0705D52B68D9F8F1
:106BA00000209B1A0E2BD2D82B6822789B1B002A20
:106BB000E8D14345E9D9CAE7022300222148C8F8B1
:106BC000003003B0BDE8F04302F0D8BA042300223D
:106BD0001D48C8F8003003B0BDE8F04302F0CEBA5B
:106BE000082300221948C8F8003003B0BDE8F0437C
:106BF00002F0C4BA102300221548C8F8003003B0D0
:106C0000BDE8F04302F0BABA202300221148C8F8C8
:106C1000003003B0BDE8F04302F0B0BA40230022D8
:106C20000D48C8F8003003B0BDE8F04302F0A6BA42
:106C3000A024002000250020CC2B00206D34002053
