:0200000460009A
:100000004643464200000156000000000103030081
:1000100000000000000000000000000000000000E0
:1000200000000000000000000000000000000000D0
:1000300000000000000000000000000000000000C0
:1000400000000000010408000000000000000000A3
:100050000000800000000000000000000000000020
:100060000000000000000000000000000000000090
:100070000000000000000000000000000000000080
:10008000EB04180A063204260000000000000000FD
:10009000050404240000000000000000000000002F
:1000A0000000000000000000000000000000000050
:1000B0000604000000000000000000000000000036
:1000C0000000000000000000000000000000000030
:1000D00020041808000000000000000000000000DC
:1000E0000000000000000000000000000000000010
:1000F0000000000000000000000000000000000000
:10010000D8041808000000000000000000000000F3
:100110000204180804200000000000000000000095
:1001200000000000000000000000000000000000CF
:10013000600400000000000000000000000000005B
:1001400000000000000000000000000000000000AF
:10015000000000000000000000000000000000009F
:10016000000000000000000000000000000000008F
:10017000000000000000000000000000000000007F
:10018000000000000000000000000000000000006F
:10019000000000000000000000000000000000005F
:1001A000000000000000000000000000000000004F
:1001B000000000000000000000000000000000003F
:1001C000000100000010000001000000000000001D
:1001D000000001000000000000000000000000001E
:1001E000000000000000000000000000000000000F
:1001F00000000000000000000000000000000000FF
:10020000FFFFFFFFFFFFFFFFFFFFFFFFFFFFFFFFFE
:10021000FFFFFFFFFFFFFFFFFFFFFFFFFFFFFFFFEE
:10100000D100204325160060000000000000000011
:10101000201000600010006000B4006000000000BC
:101020000000006000C0000000000000FFFFFFFFA4
:10103000FFFFFFFFFFFFFFFFFFFFFFFFFFFFFFFFC0
:10104000FFFFFFFFFFFFFFFFFFFFFFFFFFFFFFFFB0
:10105000FFFFFFFFFFFFFFFFFFFFFFFFFFFFFFFFA0
:10106000FFFFFFFFFFFFFFFFFFFFFFFFFFFFFFFF90
:10140000884207D0904205D251F8043B40F8043B93
:101410008242F9D8704700BF884204D2002340F8C6
:10142000043B8142FBD870472DE9884800F012F94F
:101430000824614B614AC3F8544161496148FFF790
:10144000DFFF614A61496248FFF7DAFF614962489C
:10145000FFF7E2FF614C4FF0E0214FF470000023F2
:101460005F4AC1F8880D44F823200133B02BFAD12C
:101470005C4B80215C4A03F8011B9342FBD14FF087
:10148000E0254D4E4FF08039DFF88CB1DFF88CA1AC
:101490004FF0FF31C5F8084D0027C6F80491C6F893
:1014A00000B1C6F8F490C6F8F0A0D5F8243DDFF8F6
:1014B000708143F4E0234D4AC5F8243DD8F81C3030
:1014C00023F07F0343F04003C8F81C30D8F82430E1
:1014D00023F07F0343F04003C8F824309166D166BF
:1014E0001167516700F0BEF8414B4249A363424B7C
:1014F000E36363236B610323AF612B613F4BC5F84B
:10150000203DD5F8FC3D43F08073C5F8FC3D3C4BD5
:101510001A6842F001021A605B680B6000F0E0FAA2
:10152000C6F804913748C6F800B1C6F8F490C6F87A
:10153000F0A000F06DFCD8F86C10334B334A41F446
:101540004051C8F86C101F60C3F80871C3F81871D7
:10155000C3F82871C3F83871936BDB0708D442F6DF
:1015600015632B4951651365936B43F00103936336
:10157000264A284C936843F00113936000F0EEF87C
:1015800000F0DCFA00F050FC00F002FB00F064F820
:101590002368132BFCD900F093FB2368B3F5967FE7
:1015A000FBD300F05DF800F059F800F02DFC00F0DE
:1015B00033FC30BFFDE700BF00800D40C07C000061
:1015C000801F006000000000C0160020449C0060E6
:1015D00000000020C02E0020C016002000140020B3
:1015E000394A000000E400E0A0E400E000C00A4046
:1015F00035770000C8250020397700000000202042
:10160000001000E00046C3230040084000400D40A9
:101610000000C056CC2500201B1018200C0D111303
:1016200000C00F40074B4FF42A01074A07485A648D
:101630001864074A99639546BFF34F8FBFF36F8FC6
:10164000FFF7F2FE00C00A40ABAAAAAA07002000DA
:1016500000800720704700BF704700BF704700BF81
:1016600000BF704710B44FF0E023002110242B4836
:10167000C3F8941DC3F89C4D1124C3F8A00D28484D
:10168000C3F89C4D1224C3F8A00D2648C3F89C4D06
:10169000254AC3F8A00D254C42F015022448C3F892
:1016A0009C4DC3F8A00D234C2348C3F89C4DC3F8B0
:1016B000A00D224CC3F89C2D2148224AC3F8A04D0E
:1016C000C3F89C0DC3F8A02D02F5A0221E4C0C32CD
:1016D0001E48C3F89C4DC3F8A02D1D4AC3F89C0DAD
:1016E0001C4CC3F8A02D01221B48C3F89C4DC3F825
:1016F000A00DC3F8942DBFF34F8FBFF36F8FC3F8C6
:10170000501FBFF34F8FBFF36F8FD3F8142D5DF8C9
:10171000044B42F44032C3F8142D70473F000010D0
:101720002500080309001000C02E0020130020002F
:1017300021000207140000202500081309000010F2
:101740001600202027000B1317000040180000602F
:101750002F000B07190000702F000B13F0B5B84BCA
:101760001822B84E0120B84F83B0C3F85C62B74965
:10177000C3F86072B64DC3F86462A6F53046B54C46
:10178000C3F86862C3F86C52C3F87052C3F874525D
:10179000C3F8785248F20C75DA661A675A679A6786
:1017A000DA67C3F88020C3F88420C3F88820C1F822
:1017B0002C03A94AC1F83003C1F83403C1F8380337
:1017C000C1F83C03C1F85003A169A44B0A40A448E6
:1017D000A4491343A44AA361D4F8843043F00C0312
:1017E000C4F884304FF0FF34036843F00203036011
:1017F00003682B404FF400551A439C4B0260446031
:101800008A689B4C13409B4A43F000538360C36833
:1018100023F07803C360036A134023430362036A1F
:101820001340954A2343954C43628262C262002270
:10183000D1F8B83023F03F0343F00103C0F8B830CB
:10184000D1F8BC308E4923F03F0343F00103C0F8C8
:10185000BC3040F20563026105660467C0F8803061
:10186000456644670224C0F88430036823F002030D
:1018700003608161834B8449C46143F8042B8B422C
:10188000FBD1774A136843F001031360136813F028
:101890000103FBD17A48022140F2F564906140F2E5
:1018A0009940D16140F26641C2F8004242F20144DF
:1018B000C2F810127549C2F82002C2F8301240F284
:1018C00035417348C2F83442C2F84012714CC2F834
:1018D000500242F201207049C2F854120121C2F8AC
:1018E0006042C2F864025E48C2F8A030C2F8A43078
:1018F000C2F8B0104369DA07FCD5012300244FF485
:10190000803257494361C0F8A040C0F8A420C0F815
:10191000B0304B69DB07FCD5012300244FF40030C5
:101920004F4A4B61C1F8A040C1F8A400C1F8B030E3
:101930005369DF07FCD50123002458484849536107
:10194000C2F8A040C2F8A400C2F8B0304B69DE076C
:10195000FCD5D1F8003145F60D5221209BB24861EB
:10196000934265D100244FF4802201233C48C1F802
:10197000A040C1F8A420C1F8B0304369DD07FCD510
:1019800001234FF400040021354A4361C0F8A04010
:10199000C0F8A410C0F8B0305369DC07FCD50123AF
:1019A0004FF400044FF480302D495361C2F8A04039
:1019B000C2F8A400C2F8B0304B69D807FCD50123A7
:1019C0004FF400044FF40030254A4B61C1F8A040A9
:1019D000C1F8A400C1F8B0305369D907FCD5012380
:1019E0004FF400042D481E495361C2F8A040C2F8CC
:1019F000A400C2F8B0304B69DA07FCD5D1F8003149
:101A000045F60D5221209BB24861934250D00825E3
:101A10004FF4000422490020224B234A0090157005
:101A20005A1A01232148224400F0FAF903B0F0BD0C
:101A30001E4B0022C3E90022C3E9022203B0F0BD1D
:101A400000801F40F9B00100F910010000841F4020
:101A5000F970010000C00F40FFFCFF1F000300A051
:101A600000402A4000802A401200FFFFFF37F700A5
:101A70004000008000FFF07CFF000F836300020045
:101A8000F05AF05A00422A4000432A409F0418307E
:101A9000EB06180A3806180A06320126040003006D
:101AA00000000070000000705E2E002078240020EE
:101AB0004FF400044FF4802201230848C1F8A040ED
:101AC000C1F8A420C1F8B0304369DB07FCD501237D
:101AD00010254FF0807443619CE700BF00402A400E
:101AE000F0B4154A40274FF480314FF480564FF43C
:101AF00000554FF4404443F24200136913F0020FC3
:101B00000ED113F4005F0FD013F4805F0ED0002BC2
:101B1000F3DA13F4803F0BD15B060BD5F0BC7047B2
:101B2000946151619061E8E75561E6E75661E4E749
:101B30009161E2E75761E0E700800D40104BA02083
:101B4000104AD96E41F4403110B4D96640F237647E
:101B5000D96E41F44071D96654649064936C1B064D
:101B6000FCD4094A40F23761A02351649364936C1A
:101B700013F08003FBD1054A13705DF8044B7047E6
:101B800000C00F4000400C4000800C405D2E002043
:101B90003F4A03203F49F3EE095AD2F880304FF014
:101BA000000C9FED3D6A23F001039FED3C5A30B4D9
:101BB000C2F88030C2F89000D1F8E010384DCBB2B6
:101BC000384C39482B6007EE903A0B0DC1F30B21CE
:101BD000F8EEE77A06EE903A07EE101A334BB8EEBD
:101BE000C77A2160F8EEE66A314937EEC66A37EE09
:101BF000C55A76EEC76A77EEE57A26EE266AC3ED19
:101C0000006A25EE265AD2F8803067EEA64AC0ED6B
:101C1000007AC6EE275A274885EE276AC4EEA76ADF
:101C200075EE875AFCEEE55A36EE076A15EE904AD5
:101C3000BCEEC66A43EA045376EE877AC2F8803077
:101C400016EE103AD2F89041FCEEE77A01EA034131
:101C5000214317EE903AC2F89011C3F30B03D2F868
:101C600090110B431449C2F89031D2F8803043F000
:101C70000203C2F88030114B80F840C0C1F84031F7
:101C80004FF0E023012230BCC3F80821704700BFA9
:101C900000810D4000441F400000AA420000B442F1
:101CA00028250020242500202C2500203025002078
:101CB0000000FF0F00E400E000140020C15C000001
:101CC000314B40F6617210B5C3F8202140F2044454
:101CD00000F0B6F82D4A2E49D2F880302D4843F056
:101CE0000303C2F880302C4BC1F8604102681A42ED
:101CF00003D1D1F8A8319A071BD0254A4FF00041F3
:101D0000244B5963D2F8403143F00203C2F840310A
:101D1000D2F840319B07FBD44FF400304FF0E02164
:101D20001C4B4FF00042C1F88C0219209A6300F05E
:101D30007FF8184A4FF08040154C002190630A202C
:101D4000164B11604FF42072C4F8A801184600F039
:101D500073F84FF4800203464FF4810040F24311C0
:101D60001860C4F858311A640D4B0E4AC4F8481173
:101D7000C3F804224FF0E0224FF400310123C2F8EF
:101D80000C11C4F8403110BD00800D4000C00F4060
:101D900000002E4000900D40001C1E00000000209E
:101DA00000140020A95E000008B50E4B1B6E9B07B7
:101DB00000D4FBBE72B60C4B00200C4AC3F84001A5
:101DC00003F160430A49A3F55F2311649D46BFF305
:101DD0004F8F4FF400130748074ADB6902609B6886
:101DE000984700BF00441F4000002E4000C00A403A
:101DF0000300200000802020000012EBF8B500BF97
:101E0000F8BC08BC9E4670475FF800F0697C000093
:101E10005FF800F06D5300005FF800F0E95000003B
:101E20005FF800F03D5C00005FF800F0D95A000058
:101E30005FF800F05D5600005FF800F0B97B00002D
:101E40005FF800F01966000001010000E172000077
:101E500061730000E573000069740000ED74000018
:0C1E600071750000F57500007976000037
:101E6C001603550053004200200053006500720019
:101E7C00690061006C0000001803540065006500E7
:101E8C006E00730079006400750069006E006F00CD
:101E9C000403090409026200030100C032080B00AC
:101EAC0002020201000904000001020201000524E3
:101EBC00001001052401010104240206052406007A
:101ECC00010705820310001009040100020A00003A
:101EDC0000070503024000000705840240000009CA
:101EEC0004020002FF6AFF0007058102400001079F
:101EFC00050102400001000009026200030100C05C
:101F0C0032080B0002020201000904000001020267
:101F1C00010005240010010524010101042402061E
:101F2C0005240600010705820310000509040100C1
:101F3C00020A0000000705030200020007058402E4
:101F4C000002000904020002FF6AC70007058102B3
:101F5C000002010705010200020100000A0600024E
:101F6C00EF0201400100000000010101010101012B
:041F7C000100000060
:101F80000000000000000000000000000000000051
:101F90000000000000000000000000000000000041
:101FA000F8B54FF084439D695A6915400DD0244F10
:101FB00001269D6195FAA5F4B4FA84F457F824300B
:101FC00006FA04F49847A543F4D11E4B9D695A695B
:101FD00015400DD01C4F01269D6195FAA5F4B4FA69
:101FE00084F457F8243006FA04F49847A543F4D152
:101FF000164B9D695A6915400DD0154F01269D61FC
:1020000095FAA5F4B4FA84F457F8243006FA04F4E7
:102010009847A543F4D10F4B9D695A6915400DD0DF
:102020000D4F01269D6195FAA5F4B4FA84F457F892
:10203000243006FA04F49847A543F4D1F8BD00BF54
:102040002811002000400042A8110020008000421A
:102050002812002000C00042A81200200548064BAC
:102060001B1AD90F01EBA301491002D0034B03B196
:1020700018477047C0160020C0160020000000005E
:1020800008B5054B1BB105490548AFF30080BDE815
:102090000840FFF7E3BF00BF00000000A4240020B9
:1020A00000C0006011B1012918BF022105F0E6B897
:1020B00011B1012105F0A6B805F0A4B808B505F0E6
:1020C000CBF8A0F10100B0FA80F0400908BD00BFD4
:1020D0000D284FF0000138B50446C5B210D805F1FF
:1020E0000E0005F00705C0B205F0C8F80123601C1A
:1020F000E408AB40DBB20E4A115D0B43135538BD0B
:10210000284605F0070505F0B9F80123621C04EB29
:10211000030003FA05F3DBB207D1064991F8FF2F5C
:1021200022EA030381F8FF3F38BDC4F3CF04E2E79E
:102130005C2400205C14012010F0FF0010B50C4658
:1021400001D1208010BD0138C0B205F015F880B271
:10215000208010BD10F0FF0000D17047013801232E
:10216000054900F00702C0F3C40093400A5CDBB2EB
:1021700022EA03030B5470475C2400200122C0F3C1
:10218000CF0300F0070110B4064C8A40E35C134013
:1021900004D001305DF8044B80B2704718465DF8FA
:1021A000044B70475C240020B5EEC00B38B5F1EE4F
:1021B00010FA0446C5B207DD104B0122B7EEC00B82
:1021C00028461A5505F0D2FB012305F00705621CCD
:1021D00004EB030003FA05F3DBB206D0C4F3CF042B
:1021E000074A115D0B43135538BD064991F8FF2F7F
:1021F00022EA030381F8FF3F38BD00BFB822002068
:10220000541C0020540C012010F0FF000DD00138A8
:10221000064BC0B21B5C012B08BFB1EE400BFDEEBC
:10222000C07B17EE901A05F03BBB7047B822002028
:1022300010F0FF0000D1704701380123054900F07C
:102240000702C0F3C40093400A5CDBB222EA030336
:102250000B547047541C00200122C0F3CF0300F040
:10226000070110B4064C8A40E35C134004D00130EF
:102270005DF8044B80B2704718465DF8044B704718
:10228000541C002000207047002835D0002933D08E
:102290001B4AB8EE007B92ED006B38B5B4EE476B8D
:1022A000F1EE10FA23D0D2E90045C1E900454368B8
:1022B00014491C68144D154892ED007B0C60D968D8
:1022C000D3E90124124B2A60124A046011600022F3
:1022D0001A6001F05DFD104B104AC3E900229A60BC
:1022E00001F0A6FC10B90E4B01221A7038BDD1E9DD
:1022F0000045C2E90045DAE74FF0FF30704700BF04
:10230000400E0020282E00202C2E0020302E0020F1
:10231000382E0020342E00200C260020691E0000DC
:102320007A2E00202DE9F04F2D4E0223DFF8B8A0C1
:1023300083B096F8009005468AF800305FFA89F37A
:10234000019308B933787BB3337803F0FF0B002B8C
:102350003AD1244F002442F210780FE0BBF1000F75
:1023600037D105F03BF9A54248462CBF4FF0000B92
:102370004FF0010B01F084FC337833B93B780A202D
:10238000444403F0FF09002BE8D0BBF1000F4FF0ED
:1023900003030CBF00206FF063008AF80030019B3C
:1023A0005BB103B0BDE8F08F0E4F3B78002BCBD173
:1023B000337873B94FF0010BCCE7019001F094FF33
:1023C000019803B0BDE8F08F032300208AF80030A5
:1023D000E5E703236FF063008AF80030DFE700BF12
:1023E000792E00207B2E00207A2E0020B5EEC00B27
:1023F000F1EE10FA41D4FF2838B504462DED028BDA
:1024000038D81F4BB0EE408B1A78032A19D01A78AF
:10241000012A16D0022C07D81A4D55F824301BB1CA
:1024200002F044F9022811D0B0EE480B204601F02A
:10243000DBFB01462046BDEC028BBDE8384002F0D4
:1024400029B90422022C1A70E6D9EDE755F8243098
:10245000204698470546B0EE480B204601F0C4FBE5
:102460000146002DE6D1204602F03CF92846BDEC9D
:10247000028B38BD4FF0FF30F9E74FF0FF30704767
:102480007A2E00200C260020002001F0F9BB00BFAE
:1024900070B50623074E0024337001F021FC064B73
:1024A0000546C3E900449C6001F0BCFE2846347038
:1024B00070BD00BF7A2E00200C260020014B18783A
:1024C000704700BF7B2E0020014B1878704700BF7B
:1024D000762E00200000000070B5334D334C95F887
:1024E000883194F85120013B012B8CBF002303233A
:1024F00085F88831002A4AD0012A46D094F8523013
:1025000004EB8302FF2127201346526D84F85010FC
:10251000DB6DC4E91223FFF7D1FD06462520FFF746
:10252000CDFDB7EE007B864294ED135A4FF0FF339A
:102530001F49B8EE455B4FF00402C5F8E0314FF09B
:1025400003001C4B85F8882195ED766B9FED123BBF
:102550009FED134B0CBF36EE076B36EE476B94EDD9
:10256000127AB8EE477B85ED766BA5EE037B85EDA1
:10257000486B81ED366BBDE8704027EE047BB0EE12
:10258000470B83ED007BFFF731BF0023B8E7012342
:10259000B6E700BFAFF30080000000000000F0418C
:1025A0007B14AE47E17A543F401A00207019002096
:1025B000901800208018002070B5334D334C95F8EA
:1025C000873194F86D20013B012B8CBF002303233E
:1025D00085F88731002A4AD0012A46D094F86E3017
:1025E00003F11C021E33FF21192054F8222054F855
:1025F000233084F86C10C4E91923FFF75FFD064609
:102600001B20FFF75BFDB7EE007B864294ED1A5A64
:102610004FF0FF334FF00400B8EE455B1C4AC5F89D
:10262000D0311C4B85F8870195ED726B9FED123B05
:102630009FED134B0CBF36EE076B36EE476B94EDF8
:10264000197AB8EE477B85ED726BA5EE037B85EDBD
:102650004C6B82ED346BBDE8704027EE047BB0EE2E
:10266000470B83ED007BFFF7C1BE0023B8E70123D2
:10267000B6E700BFAFF30080000000000000F041AB
:102680007B14AE47E17A543F401A002070190020B5
:10269000901800208018002070B5334D334C95F809
:1026A000863194F88920013B012B8CBF0023032342
:1026B00085F88631002A4CD0012A48D094F88A3017
:1026C00004EB8302FF211D201346D2F88C2084F8EE
:1026D0008810D3F89430C4E92023FFF7EFFC0646B6
:1026E0001F20FFF7EBFCB7EE007B864294ED215AEA
:1026F0004FF0FF331E49B8EE455B4FF00402C5F8BA
:10270000C0314FF005001B4B85F8862195ED6E6BAF
:102710009FED113B9FED124B0CBF36EE076B36EE73
:10272000476B94ED207AB8EE477B85ED6E6BA5EE96
:10273000037B85ED4E6B81ED326BBDE8704027EE7B
:10274000047BB0EE470B83ED007BFFF74FBE002309
:10275000B6E70123B4E700BF000000000000F0412D
:102760007B14AE47E17A543F401A002070190020D4
:10277000901800208018002070B5334D334C95F828
:10278000853194F8A520013B012B8CBF0023032346
:1027900085F88531002A4CD0012A48D094F8A6301B
:1027A00003F12A022C33FF21232054F8222054F86D
:1027B000233084F8A410C4E92723FFF77FFC0646E2
:1027C0002120FFF77BFCB7EE007B864294ED285A70
:1027D0004FF0FF331E49B8EE455B4FF00402C5F8D9
:1027E000B0314FF006001B4B85F8852195ED6A6BE3
:1027F0009FED113B9FED124B0CBF36EE076B36EE93
:10280000476B94ED277AB8EE477B85ED6A6BA5EEB2
:10281000037B85ED4A6B81ED306BBDE8704027EEA0
:10282000047BB0EE470B83ED007BFFF7DFBD002399
:10283000B6E70123B4E700BF000000000000F0414C
:102840007B14AE47E17A543F401A002070190020F3
:102850009018002080180020064AB2F8BA30B3FA67
:1028600083F35B094370B2F8BC30B3FA83F35B09BE
:1028700083707047701900209FED137BB0EEC06B22
:10288000B4EEC76BF1EE10FA16D5B6EE007BB4EEDF
:10289000C70BF1EE10FA04DB30EE070BBBFE400B6A
:1028A0007047BEEE006BB4EEC60BF1EE10FA04DC1E
:1028B00030EE470BBAFE400B70479FED057B20EED4
:1028C000070B7047AFF300800000000000003043AA
:1028D0000000000000000000F0B5DF4F1020DF4CCA
:1028E000B7F8BA20B7F8BC300132DD4D013392B2EF
:1028F0009BB2022A28BF0022B3F5C86F2DED068BCC
:1029000028BF0023A7F8BA2094F8892185B0A7F83A
:10291000BC30013A94F88431012A03F1FF338CBFB3
:1029200000220322012B84F889218CBF002303237A
:1029300084F8843194F8A231013B012B8CBF002331
:10294000032384F8A231FFF719FC03220DF10601DD
:10295000C4F8DC00FFF7F0FB1120FFF70FFC0322A7
:102960000DF10E01C4F8CC00FFF7E6FB1420FFF7D1
:1029700005FC032202A9C4F8BC00FFF7DDFB15200B
:10298000FFF7FCFB03220DF10A01C4F8AC00FFF7CE
:10299000D3FB0F20FFF7F2FB032203A9C4F89C002E
:1029A000FFF7CAFBD4F8603106EE903A95ED927BC2
:1029B000B8EEE66BB4EE476BF1EE10FA02D5002BE1
:1029C00080F292839FEDA00B95ED907BB7EE005BBC
:1029D000A44EA549012037EE457B86ED1E0BB4EED3
:1029E000C76BF1EE10FAB4BF01330023C4F86031B5
:1029F00001F050F800284AD0BDF8063001EE103A38
:102A0000BDF80E3000EE103ABDF80830B8EE411BAC
:102A100008EE103AB8EE400BBDF80A30B8EE488B1D
:102A200095ED825B95ED7E4B95ED807B95ED842B4E
:102A300095ED7A3BA4EE007BA5EE082B95ED7C6B23
:102A400095ED864B86ED0E7BA3EE016B01EE103A01
:102A5000BDF80C3005EE903A0423B0EE420BB8EE10
:102A6000411B84F88431B8EE652B95ED883B95EDDC
:102A70008C5B95ED8A7BA3EE014BA5EE027B86ED88
:102A80000C6B86ED100B86ED124B86ED147BD4F8A3
:102A9000743106EE903A95ED587BB8EEE66BB4EEE5
:102AA000476BF1EE10FA02D5002B80F21A839FEDEE
:102AB000660B95ED567BB7EE005B6C49012037EE57
:102AC000457B86ED1E0BB4EEC76BF1EE10FAB4BF7A
:102AD00001330023C4F8743100F0DCFF002840F01B
:102AE000F38196ED166B95ED9A5B95ED9C4B95ED0C
:102AF0009E7B35EE466B26EE046BB4EEC76BF1EEB3
:102B000010FA08DC95EDA07BB4EEC76BF1EE10FA7D
:102B100058BFB0EE467B02209FED4D6BB4EEC67BF6
:102B2000F1EE10FA88BFB0EE467B86ED1E7BFFF714
:102B300093FB00220023C4F81C0196ED1E7BB5EE2A
:102B4000C07BF1EE10FAC0F2D7829FED416B27EE09
:102B5000067B87EE060BB1EE400BFFF755FB95EDBC
:102B6000A26B96ED184B95EDA45B95EDA67B36EE2A
:102B7000446B26EE056BB4EEC76BF1EE10FA08DC81
:102B800095EDA87BB4EEC76BF1EE10FA58BFB0EE2E
:102B9000467B04209FED2E6BB4EEC67BF1EE10FA5F
:102BA00088BFB0EE467B86ED1E7BFFF755FB00220B
:102BB0000023C4F80C0196ED1E7BB5EEC07BF1EE50
:102BC00010FAC0F294829FED226B27EE067B87EE0F
:102BD000060BB1EE400BFFF717FBD4F8643106EE9D
:102BE000903A95EDAE7BB8EEE66BB4EE476BF1EE46
:102BF00010FA02D5002B80F271829FED130B95ED38
:102C0000AC7BB7EE005B1A49012037EE457B94EDB3
:102C1000488BB4EEC76B86ED1E0BF1EE10FA86ED15
:102C2000208BB4BF01330023C4F8643100F032FFBD
:102C300000B3042395EDF07B84F8A23127EE087BE6
:102C400086ED2E7B16E000BF0000000000000000B3
:102C50000000000000E06F4070190020401A0020C2
:102C6000780A002090180020C0240020C1240020F1
:102C7000BF240020D4F8683106EE903A95EDB87B79
:102C8000B8EEE66BB4EE476BF1EE10FA02D5002B0E
:102C900080F221829FEDA00B95EDB67BB7EE005B35
:102CA000A149012037EE457B94ED4A8BB4EEC76B0A
:102CB00086ED1E0BF1EE10FA86ED208BB4BF0133CA
:102CC0000023C4F8683100F0E5FE40B1042395ED1F
:102CD000E87B84F8A03127EE087B86ED2A7BD4F8C8
:102CE0006C3106EE903A95EDC27BB8EEE66BB4EE31
:102CF000476BF1EE10FA02D5002B80F2E9819FEDCF
:102D0000860B95EDC07BB7EE005B8849012037EE5E
:102D1000457B94ED4C8BB4EEC76B86ED1E0BF1EE4C
:102D200010FA86ED208BB4BF01330023C4F86C3158
:102D300000F0B0FE40B1042395EDEC7B84F8A131A6
:102D400027EE087B86ED2C7BD4F8703106EE903AA6
:102D500095EDCC7BB8EEE66BB4EE476BF1EE10FA76
:102D600002D5002B80F2B1819FED6B0B95EDCA7BF4
:102D7000B7EE005B6E49012037EE457B94ED4E8B3C
:102D8000B4EEC76B86ED1E0BF1EE10FA86ED208BCC
:102D9000B4BF01330023C4F8703100F07BFE40B1B2
:102DA000042395EDE47B84F89F3127EE087B86EDC4
:102DB000287BBB6AFA6A0133BB620BB90132FA6243
:102DC00007EE902A97F8501097ED0C5BB8EE677BF2
:102DD0009FED536B27EE057B27EE067B06EE903AC0
:102DE000B8EE666BA6EE057B87ED087B002900F048
:102DF0009181012965D097F85200B0FA80F040091E
:102E0000014687F85200FF2007EB810487F8510044
:102E100097F86C006365E265002800F0788101286E
:102E20004CD097F86E00B0FA80F04009014687F860
:102E30006E00FF2001F11C041E3187F86D0097F829
:102E4000880047F8243047F82120002800F05C81F2
:102E5000012830D097F88A00B0FA80F04009014686
:102E600087F88A00FF2007EB810487F8890097F82C
:102E7000A400C4F88C30C4F89420002800F04181EC
:102E8000012815D097F8A600B0FA80F04009014655
:102E900087F8A600FF2087F8A50001F12A002C3151
:102EA00047F8203047F8212005B0BDEC068BF0BD77
:102EB00000210846ECE700210846D1E7002108463A
:102EC000B5E7002108469CE74FF0FF33194A9FED14
:102ED0001A6AC4F87C311146184B9FED197A981D77
:102EE0009FED0D4BB0EE443BB8EEC77B8342B8EE8E
:102EF000C66BB1EC025BA5EE074BA5EE063B21D0FD
:102F000093F902C0023307EE10CA93F901C006EE2E
:102F100010CAE9E7AFF300800000000000000000E5
:102F2000000000000000F041BD240020BE2400206D
:102F3000BC240020801B0020000000003003002083
:102F40000100000096ED0C2B96ED0E7B784932EED9
:102F5000442B784837EE433B0B46083111ED027B9A
:102F600093ED085B92ED006B22EE077BA5EE037BF1
:102F700036EE076BA2EC026B9042EDD16E4A6F48C1
:102F800013469FED677B95ED962B95ED985B94ED41
:102F9000508B94ED524B94ED543B94ED566B32EEC6
:102FA000482B154635EE435B37EE466B37EE444B08
:102FB000B0EE471BB0EE470B86ED002B86ED045BB1
:102FC00086ED066B86ED167B86ED187B86ED207B05
:102FD00086ED024B86ED247B86ED267B584EB0EEC7
:102FE000472BB0EE475BB0EE476B314606F1200C45
:102FF00010322033B1EC029B92ED2C3B13ED084BC9
:1030000092ED2EABA9EE036B6145A4EE082BA9EE61
:103010000A5B13ED063B13ED024BA3EE080BA4EE87
:10302000087B13ED043BA3EE081B02D0B0EC028B2F
:10303000DEE79FED3B3B95ED204B86ED202BB0EE80
:10304000438B0423B0EE439BB0EE43AB84F889314D
:10305000A6EE048B95ED224B86ED241B86ED267B98
:10306000A6EE049B95ED244B86ED166B86ED185B62
:10307000A6EE04AB95ED264B86ED0A5B86ED086B5C
:10308000A6EE043B95ED284B86ED225BA5EE048B66
:1030900095ED2A4BA5EE049B32EE082B95ED2C4BBB
:1030A00084ED502B95ED2E2BA5EE04ABA5EE023B47
:1030B00039EE009B31EE0A1B84ED529B84ED541BCC
:1030C00037EE037B84ED567B0DE595EDC80B4DE6A1
:1030D00095EDBE0B15E695EDB40BDDE595EDAA0B70
:1030E0008DE595ED540BE4E495ED8E0B6CE49FEDCE
:1030F0000E0BC6E91E236EE59FED0B0BC6E91E23E2
:103100002BE501210846C3E601210846A8E6012176
:1031100008468CE60121084673E600BFAFF3008045
:10312000000000000000000000000000000000801F
:10313000780B0020A01B0020780A0020881B0020AC
:10314000901800200000000070B54D4C4FF0FF3388
:103150004C4D4D4EC5F8803194ED5C6B94EDD27BB7
:1031600094EDD45B2DED048B37EE467B94EDD68B3E
:1031700027EE057BD4E95E2386ED1A6BB4EEC78B90
:10318000C6E91C23F1EE10FA07D494EDD88BB4EE07
:10319000C78BF1EE10FA38FE078B9FED339B0520AD
:1031A000B4EEC98BF1EE10FA09D8FFF755F8B5EE79
:1031B000C08BF1EE10FA4FDA9FED2D0B03E0FFF715
:1031C0004BF89FED2D0BC5F8FC00FFF71DF894EDB3
:1031D000DA7B96ED1C5B94EDDC6B94EDDE8B37EEC9
:1031E000457B27EE067BB4EEC78BF1EE10FA07D4D1
:1031F00094EDE08BB4EEC78BF1EE10FA38FE078B3E
:103200009FED199B0620B4EEC98BF1EE10FA09D898
:10321000FFF722F8B5EEC08BF1EE10FA15DA9FED4C
:10322000140B03E0FFF718F89FED130BC5F8EC0043
:10323000FEF7EAFF154A936B0133936313B9D36B1F
:103240000133D363BDEC048B70BD28EE098B88EE8F
:10325000090BB1EE400BE9E728EE098B88EE090B6C
:10326000B1EE400BAFE700BF0000000000E06F4090
:1032700000000000000000800000000000E06FC0BF
:10328000780A0020401A00209018002070190020B1
:103290002B492C4AD1F8783106EE903A92ED647BB6
:1032A000B8EEE66B00B5B4EE476B83B0F1EE10FA02
:1032B00001D5002B34DA9FED1E0B92ED627BB7EE49
:1032C000005B37EE457BB4EEC76BF1EE10FAB4BF8E
:1032D00001330023C1F87831FFF7CEFA9FED167B5A
:1032E000B4EEC70BF1EE10FA0BD5B5EEC00BF1EE54
:1032F00010FA18DBFCEEC07BCDED017A9DF80410CE
:1033000000E0FF210D20FEF7D3FE0F4A136C0133BE
:10331000136413B9536C0133536403B05DF804FBB9
:1033200092ED600BC9E70021ECE700BFAFF300802E
:1033300000000000000000000000000000007040DD
:10334000401A0020780A00207019002000000000B8
:103350002DE9F041E84FD0220021E84C3846E84EF4
:1033600004F28915DFF8CC832DED048B06F0E4FB25
:10337000E44AE54BBFEE007BBA6004F5C370E34A54
:10338000E3499A600B607960C3E90022C3E9052232
:10339000C3E90722C3E90922C3E90B22C3E90D22CD
:1033A000C3E9035504F5C472DA4DC3E91022C3E939
:1033B0001222C7E9036504F28712D74D00267D610A
:1033C00004F5C27587ED307B9FEDC57BC3E9142200
:1033D000C3E9162204F28512DD63012587ED0C7B1B
:1033E000C3E91800C3E91C22C3E91E2204F5D17207
:1033F000C3F8802004F2A112C3F8842004F5D0722F
:10340000C3F8882004F29F12C3E91A00C3F88C2085
:1034100007F11803E02240468B6007F108034B6078
:1034200007F12003CB60002106F086FB4FF4F47215
:103430000021204606F080FB102084F89A51C4F841
:10344000D450FEF745FEC4F8DC00112084F8C060BB
:1034500084F8C86084F8D85084F89951C4F8C450EE
:10346000FEF736FEC4F8CC00142084F8B06084F86F
:10347000B86084F8C85084F89851C4F8B450FEF786
:1034800027FEC4F8BC00152084F8A06084F8A8606A
:1034900084F8B85084F89751C4F8A450FEF718FE89
:1034A000C4F8AC000F2084F8906084F8986084F829
:1034B000A85084F89651C4F89450FEF709FE2946A6
:1034C000C4F89C000D20C4F860612670267284F850
:1034D000985084F89E5165609FED839B9FED848B8F
:1034E000C4E95D66FEF7DEFDB0EE491BB0EE480BA9
:1034F000022084F8106184F81861257284F88D51D7
:10350000C4F81451FEF750FEB0EE491BC4F81C017C
:10351000B0EE480B042084F8006184F8086184F858
:10352000185184F88C51C4F80451FEF73DFE314621
:10353000C4F80C012720C4F8646184F8806084F822
:10354000085184F89551C4F88450FEF7ABFD31461C
:10355000252084F8706084F8885084F89451656759
:10356000FEF7A0FD04226D49282084F8785003F06E
:10357000E5FA31462320C4F8686184F8206084F8B5
:103580008F516562FEF78EFD31462120267484F846
:10359000285084F88E516561FEF784FD042260494D
:1035A0002420257603F0CAFA31461920C4F86C614C
:1035B00084F8606084F893516566FEF773FD3146C8
:1035C0001B2084F8506084F8685084F89251656537
:1035D000FEF768FD042253491A2084F8585003F07E
:1035E000ADFA31461D20C4F8706184F8406084F85B
:1035F00091516564FEF756FD31461F2084F8306016
:1036000084F8485084F890516563FEF74BFD04221E
:1036100045491E2084F8385003F090FAB0EE491B5B
:10362000B0EE480B052084F8F06084F8F86084F868
:103630008B51C4F8F450FEF7B7FDB0EE491BC4F847
:10364000FC00B0EE480B062084F8E06084F8E860E7
:1036500084F8F85084F88A51C4F8E450FEF7A4FDC9
:10366000324B4FF00331324A4FF0FF0CC4F8EC00FC
:103670000020116040F2033187F8526091800021F0
:1036800087F86E6087F88A6087F8A6604FF0FF368B
:1036900084F8E85084F89C5187F851C087F86DC0D1
:1036A00087F889C087F8A5C093EDB27BC4E95001C3
:1036B000C4E9520184ED487B93EDBC7BC4E954011D
:1036C000C4E9560184ED4A7B93EDC67BC4E95F668D
:1036D00084ED4C7B93EDD07B84ED4E7B2CE000BFE2
:1036E0007B14AE47E17A543F0000000000E06F40D9
:1036F000000000000040AF4070190020401A002078
:103700006802DE8EF90A84773825002050090020EF
:10371000D82400205AA2B44E13A7611959050000FD
:10372000F90700003906000019070000780A002098
:10373000BC2400209018002093ED507B88ED167B70
:1037400093ED527B88ED187B93ED707B88ED0C7BBD
:1037500093ED727B7A6D87F85060BA64FA6D84F8E5
:10376000E551FA64D7F8A820C4F8E061C7F89C20B6
:10377000D7F8B02087F8A4C084F8B551C4F8B06178
:10378000C7F8A02088ED0E7B93ED747BC4E9760129
:10379000C4E96A0188ED107B93ED767B88ED127B9E
:1037A00093ED787B88ED147B93ED687B88ED367B19
:1037B00093EDEE7B88ED2E7B93ED6E7B88ED307B79
:1037C00093EDE67B88ED2A7B3A6F87F86CC07A66CA
:1037D000BA6F87F888C0BA66D7F88C2084F8D551BC
:1037E00084F8C551C4F8D061C4F8C061C4E972015D
:1037F000C4E96E01D3E96C01BDEC048BC8E9320168
:10380000D3E9E201C8E92801D3E96A01C8E9340132
:10381000D3E9EA01D7F89430C8E92C01C7E920239D
:10382000BDE8F0810000000010B5994C94F8D0304C
:103830003BB90122D4F8D430934284F8D02000F070
:10384000EF8094F8C0303BB90122D4F8C4309342E1
:1038500084F8C02000F0F18094F8B0303BB9012228
:10386000D4F8B430934284F8B02000F0F38094F898
:10387000A0303BB90122D4F8A430934284F8A020B0
:1038800000F0F58094F890303BB90122D4F89430E0
:10389000934284F8902000F0B68023780BB901237E
:1038A000237094F81031002B57D094F80031002B7E
:1038B00000F08B8094F8803013B9012384F88030B5
:1038C00094F8703013B9012384F8703094F82030E4
:1038D00013B9012384F82030237C0BB9012323740E
:1038E00094F8603013B9012384F8603094F85030B4
:1038F00013B9012384F8503094F8403013B90123F0
:1039000084F8403094F8303013B9012384F8303013
:1039100094F8F030002B3CD094F8E03003B110BDA7
:103920000122D4F8E430934284F8E020F7D194F8EF
:10393000E830002BF3D00620FEF78EFCC4F8EC0034
:103940009FED510BFEF760FC0620FEF785FCC4F8E6
:10395000EC00BDE81040FEF76BBC0122D4F8143136
:10396000934284F81021A0D194F81831002B9CD0F8
:103970000220FEF771FCC4F81C019FED430BFEF71B
:1039800043FC0220FEF768FCC4F81C01FEF750FC63
:103990008BE70122D4F8F430934284F8F020BBD1B5
:1039A00094F8F830002BB7D00520FEF755FCC4F88A
:1039B000FC009FED350BFEF727FC0520FEF74CFCC5
:1039C000C4F8FC00FEF734FCA6E70122D4F8043169
:1039D000934284F800217FF46DAF94F80831002BF6
:1039E0003FF468AF0420FEF737FCC4F80C019FEDEC
:1039F000260BFEF709FC0420FEF72EFCC4F80C0190
:103A0000FEF716FC56E794F89830002B3FF445AFCC
:103A10000F20FEF7B3FBC4F89C00FEF79BFB3CE7CE
:103A200094F8D830002B3FF40CAF1020FEF7A6FB23
:103A3000C4F8DC00FEF78EFB03E794F8C830002BD7
:103A40003FF40AAF1120FEF799FBC4F8CC00FEF753
:103A500081FB01E794F8B830002B3FF408AF142045
:103A6000FEF78CFBC4F8BC00FEF774FBFFE694F88D
:103A7000A830002B3FF406AF1520FEF77FFBC4F8FB
:103A8000AC00FEF767FBFDE60000000000000080D0
:103A9000401A0020B5EEC00B91F800C010B5F1EE51
:103AA00010FA0CF0030424DD4FF0010E72460130D1
:103AB000174BC0B203EB8403022813F80E3015D85D
:103AC000144C205C034211D01CF0080F4FEA9C00FC
:103AD0000AD1C40613D442EA830213F0380F0A70E5
:103AE00010D04FF0FF3010BD5C07F2D500200A70F7
:103AF00010BD4CBF0122002252009646D7E798061F
:103B0000F4D4E8E713F0070018BF012010BD00BF90
:103B10005C0700209002002008B52DED048B9FED7E
:103B2000269BB0EE408B20EE099B9FED251BB0EE4F
:103B3000490B05F08DFEBCEEC00B9FED236BB4EE80
:103B4000C69BF1EE10FA33DD89EE067BFCEEC77BF7
:103B500017EE902A204BBFEE007B204983ED000A30
:103B60005A6091ED006BB4EE476BF1EE10FA19D08C
:103B7000B8EE007B91ED006BB4EE476BF1EE10FAFE
:103B800010D0174B9FED127B91ED006B28EE077B59
:103B900036EE486BB4EEC76BF1EE10FA4CBF012263
:103BA00000221A700F4B83ED008BBDEC048B08BD17
:103BB0000022CFE7AFF300800000000000408F40FC
:103BC000000000000000F0410000E0FFFFFFEF41B7
:103BD000000000000000B03C04260020400E002041
:103BE000762E0020281C002008B52DED028BB0EEAB
:103BF000408B80B1B6EE000B9FED097B9FED0A1B59
:103C0000A8EE070B05F024FEFCEEC07BBDEC028B9A
:103C100017EE900A08BDFFF77FFFEBE7AFF30080D8
:103C20000000000080842E41000000000000F041F0
:103C300000B5002383B000200021CDE900330E4BF6
:103C4000C3E900010D4B00200021C3E9000101A9D7
:103C5000684602F057FDDDE9000101F0E1FE38B9E8
:103C600001A9684602F054FDDDE9000100F002FC04
:103C700003B05DF804FB00BF381C0020401C00208E
:103C8000F8B50646002003F0A9FC01F091FF851C61
:103C9000044618BF012560B15DB10025012736B18A
:103CA00085F00105002003F099FC2F43EDD020465C
:103CB000F8BD00F0FFFB831C044618BF012308B1C8
:103CC000002BEBD11D4301F03BFF831C044618BFC2
:103CD000012308B1002BE1D11D430027DFE700BF1E
:103CE000F8B51F4F3B78002B36D100F0DFFC80B1D8
:103CF000002442F210761B4D0A20344403F06EFC7F
:103D00000120FFF7BDFF00F0D1FCAC4201D200283A
:103D1000F2D100F0D1FC002401F0F4FF002312499D
:103D20004FF04045114A0B7013701149114A0B6056
:103D300013601149114A0B601360114A1149136055
:103D4000114AC1E90045C2E9003300240F4A0025A9
:103D50003B70C2E90045F8BD002000F0C1FCC4E79B
:103D6000762E002000879303792E00207B2E0020E2
:103D7000282E00202C2E0020302E0020342E002053
:103D8000382E0020400E002004260020281C002091
:103D90009FED0B7B0C4B00200C4A0D4910B483EDBA
:103DA000007B12780B4B08701A700B490B4B0C4CB4
:103DB0000C4A08701870207010605DF8044B704752
:103DC0000000000000000000481C0020742E0020AD
:103DD0007D2E00207C2E0020802E0020752E0020BD
:103DE000822E0020482E00208D4BF0B5002832D1C5
:103DF0008C4A1C7811781D788C42157007D08A493E
:103E00008A4D8B4C8B4A08702870206010701A788D
:103E1000012A00F096801A78012A77D0854A117815
:103E200001F0FF0000292CD0834E0020834C30701D
:103E3000217801F0FF0C002900F09B807A49107076
:103E4000087020701378042B00F2D781DFE803F0AC
:103E500055313C44AA001A78012A08D0784B1B78C7
:103E600013B9714B1878F0BD764B1878F0BD764ACF
:103E7000128892B29042F1D1744A116800294FD150
:103E8000ECE76E4C6C4E694D20703178287001B3B0
:103E90000221117030701978D9B91078C0B2042895
:103EA00000F2A881DFE810F02800B700A100170099
:103EB000B90000205E4C2368002B00F02181013BFB
:103EC0002360002B00F01C8108785D4B00221A70E3
:103ED000F0BD5549B6E75449554C2368002B7AD1BB
:103EE0005B4D2B68002B00F012812D68012004230C
:103EF000087025601370E8E74B493378002BE3D056
:103F000002240023087814703370DEE74E4A1288CA
:103F100092B2002A82D14D4A116800293FF47EAF47
:103F20004C4C2478002C5CD0424A1278022A00F0D3
:103F3000998000283FF472AF414B1B78002B90D042
:103F400092E73C4A117821B93B4E317809B1384C9F
:103F500009E0117801297FF45EAF354C2168012911
:103F60007FF459AF344E002131702160022111706D
:103F700051E71978002990D02C4D1178287885F8D0
:103F800000C0042900F22E810FF2040C5CF821F02D
:103F9000791F00009720000075210000571F0000C6
:103FA0009D2000000020224C23681BB1013B2360B0
:103FB000002B89D1284B1B78012B00F0B180274BB7
:103FC0001D68002D00F0B1801D68002001230870DD
:103FD0002560137079E7013B2360002B7FF474AFF9
:103FE0007EE71268002AA4D09EE71D4908680028D1
:103FF00003DD1B78012B00F0A08015490B68002B16
:1040000000F0898009680120094B074C19600423DE
:104010002070137059E704494CE701200249C2E7B8
:10402000742E00207C2E0020822E0020802E002066
:10403000482E0020752E0020B5130020702E002081
:10404000772E0020782E0020562E002000260020FB
:1040500080130020732E0020722E0020FC250020EB
:10406000F8250020664D2C78002C7FF462AF654F58
:104070003A7891ED007B002A76D0634A11780029C6
:1040800067D111780129CCB203D01478A21E544212
:1040900054415E4A92ED006BB4EEC67BF1EE10FA2D
:1040A00080F292805A4E92ED006BB4EEC67BF1EE38
:1040B00010FA12DD92ED006B96ED005BB4EE465BFC
:1040C000F1EE10FA09D15349096821B952494FF06C
:1040D000010E81F800E001212970002C4AD12A78D4
:1040E000B2FA82F2520986ED007B3A7000287FF422
:1040F00023AF93E600287FF478AF474B1878E4E6C7
:1041000000287FF4EDAE022308781370DDE6184630
:104110000B701370D9E64049184613700B70D4E643
:10412000002318460B701370CFE670B13B4B04258B
:1041300008781B6815702360C7E60C6803233848AD
:104140003549046013700878BFE6022308701370C5
:10415000BBE611781678C9B2012E07D01278022A70
:1041600004D0022995D02246294EB9E7022937D03A
:10417000264A274E92ED006BB4EEC67BF1EE10FAA4
:1041800011D592ED006B96ED005BB4EEC65BF1EEDF
:1041900010FA08DB1F4A126812B91F4901220A707F
:1041A00001222A709CE792ED006BB4EE467BF1EEA3
:1041B00010FA94D192ED006B96ED005BB4EEC65B05
:1041C000F1EE10FA8BDDE5E7114E92ED006B96ED06
:1041D000005BB4EEC65BF1EE10FA3FF574AF62E738
:1041E000012456E70C490023237018460B702B70EE
:1041F00013706AE60849024DF5E7014DF3E700BF89
:10420000802E00207D2E0020712E0020301C0020EA
:10421000481C0020F8250020822E0020801300205A
:10422000482E002010B4002200231A4C00201A4906
:104230004FF0010CC4E90023184C08702070184995
:10424000184C087020801849184C087020701849C4
:10425000184C086020701849184C087020601849E4
:10426000184C08701849C4E900234FF47A74174BAE
:10427000174A0C601860174B106017491870174BDD
:1042800081F800C0164A1870164B107018705DF84F
:10429000044B7047481C00207D2E0020752E002006
:1042A0007C2E0020562E0020822E0020802E002002
:1042B000482E0020782E0020772E00200026002097
:1042C000732E0020301C002080130020FC250020CD
:1042D000F8250020712E0020B5130020702E00203C
:1042E000742E0020722E0020104B1B7893B9104BB7
:1042F0001A7882B90F4A12784AB11B7803F0FF028C
:104300002BB90D4801210D4B0270197070470B4BF2
:1043100000221A707047074A11780029EBD1012357
:104320000549064A0B701370704700BF742E0020B9
:10433000B5130020702E0020782E0020772E00204C
:1043400002234FF0FF301360704700BF10B51446D2
:1043500008B101F09FFD0020206010BD10B9FF23BF
:104360000B707047FE2310300B700F2836D8DFE833
:1043700000F0322F2C292623201D1A1714110E0BA2
:10438000083522234B70704730234B707047292328
:104390004B70704700234B70704723234B7070475E
:1043A00021234B70704711234B7070472A234B70A9
:1043B000704727234B70704710234B70704724239E
:1043C0004B70704728234B70704726234B70704703
:1043D00031234B70704733234B70704720234B7051
:1043E000704700BF014B1878704700BF812E002036
:1043F000014B1870704700BF812E0020014B1878C8
:10440000704700BF7F2E0020024B1A7810431870AF
:10441000704700BF7F2E0020024A137823EA000075
:10442000107070477F2E0020014B1878704700BF36
:104430007E2E0020014B1888704700BF582E0020A8
:1044400079B18AB1002300B501E09A420ED091F80B
:1044500000E08C4601330C318645F6D160465DF8AC
:1044600004FB8C46604670479446FBE74FF0000C17
:10447000F4E700BF70B50D4E34789CB90C4D00F0D8
:1044800045FA00F04BFA286000F0A8FE00F0BCFEF0
:10449000A86001F057FA01F05DFA012368603370FB
:1044A000204670BD6FF00B04FAE700BF602E0020BD
:1044B0008C240020734B00202DE9F04188B01B783C
:1044C000CDE90300CDE905000790002B00F0C08086
:1044D00006AC05AB04AA03A9009401F08FFB431DB1
:1044E0000446DBB2012B01D9002865D103980028CE
:1044F00069D0049ADDE9051301EB030C944507D953
:104500006FF0070401F0C6FC204608B0BDE8F0815A
:10451000425C012B5C4B00EB0106A2F1C0051B784D
:10452000B5FA85F54FEA55150ED96DB1002B5DD062
:1045300002F12D037578DBB20F2B03D9013D012D5C
:1045400000F28F80022304E0002B42D0F02A5AD9D7
:1045500000234E4D55F82330002B4DD01046984780
:10456000002847D0D0E90138002B3CD007AA059994
:10457000039898470746B8F1000FC5D0079D002D56
:10458000C2D0069A954245D80021304605F0D4FAAB
:10459000059B03993846079A1944C047079C039A1C
:1045A0004FF6FF71DDE90430CDE90004012001F090
:1045B00087FA04460028A7D003980028A2D12046F5
:1045C00008B0BDE8F0816FF00704204608B0BDE8F0
:1045D000F081FF2A0AD12D4B1B68002B48D01046D2
:1045E00098470028BED16FF00B04E5E707AAFFF754
:1045F000ADFE89E70398059907AADFF89480FFF7D5
:104600009FFE0746BAE702F11C03DBB20C2B22D84F
:1046100001239EE701F070FB0446039801F03AFC89
:104620000021284601F038FB049001F02FFB04998B
:10463000059001B3204601F075FD069A039000280D
:10464000A2D1014630466FF0090405F075FA5BE728
:104650006FF0080458E702F12D03DBB20F2B7FF651
:1046600071AF02F13803DBB20A2BC5D8032370E720
:104670006FF00B0446E7069A30466FF0070405F02A
:104680005BFA41E7602E0020812E00208C24002060
:10469000DD230000044B1B7813B1002200F0BABDEB
:1046A0006FF00800704700BF602E0020014B1878A3
:1046B000704700BF812E002008B501F051F901F0CC
:1046C000DFF800F031F90020034B044AC3E9000091
:1046D000C3E90200107008BD8C240020602E002069
:1046E00000F080BF0122002100F094BD06230020CD
:1046F00013607047084410B4C37841683BB931B9BE
:1047000002246FF00B0014605DF8044B70470448FE
:10471000012403710160002014605DF8044B7047B0
:104720003C2E002007220149FFF78ABE78080020AE
:10473000F8B544180B4B154666781F6801F0C4FAAB
:10474000B04207D957B16378002007495A1C0B7053
:104750002A60F8BD02226FF00100F9E702226FF033
:104760000B00F5E73C2E0020832E002070B5441886
:104770001546667801F0A8FAB04212D9E37862686B
:104780002BB922B902236FF00B002B6070BD61784A
:104790000648026003714B1C054A00202B60117013
:1047A00070BD02236FF00100EFE700BF3C2E002038
:1047B000832E002010B5144600F0CCFF20B9022350
:1047C0006FF00400236010BD01F08CFA00F0CEFF02
:1047D00002236FF00400236010BD00BF0023FF22FE
:1047E00010B50C46C1F801304B710A70FFF706FE98
:1047F0006070FFF719FEA070FFF71CFEA08010BDCF
:1048000010B5144600F0B4FF30B10020FFF7F0FD02
:1048100001230020236010BD02236FF00A00F9E796
:1048200038B54518144600F0A3FF68B16B78012B2A
:1048300006D80120FFF7DCFD08230020236038BDE7
:1048400002236FF00100F9E702236FF00A00F5E799
:1048500088B9052210B50C46FF21206060602170E8
:10486000627001F031FAE07001F02CFA0123A080AF
:10487000A371E37110BDFFF771BD00BF80B994460D
:10488000FF222DE9F0410D4E0A70356835B1DFF891
:10489000308098F800707A1C944503D0BDE8F08110
:1048A000FFF75CBD0446481C29463D443A4601F0EA
:1048B000E9FF88F800403560F0E700BF3C2E00209B
:1048C000832E002080B99446FF222DE9F0410D4E41
:1048D0000A70356835B1DFF8308098F800707A1CBE
:1048E000944503D0BDE8F081FFF738BD0446481C6D
:1048F00029463D443A4601F0C5FF88F8004035603E
:10490000F0E700BF3C2E0020832E0020014B024A1E
:104910001A607047C4240020A5270000014B1868C6
:10492000704700BFC4240020014B00221A6070476A
:10493000C4240020014B1868704700BF3C2E0020A3
:10494000034611B908B900207047024A01201360DC
:10495000117170473C2E0020024A13681844106001
:10496000704700BF3C2E0020F0B4244C0144236863
:104970003BB3234DA4882888844222D900EB400011
:1049800053F8304003EBC003DCB1A8781E798642AF
:1049900017D9C0EBC00054F8206004EB800486B146
:1049A0002479E87884420CD95B79023B012B21D928
:1049B0004B78FF2B0BD002236FF00100F0BC13608B
:1049C000704702236FF005001360F0BC704791F848
:1049D00002C006EBC0044F6806F83030013084F89E
:1049E00001C0CB78E8700020A370012367601360DA
:1049F000F0BC704702236FF00700E5E7182600209F
:104A00008C13002010B51B4C236833B30144A488D9
:104A10004888844221D900EB400003EBC003587959
:104A20000238012822D9B1F804E01FFA8EF07F285D
:104A300013D8C87988B991F801C03CF0100011D1A1
:104A4000012483F808C0A3F806E089799872A1428E
:104A500038BF21465972146010BD02246FF0010066
:104A6000146010BD02246FF00900F4E702246FF017
:104A70000700F0E718260020082300201360704785
:104A8000FF2201234FF0340C00200A704B708A7013
:104A9000CB700A7181F805C08B71C871704700BF77
:104AA00002236FF00F001360704700BF084430B559
:104AB0004378012B36D1B0F806C0418804791FFA3B
:104AC0008CFE45791F480368C3B3808888422DD97E
:104AD000012922D8B4FA84F014F0FD0F4FEA5010E7
:104AE0001BD1012D19D1BEF1010F12D188B101EBFB
:104AF000410103EBC1035979023901291AD9012176
:104B000000201C730C46A3F80EC059731882146061
:104B100030BD14B1BEF1010FE9D802246FF00900D5
:104B2000146030BD02244FF0FF30F0E702246FF034
:104B30000100ECE702246FF00700E8E702246FF0C1
:104B40000300E4E718260020FF2300224FF0110C99
:104B50006FF07F00CA800B7081F801C08B70CB7042
:104B600008714A71704700BF0D220149FFF768BC08
:104B7000500300202DE9F047254E0844154682B029
:104B80003268438804794779002A38D0B18899423D
:104B900031D903EB43034FEAC30802EBC30352F8D6
:104BA00008A0BAF1000F2AD01B79A34223D9C4EB85
:104BB000C404A4005AF80490B9F1000F1FD1D7B172
:104BC000FA001046019201F039F933684AF80400FE
:104BD00053F808301859B0B1019A494604F0ACFFB7
:104BE00033684846012253F8083023441F712A6075
:104BF00002B0BDE8F08702226FF00100F7E7022261
:104C00006FF00300F3E702226FF00200EFE700BF4E
:104C1000182600202DE9F0431F4E084483B01746A4
:104C2000D6F80090448890F80480B9F1000F27D09E
:104C3000B388A34228D908F1FF33DBB2FB2B23D87A
:104C400004EB4404E40059F80450CDB9C8EBC802A1
:104C500092001046019201F0F1F8336849F804001F
:104C60001859A8B1019A294604F066FF336828460E
:104C70000122234483F804803A6003B0BDE8F08346
:104C800002226FF00300F7E702226FF00100F3E762
:104C900002226FF00200EFE7182600202DE9F0470E
:104CA000DFF888A001441746DAF80050B1F8029006
:104CB00085BB1FFA89F84FF6FE7308F1FF329A425E
:104CC0002CD808EB4801CE00304601F0B7F8044676
:104CD00040B33246294604F02FFFAAF80490CAF8E0
:104CE0000040B8F1000F10D020464FF0FF32A1195C
:104CF00001234261183000F80C5C00F80B3C20F8EE
:104D00000A3C20F8085C8842F3D1012300203B6074
:104D1000BDE8F08702236FF00300F8E702236FF08D
:104D20000100F4E702236FF00200F0E718260020EC
:104D30000B4660B9074AFF2007491268187002EB5A
:104D40004202096801EBC202D27A5A707047FFF73B
:104D500005BB00BF64130020182600200823002094
:104D60001360704770B50179044651B300252E4693
:104D70002B462268C3EBC3000121013502EB800002
:104D8000E28994F808C0806800FB02F250181BB951
:104D90001CF0100F18BF501D00F07EFF21798642D5
:104DA000EBB238BF06469942E3D801EB410104F16A
:104DB0001402304601F09AF810B14FF0FF336361EE
:104DC00070BD0E46F3E700BF2DE9F04FDFF8F48128
:104DD000461883B0D8F800000192B6F8029018B1D6
:104DE000B8F804304B4507D86FF001000223019A50
:104DF000136003B0BDE8F08F6F4BC3F80090737879
:104E0000022B2CD809EB490100EBC10AC9009AF822
:104E1000054094B99AF8084014F0020F44585BD04A
:104E2000002C6FD098F807509AF804402C44802C3E
:104E300068DC8AF80B5088F80740013B012B11D938
:104E400072B65E4B1C68002C42D17378012B5ED089
:104E5000022B75D0002B78D062B60020C6E76FF029
:104E60000900C3E79AF80430002BE9D040584FF00E
:104E7000000BCBEBCB0300EB83019D0009790029EC
:104E800043D050F823300822002412FB013193F85C
:104E900001C0083399426444F9D1BBF1000F03D13A
:104EA0009AF80830DB0624D4BAF80E3004FB03F37A
:104EB0005F1C00F007FF874224D8DAF800000BF1EE
:104EC000010B0544AC609AF804305B45D1DCB7E7D0
:104ED00062B66FF00A0089E7A4B198F806509AF814
:104EE00004402C44FC2C0DDC8AF80B5088F806405A
:104EF000A3E7BAF80E3004FB03F35F1D00F0E2FEF7
:104F00008742DAD96FF0080070E70C46C5E7DAF897
:104F1000143001330AD12A4BBAF806101888884297
:104F200037D0B9F1010F01DC06293ED90323022055
:104F30008AF80530FFF75CFA4020FFF765FA8BE747
:104F40008AF8053062B6204650E701238AF805301A
:104F5000B8F80430B3B1013BD8F8002099B201EBA6
:104F6000410102EBC10102E0012B7FF675AF5379DD
:104F70008A4202F11802A3F10203DBB2F4D1012B41
:104F80007FF66AAF0120FFF733FA4020FFF744FABB
:104F900062E70AF11402D3E9010101F091F8002857
:104FA000C4D062B66FF0020020E75046FFF7DAFE89
:104FB000AAF81040F3E700BF64130020442E00203D
:104FC000901300201826002070B41C4C23685BB39B
:104FD0000844B4F804C04488A1B28C4524D901EB3C
:104FE000410153F8315003EBC103EDB190F804C017
:104FF0001979614518D9CCEBCC0155F8216005EB46
:1050000081058EB14079297981420DD95B79023BC6
:10501000012B0FD90A4B0121D87000201C8083F886
:1050200002C0116070BC704702216FF00100116076
:1050300070BC704702216FF00700F8E718260020C7
:105040008C13002008442DE9F04743781446022BC6
:105050000FD85F4D2B6893B1AB8883B172B65D4BAF
:105060001E6896B162B602236FF00A002360BDE8A5
:10507000F08702236FF009002360BDE8F087022368
:105080006FF001002360BDE8F0874378012B3FD02B
:10509000022B06D063B362B6012300202360BDE873
:1050A000F087AE88E6B1296806EB460001250B467D
:1050B00001EBC0005A791833022A08BF03F8135CC9
:1050C0008342F7D1002201E0012BE4D901324B7970
:1050D000183192B2023BB242DBB2F5D3012BDAD9DE
:1050E0000120FFF785F94020FFF796F962B6D3E774
:1050F000A9880029F4D02B6801EB4101012003EBC2
:10510000C1015A7902B1587118339942F9D1E7E7D0
:10511000A9880029BFD03746DFF8BC80B14607EB2D
:10512000470A2868B8F800C07B1C00EBCA004FEAA9
:10513000CA0A06E08B420CDA1830013301370AF153
:10514000180A4279022AF5D14269013219D09942EE
:10515000F2DC00299FD000274FF0030802E0AB8863
:10516000BB4230DD2B6801373344183658790228AA
:10517000F5D183F80580FFF73BF94020FFF744F9AC
:10518000EDE7C288624517D0012FE0DC062ADED8A1
:10519000FFF7E8FD2B685344A3F810900137A98866
:1051A000B94212DD0028BAD062B600283FF474AFCD
:1051B00002236FF002005FE700F11402D8E9010159
:1051C00000F07EFFEAE70020EEE70028C1D0EBE721
:1051D00018260020442E0020901300200023064AA9
:1051E0000649074810B4074C1360536023600860F9
:1051F0005DF8044B704700BF18260020C82400202B
:10520000E92B0000442E0020014B1868704700BFB6
:10521000C82400202DE9F04F2DED028B8FB00490B3
:10522000CDE9052172B6DFF8C0A2DAF8003001330B
:10523000CAF8003062B6AA4FD7F80090B9F1000F53
:1052400039D0BB88002B36D04FF0000802E0BB8875
:10525000434530D908F101081FFA88F808F1FF34F6
:10526000A4B204EB440309EBC302DE00107A10F091
:105270000205ECD151790329E9D1D288049B9A42E5
:10528000E5D12146284600F017FC059B09900BB399
:105290003A68002A00F09881B988A14240F2D18092
:1052A0001644337B022B00F05D81099B002B40F0FC
:1052B0007D814145CED80023039372B6DAF80030E1
:1052C000013BCAF8003062B603980FB0BDEC028B08
:1052D000BDE8F08F3B68002B00F0AB80BA88A2429B
:1052E00040F2A78033440B931B7B022B00F02581F7
:1052F000059B0793012308930B9A1379002B00F069
:10530000D880099B0126CDF834809046B3FA83F308
:10531000CDF830900A945B095B4208EE103A002306
:10532000039306F1FF3BD8F8004000F0AFFC079B69
:105330005FFA8BF58146AB46C5EBC50504EB8504EA
:10534000AD00002B40F0C580D8F800302B449A689F
:10535000B8F80E3002FB03F398F80820581CBBF194
:10536000000F02D1D10648BF581D0121206100F075
:1053700093FCD8F8143001465A1C00F0CE80184631
:1053800000F0D0FEE060002800F0B080D8F80030D7
:10539000484400222B4460619A61586998F80B10C8
:1053A0000246594402F8011BBBF1000F0BD198F8DB
:1053B0000810C90607D50699C0F801109969C3F805
:1053C00018B004310A445A61E368002B4BD0454BB6
:1053D000B8F806201B889A424ED022796369002AC9
:1053E00049D000252A4611E00A68104214BF012264
:1053F00000221A70A16901359BF801200A4400219E
:105400001344A161EAB22179914234D9216801EBB8
:10541000C20B11F832200121FF2A01FA02F0DBF859
:105420000410E1D118469BF8012001F02BFA034645
:10543000E0E7099B002B40F0D0804FF0FF3303934F
:105440003BE7099B002BF8D04FF0FF330393214635
:10545000002000F033FBBB8843457FF62EAF002DC4
:105460007FF4F8AE29E798F80430B34240F2A28006
:105470000136F6B255E76361089B002BF3D001219A
:10548000206900F009FC034618EE100AD4E9032154
:10549000CDE900910A9900F013FB039000283FD159
:1054A00098F80430B342E3D8DDF830900A9CDDF878
:1054B00034800023012503930B98038AC2890133AA
:1054C000B3FBF2F102FB11330382099B002BC2D024
:1054D000BDE7B8F81030002B3FF436AF74E700BFDB
:1054E0001826002090130020442E00206FF009039E
:1054F000DDF830900A9CDDF8348003930B98038A22
:10550000C2890133B3FBF2F102FB11330382099B21
:10551000002B3FF4D2AE002599E700F08FFC31E775
:10552000E06800F0B7FC98F80430B342A0D8DDF88A
:1055300030900A9CDDF83480E0E70B99284BCA884C
:105540001B889A423FF4D4AE012C3FF6D1AE0B8AB1
:10555000CA8901339B1AB3FA83F35B0908930123C9
:105560000793C9E61E4BF2881B889A423FF49DAE12
:10557000012C3FF69AAE338A002B3FF496AE337976
:105580006BB14FF0000B5D46336801355B440BF1A6
:105590001C0BD86800F07EFC33799D42F4DB4FF0A1
:1055A00000033382099B002B3FF451AE00230125F9
:1055B00003934CE7039BDDF83090B3FA83F50A9C24
:1055C000DDF834806D0977E7134600283FF435AFE6
:1055D0001D464FF0FF33039339E7059D34E700BFC5
:1055E000901300202DE9F04F574F89B03B68002BF6
:1055F00000F09A8072B6554B1D68002D40F08D80EA
:10560000B7F804B0D7F800A0BBF1000F7FD00AF1C3
:10561000050253462C46A94603920AF11002049251
:1056200005E001340635A4B2A34571D03B6803EB15
:1056300085031A7B022AF4D1DA88454B1B889A42EB
:10564000EFD0012CEDD8039B13F82530032BE8D1C4
:10565000049B33F82530002BE3D02146002000F0D6
:105660002BFA0AF10403B0FA80F013F82520400960
:1056700006934142002A61D04B46CDF81CB0A146AA
:105680004FF000088B461C4608E0069B13F82520C7
:1056900008F101081FFA88F39A424AD9C8EBC806F4
:1056A0005AF82530012103EB8603B600D86800289C
:1056B000EED0186900F0F0FA059000F0E7FA5AF819
:1056C00025200446002102EB060CDCF80C200244E5
:1056D000DCE904C0821AACEB020204F02DFA5AF89D
:1056E0002520059B494602EB060C5846DCE903E2FF
:1056F000CDE90042724600F0E3F904460028C4D028
:105700005AF825303344D86800F0C4FBBDE7D946C9
:1057100062B6484609B0BDE8F08F62B66FF0050981
:10572000484609B0BDE8F08F9946484609B0BDE843
:10573000F08F2346DDF81CB04C4699460023049AAE
:1057400022F825306DE700BF18260020442E0020E7
:105750009013002072B6044B1B68002B0CBF012075
:10576000002000D062B67047442E002062B6704719
:105770002DE9F84F364B1F68002F58D09E8872B61F
:10578000344A1568002D0CBF4FF001094FF0000995
:1057900044D14FF0FF3AC3E900552F4BC3F800A0A6
:1057A00062B600F093FA86B3BB46DFF8B08004E03F
:1057B00001350BF1180BAE4227D0BBF80630B8F814
:1057C00000209A422ED0012D01DC062B34D9DBF8C3
:1057D0000030002BECD09BF8041071B10024C4EB16
:1057E000C402013453F8220028B100F053FB9BF8A7
:1057F0000410DBF80030A142F1DC0135184600F05E
:1058000049FB0BF1180BAE42D7D1384600F042FBF2
:105810004020FEF701FE4846BDE8F88F62B64846D4
:10582000BDE8F88FDBF8140000F06EFCCFE74FF016
:1058300001094846BDE8F88FDBF81400431C02D18B
:10584000CBF814A0C3E700F0E7FBCBF814A0BEE749
:1058500018260020442E00206413002090130020FE
:1058600010B51446FFF784FF30B10120FEF7C0FDEC
:1058700001230020236010BD02236FF00A00F9E726
:1058800008B5FFF775FF024B00221A6008BD00BF84
:10589000C824002002220149FEF7D2BD38030020AF
:1058A00070B5441882B01546667800F00DFA0838D5
:1058B000864215D8E1786068FFF742F8A0B16278B7
:1058C0000192FFF737F8019A04F1080100F0DAFFBE
:1058D0006078FFF741F8012300202B6002B070BD13
:1058E00002236FF00100F8E702236FF00B00F4E7EA
:1058F000F0B5441883B01546FFF71CF867780646E4
:1059000000F0E2F99FB1831E9F4210D8AEB16278D9
:105910000192FFF70FF8019AA11C00F0B3FF607825
:10592000FFF71AF8012300202B6003B0F0BD02231B
:105930006FF001002B6003B0F0BD02236FF00B008D
:10594000F2E700BF014B024A1A607047CC240020E6
:1059500015390000014B1868704700BFCC240020A7
:10596000704700BF0023C0E9003070474368002241
:105970000A6019604160704703680B6013B11B68CF
:10598000036003B170474060704700BF03680B605D
:105990000BB1016070474160016070470023C0E9AE
:1059A0000030704710B5002382B0019372B60E4CE0
:1059B000204601A9FFF7E0FF019820B100F06AFA44
:1059C000019B002BF4D1094C03E000F063FA019B2A
:1059D00033B1204601A9FFF7CFFF01980028F4D189
:1059E00062B602B010BD00BFD4250020DC25002027
:1059F00010B5002382B0019372B6084C03E000F0AA
:105A000049FA019B33B1204601A9FFF7B5FF019880
:105A10000028F4D162B602B010BD00BFEC24002013
:105A20002DE9F0411F4F3B7823B16FF00B04204666
:105A3000BDE8F08105461C480E46FFF793FF1B4862
:105A4000FFF790FF1A48FFF78DFF00F089F9044631
:105A50000028ECD100F026FE804600F023FE8045B1
:105A60001ED808F1080800F015FE804400F014FE6E
:105A70004044DFF840800221424600F037FA0446F5
:105A80000028D4D1D8F8000000F01CFE314628468A
:105A900000F0AEFC04460028C9D101233B70C6E7E4
:105AA0002046E6E7612E0020D4250020DC250020DA
:105AB000EC24002084130020012070470020704750
:105AC0002DE9F0411D4682B00023089E0193431C3E
:105AD000DDF82480022B29D814463AB3074600F09B
:105AE000D9FD0830B04221D1B8F1000F1ED0464494
:105AF000AE421BD8104B1B78DBB172B6A5F1080182
:105B0000434601AA04F1080000F054FD054620B107
:105B100062B6284602B0BDE8F081019B21460748E5
:105B2000636000EBC700FFF721FFF1E74FF0FF359F
:105B3000EFE76FF00805ECE7612E0020D425002088
:105B4000194B70B5002582B01B7801954BB372B626
:105B5000164E01A906F10800FFF70EFF62B6019884
:105B600098B101254268082100F05EFC044610B996
:105B7000204602B070BD72B6019906EBC500FFF772
:105B800005FF62B6204602B070BD72B601A930466C
:105B9000FFF7F2FE62B601980028E3D16FF001042E
:105BA000E6E76FF00804E3E7612E0020D42500202B
:105BB000104A002310B582B01278CDE90033AAB1A3
:105BC0006A46082101A800F093FC044610B1204663
:105BD00002B010BDDDE900235A6072B60648019993
:105BE000FFF7C4FE62B6204602B010BD6FF0080495
:105BF000EDE700BF612E0020EC240020F0B583B05B
:105C00001C46089F002F18BF002B4FF000030CBF4D
:105C10004FF0010C4FF0000C0193002A08BF4CF02C
:105C2000010C002908BF4CF0010CBCF1000F1FD182
:105C3000F0B9144B1B78F3B115460E4672B61248F4
:105C400001A9FFF799FE62B60198B8B13A464168DA
:105C5000083000F0C9FC019B074633605B680833DD
:105C60002B6000F017FD08302060384603B0F0BD0F
:105C70004FF0FF37F9E76FF00807F6E76FF001071D
:105C8000F3E700BF612E0020EC24002008B500F0EF
:105C900001FD083008BD00BF10B5044629B900F069
:105CA00001FDA04205D2002010BD00F0F7FCA0428B
:105CB000F9D3083400F0EEFC044400F0EDFC20447D
:105CC00010BD00BF00F0EABC00F0ECBC10B500F065
:105CD000EBFC044618B9FFF765FEFFF789FE204686
:105CE00010BD00BF10B500F0DFFC044608B9FFF797
:105CF00059FE204610BD00BF014B1868704700BF19
:105D00008413002038B5114D2C780CB9204638BDCD
:105D100000F0DEFC04460028F8D1FFF743FEFFF751
:105D200067FE0B4B186800F077F900F033FA044671
:105D30000028EBD10748FFF731FE0748FFF72EFE9A
:105D40000648FFF72BFE2C70E0E700BF612E002015
:105D500084130020D4250020DC250020EC24002022
:105D60002D4B03222DE9F04F23F00308DFF8C8B0D4
:105D70002A4B83B059462A4E1846019300F014FB73
:105D8000019B37464FF0000A1A464FF0FF09434681
:105D9000904658F8042B5BF8045B141DFA603B60D6
:105DA00005FB04F2C7E901553A61BBB11846002171
:105DB00003F0C2FE034685B102460021C0F804A0EC
:105DC00080F8009004E0C2F804A000F8049042605B
:105DD0000131104622448D42F5D13A691344114AEB
:105DE00014379345D5D140F2D95200210E4803F023
:105DF000A3FE0E4900230E4A0B60F363C6E910337D
:105E0000C6E9123314369642F7D10A4A0020C2E995
:105E1000003303B0BDE8F08F2B2600209C13002038
:105E2000D0270020B413002048280020242E002072
:105E30000C28002020260020A813002020B330B416
:105E400072B612490023124C0A4654F8045B5FFAFA
:105E500083FCA84201D8556835B901331432032BAD
:105E6000F3D162B600200DE003EB83039B00C8581A
:105E70000028F6D04268013DCA5019444D6000F830
:105E800004CB62B630BC7047704700BFD0270020FB
:105E90009C130020F0B110F8043C021F062B1AD00E
:105EA000052B17D810B472B603EB83030D4CFF21FA
:105EB0004FEA830C00F8041C04EB830354F80C1025
:105EC0000160596844F80C200131596062B65DF8F0
:105ED000044B70477047044B5B68002BFAD01046A8
:105EE000184700BFD027002020260020002918BF17
:105EF000002800F087802DE9F04F914683B0002AFA
:105F000058D003308846414C20F0030124F00304AC
:105F100001F1040A08FB0AF272B6DFF8F4C00323A9
:105F20006046C66B1F46C56C01338EB1062B00F16F
:105F300014002C44F5D14FF0FF3762B67B1C14BF20
:105F400000206FF00900C9F8007003B0BDE8F08FC1
:105F50000DB39542EAD307EB87034CF823400CEBD3
:105F6000830CCCE90281CCF80480002CE5D03146CA
:105F7000204603F0E1FDFF22234631466660227091
:105F800004E0616003F80A205C6053440136544425
:105F9000B045F6D8D1E7DFF87CB040F2D653DBF855
:105FA00000609B1B934208D262B64FF0FF376FF040
:105FB0000900C8E74FF0FF30C7E707EB87034CF84D
:105FC00023400CEB8303C3E90281C3F804801A6108
:105FD000A4B129462046019203F0AEFDFF212346DD
:105FE0002846019A6560217004E0606003F80A1099
:105FF0005C60534401355444A845F6D81644CBF8A8
:1060000000609AE74FF0FF30704700BF4B28002038
:10601000D0270020242E0020C31E022B48D870B4A5
:1060200072B6052821D0052323491A4604E0DCF87E
:10603000104064B9834219DD02EB8202013B51F842
:106040002240DBB201EB820C1A46002CEFD000EBB1
:106050008000002301EB8002800093600B505360AE
:10606000D36062B6002070BC7047134900EB80001B
:106070000022124D01EB80040F4B80002E68A260BD
:106080000A5003F13C006260E260D96B49B11433FD
:106090009842FAD1002AE4D02E6062B6002070BC8B
:1060A0007047DC6C002CF2D0361B0122D964EEE77D
:1060B0004FF0FF30704700BFD0270020242E002073
:1060C000002918BF002819D0C2B110B472B60D4C07
:1060D00023680BB9636843B162B64FF0FF316FF0CC
:1060E00009005DF8044B11607047C4E9000162B615
:1060F000062118465DF8044B116070474FF0FF30E1
:10610000704700BF20260020062806D172B6044B37
:106110000020C3E9000062B670474FF0FF307047BF
:106120002026002081B3062838B5044621D0C31E9E
:10613000022B1CD800EB8003144A4FEA830C02EBBD
:10614000830352F80C0090B1D86888420FD372B61E
:10615000596859B152F80C0040B14568013942F80C
:106160000C50596000F8044B62B638BD62B600208E
:1061700038BD074B1B68002BF9D0081D9847002835
:10618000F5D000F8044B38BD00207047D027002020
:1061900020260020002140F2A7120B4810B50C4623
:1061A00003F0CAFC40F2D9520848214603F0C4FC6F
:1061B000074B7822214607481C6003F0BDFC064BC4
:1061C0002046C3E9004410BD2826002048280020AE
:1061D000242E0020D02700202026002038B5094C8E
:1061E00025686B1C06D100F04DFE0028206004DB02
:1061F000002038BD6FF00B0038BD6FF00B0025603C
:1062000038BD00BF241100200128034603D8034AEB
:106210000020137070474FF0FF3070475F2E002052
:106220002DE9F04F002383B00193002943D0B0FA49
:1062300080F806464FEA581800283CD0214F3868AD
:10624000431C3BD00D46DFF88090DFF880A0444629
:106250002A1B311901AB00F025FE00BB019B53EA5C
:1062600004021C440DD0A54294BF4FF0010B4FF027
:10627000000B0BD8BBF1000F0FD0002003B0BDE81E
:10628000F08F9AF800309BB114469346C84509D95F
:106290006FF00E0003B0BDE8F08F3868D8E76FF0FC
:1062A0000B00EBE7002008F10A0801F097F9E1E79D
:1062B0006FF00500E2E74FF0FF30DFE76FF0080016
:1062C000DCE700BF241100207F841E005F2E002029
:1062D0002DE9F04F002383B00193002943D0B0FA99
:1062E00080F806464FEA581800283CD0214F3868FD
:1062F000431C3BD00D46DFF88090DFF880A0444679
:106300002A1B311901AB00F0D7FD00BB019B53EAFA
:1063100004021C440DD0A54294BF4FF0010B4FF076
:10632000000B0BD8BBF1000F0FD0002003B0BDE86D
:10633000F08F9AF800309BB114469346C84509D9AE
:106340006FF00D0003B0BDE8F08F3868D8E76FF04C
:106350000B00EBE7002008F10A0801F03FF9E1E744
:106360006FF00100E2E74FF0FF30DFE76FF0080069
:10637000DCE700BF241100203F420F005F2E002009
:1063800010B5084C2068431C06D000F0C5FD28B9A4
:106390004FF0FF33236010BD002010BD6FF00B00E5
:1063A00010BD00BF2411002002B3F0B5A0F1040E0F
:1063B0000EEB820E012A18D08C46034601261D469C
:1063C00053F8044B6D68A54209D2DCF80050002652
:1063D000DCF80470CCE900751D6843E901549E4562
:1063E0000CF1040CEBD1002EE4D0F0BD704700BFDF
:1063F00010B5094C23785BB9FFF7F0FE38B9074BAD
:106400000749084A1880012308801060237010BDD6
:106410006FF00B0010BD00BF622E00204C2E00203C
:10642000502E002088240020052A2DE9F84354D955
:10643000B0FA80F304465B0900284ED02A48007861
:1064400000284DD034F801806718B8F1000F41D012
:1064500008F1060191423DD8244D4FF6FC7208F137
:10646000040C2988904507EB0C06798008D017FAB0
:106470008CF03A4612F8011B0B4482429BB2F9D1D0
:106480000421384627F80C30FFF7CAFE814610B1C8
:106490004846BDE8F8830120FFF7B6FE4146381DA7
:1064A000FFF7BEFE814628B902213046FFF7B8FE4D
:1064B000814628B10020FFF7A7FE4846BDE8F883D3
:1064C0002046FFF7E7FC2B88002001332B80FFF7E5
:1064D0009BFEF2E76FF00609DAE74FF0FF39D7E7E6
:1064E0006FF00809D4E700BF622E0020502E002074
:1064F0002DE9F04782B0002852D01746002A4FD02D
:106500002A4B1B78002B45D00C46042106460DEB88
:106510000100FFF7DDFE054660BBBDF804A0BAF13F
:10652000000F3AD0224B0AF10609186804EB090162
:10653000FFF7F8FD8046B0B32946224603F0FCFA87
:10654000019B012048F804304444FFF75DFE5146AA
:1065500004342046FFF7BCFE80B904EB0A00022198
:10656000FFF7B6FE054648B9FFF74EFEC6F80080B5
:10657000C7F80090284602B0BDE8F08700206FF011
:106580000605FFF741FE0023404633603B60FFF7FE
:1065900081FCEFE76FF00805ECE76FF00605E9E72F
:1065A0004FF0FF35E6E76FF00905E3E7622E0020C4
:1065B00088130020002B18BF002A0ED0B0FA80FCF0
:1065C0004FEA5C1C48B110B49C1D8C4208D8038073
:1065D000604614605DF8044B70474FF0FF30704721
:1065E0004FF0FF30F6E700BF002A18BF042947D953
:1065F00070B50446002837D0234B1B78002B3CD0C5
:1066000005884388A81D1FFA83FC884232D11F49A0
:10661000086800B31E490888844520D901308445A4
:10662000D4BF00206FF004000B806319B3F804E0BE
:106630004FF6FC739D4215D005F1040C002314FAAB
:106640008CFC14F8011B0B4464459BB2F9D19E45A8
:106650000DD1156070BD01260E600D49E4E76FF0A5
:106660000300E1E70023F2E74FF0FF3070BD6FF069
:106670000C0070BD6FF0060070BD6FF0080070BDBB
:106680004FF0FF30704700BF622E002088240020AA
:106690004C2E002004207047022070474FF6FC70FB
:1066A000704700BFFF20704700200349034A044B96
:1066B0000880108018607047502E00204C2E00205B
:1066C00088240020014B1860704700BF8813002009
:1066D00010B5084C207800B910BDFFF751FE002816
:1066E000FAD10549054A064B2070088010801860D1
:1066F00010BD00BF622E0020502E00204C2E002026
:106700008824002018B111B1002303600B6070478A
:1067100018B111B1002303600B60704700224FF4E1
:106720001651104600F004B808B500F02BFBFEE748
:106730002DE9F0430023DFF8448183B0C8F800302E
:10674000082814D8DFE800F02248525C66707A0509
:106750001600802300223E480191C8F8003002F064
:106760001DFBD8F80030019913F4807F03D003B0EB
:10677000BDE8F083002343F4807300223548C8F855
:10678000003003B0BDE8F04302F008BB0123324DF6
:10679000324CC8F8003040F2EE28314F2E68DFF856
:1067A000E09004E0B3F5FA6FE1D802F0A5FF02F043
:1067B000A3FF237843B13B78DB0705D52B68D9F8D5
:1067C00000209B1A0E2BD2D82B6822789B1B002A04
:1067D000E8D14345E9D9CAE7022300222148C8F895
:1067E000003003B0BDE8F04302F0D8BA0423002221
:1067F0001D48C8F8003003B0BDE8F04302F0CEBA3F
:10680000082300221948C8F8003003B0BDE8F0435F
:1068100002F0C4BA102300221548C8F8003003B0B3
:10682000BDE8F04302F0BABA202300221148C8F8AC
:10683000003003B0BDE8F04302F0B0BA40230022BC
:106840000D48C8F8003003B0BDE8F04302F0A6BA26
:10685000A01E0020001F0020CC2500206D2E00204F
:106860006C2E0020601C0020C01C0020201D002079
:10687000801D0020E01D0020401E0020202300205D
:10688000EC250020844641EA000313F003036DD198
:10689000403A41D351F8043B40F8043B51F8043BE3
:1068A00040F8043B51F8043B40F8043B51F8043BEA
:1068B00040F8043B51F8043B40F8043B51F8043BDA
:1068C00040F8043B51F8043B40F8043B51F8043BCA
:1068D00040F8043B51F8043B40F8043B51F8043BBA
:1068E00040F8043B51F8043B40F8043B51F8043BAA
:1068F00040F8043B51F8043B40F8043B51F8043B9A
:1069000040F8043B51F8043B40F8043B51F8043B89
:1069100040F8043B403ABDD2303211D351F8043B29
:1069200040F8043B51F8043B40F8043B51F8043B69
:1069300040F8043B51F8043B40F8043B103AEDD2D8
:106940000C3205D351F8043B40F8043B043AF9D229
:10695000043208D0D2071CBF11F8013B00F8013BFC
:1069600001D30B8803806046704700BF082A13D309
:106970008B078DD010F003038AD0C3F10403D21A21
:10698000DB071CBF11F8013B00F8013B80D331F855
:10699000023B20F8023B7BE7043AD9D3013A11F8D5
:1069A000013B00F8013BF9D20B7803704B78437040
:1069B0008B7883706046704772B6EFF305834F4C57
:1069C000C4F88430EFF308824FF0E0234C4E4D4D75
:1069D000D3F8280DD3F82C1DC4E92201D3F8341DB7
:1069E000D3F8383DC4E924139369C4F89830D369C7
:1069F000C4F89C3001F026F984ED280A01F0A6F8CD
:106A00000B214FF0FF32C4F8A4000B46C4F88010ED
:106A10003D49301D5A40202402F00103013C01FB96
:106A200003F383EA5202F7D1A84202D07368064604
:106A3000EFE7324BC3F8A820BFF34F8F4FF0E023AE
:106A40002F49324AC3F8701FC3F8702FBFF34F8F1E
:106A5000BFF36F8F2E4A02252E48D36E2E4943F482
:106A60004053D3660560D3692C4823F07F0343F07D
:106A70004003D3610B6883423DD8264D00214FF07F
:106A8000E0234FF0FF3229600126C5F808112449A0
:106A9000C5F80011C5F80861C3F88021C3F8842146
:106AA000C3F88821C3F88C21C3F8902101E001F0DC
:106AB000BBF9D5F80C31002BF9D00134C5F80C61C5
:106AC0004F2CF4D9174B022017494FF00042C1F860
:106AD00040015A63D5F80C313BB9144814490D4AAA
:106AE0000163D2F80C31002BFAD04FF0E023114AA9
:106AF000C3F80C2DFEE700F0F9FBBEE700FF2720EE
:106B000080FF2720A8FF27202083B8EDA0FF2720A3
:106B100000C00F40004008404C0E0020803DCD0BCF
:106B2000009F240000900D4000002E4000800F4088
:106B3000F100AD0B0400FA05704700BF362852D8AB
:106B40000001F0B4314C324D2358AB4250D043D801
:106B5000B3F1844F45D0A5F58045AB423AD12D4DD8
:106B600004442D4E2D486768C0F8B462E0684FF0C9
:106B7000E0244FF00056042AC4F810612AD85C695A
:106B800024EA00045C614FF005043C605C6824EA80
:106B900000045C60224C54F8224090FAA0F2B2FA51
:106BA00082F245F822106FEA00011DD0DD690F2A3C
:106BB00001EA0501D9611DDC52000325D968944022
:106BC00005FA02F221EA02022243DA6098615A6968
:106BD00002435A61F0BC7047124DAB42FAD1124DDC
:106BE000BEE7124DBCE77047DA690243DA61EDE7B0
:106BF0000F4DB5E7103A032519695200944005FA84
:106C000002F221EA020222431A61DFE7EC030020CC
:106C100000800042A8110020210000000014002084
:106C20009402002000C00042A81200202811002079
:106C300028120020002805DA044B00F00F00C05C89
