:0200000460009A
:100000004643464200000156000000000103030081
:1000100000000000000000000000000000000000E0
:1000200000000000000000000000000000000000D0
:1000300000000000000000000000000000000000C0
:1000400000000000010408000000000000000000A3
:100050000000800000000000000000000000000020
:100060000000000000000000000000000000000090
:100070000000000000000000000000000000000080
:10008000EB04180A063204260000000000000000FD
:10009000050404240000000000000000000000002F
:1000A0000000000000000000000000000000000050
:1000B0000604000000000000000000000000000036
:1000C0000000000000000000000000000000000030
:1000D00020041808000000000000000000000000DC
:1000E0000000000000000000000000000000000010
:1000F0000000000000000000000000000000000000
:10010000D8041808000000000000000000000000F3
:100110000204180804200000000000000000000095
:1001200000000000000000000000000000000000CF
:10013000600400000000000000000000000000005B
:1001400000000000000000000000000000000000AF
:10015000000000000000000000000000000000009F
:10016000000000000000000000000000000000008F
:10017000000000000000000000000000000000007F
:10018000000000000000000000000000000000006F
:10019000000000000000000000000000000000005F
:1001A000000000000000000000000000000000004F
:1001B000000000000000000000000000000000003F
:1001C000000100000010000001000000000000001D
:1001D000000001000000000000000000000000001E
:1001E000000000000000000000000000000000000F
:1001F00000000000000000000000000000000000FF
:10020000FFFFFFFFFFFFFFFFFFFFFFFFFFFFFFFFFE
:10021000FFFFFFFFFFFFFFFFFFFFFFFFFFFFFFFFEE
:10100000D100204325160060000000000000000011
:10101000201000600010006000BC006000000000B4
:101020000000006000C8000000000000FFFFFFFF9C
:10103000FFFFFFFFFFFFFFFFFFFFFFFFFFFFFFFFC0
:10104000FFFFFFFFFFFFFFFFFFFFFFFFFFFFFFFFB0
:10105000FFFFFFFFFFFFFFFFFFFFFFFFFFFFFFFFA0
:10106000FFFFFFFFFFFFFFFFFFFFFFFFFFFFFFFF90
:10140000884207D0904205D251F8043B40F8043B93
:101410008242F9D8704700BF884204D2002340F8C6
:10142000043B8142FBD870472DE9884800F012F94F
:101430000824614B614AC3F8544161496148FFF790
:10144000DFFF614A61496248FFF7DAFF614962489C
:10145000FFF7E2FF614C4FF0E0214FF470000023F2
:101460005F4AC1F8880D44F823200133B02BFAD12C
:101470005C4B80215C4A03F8011B9342FBD14FF087
:10148000E0254D4E4FF08039DFF88CB1DFF88CA1AC
:101490004FF0FF31C5F8084D0027C6F80491C6F893
:1014A00000B1C6F8F490C6F8F0A0D5F8243DDFF8F6
:1014B000708143F4E0234D4AC5F8243DD8F81C3030
:1014C00023F07F0343F04003C8F81C30D8F82430E1
:1014D00023F07F0343F04003C8F824309166D166BF
:1014E0001167516700F0BEF8414B4249A363424B7C
:1014F000E36363236B610323AF612B613F4BC5F84B
:10150000203DD5F8FC3D43F08073C5F8FC3D3C4BD5
:101510001A6842F001021A605B680B6000F0E0FAA2
:10152000C6F804913748C6F800B1C6F8F490C6F87A
:10153000F0A000F085FCD8F86C10334B334A41F42E
:101540004051C8F86C101F60C3F80871C3F81871D7
:10155000C3F82871C3F83871936BDB0708D442F6DF
:1015600015632B4951651365936B43F00103936336
:10157000264A284C936843F00113936000F0EEF87C
:1015800000F0DCFA00F044FC00F002FB00F064F82C
:101590002368132BFCD900F093FB2368B3F5967FE7
:1015A000FBD300F05DF800F059F800F02DFC00F0DE
:1015B0003FFC30BFFDE700BF00800D40707F0000A2
:1015C000801F006000000000C01A0020F49E006030
:1015D0000000002020330020C01A00200018002046
:1015E000454D000000E400E0A0E400E000C00A4037
:1015F000DD790000A42B0020E1790000000020200C
:10160000001000E00046C3230040084000400D40A9
:101610000000C056A82B00201B1018200C0D111321
:1016200000C00F40074B4FF42A01074A07485A648D
:101630001864074A99639546BFF34F8FBFF36F8FC6
:10164000FFF7F2FE00C00A40ABAAAAAA07002000DA
:1016500000800720704700BF704700BF704700BF81
:1016600000BF704710B44FF0E023002110242B4836
:10167000C3F8941DC3F89C4D1124C3F8A00D28484D
:10168000C3F89C4D1224C3F8A00D2648C3F89C4D06
:10169000254AC3F8A00D254C42F015022448C3F892
:1016A0009C4DC3F8A00D234C2348C3F89C4DC3F8B0
:1016B000A00D224CC3F89C2D2148224AC3F8A04D0E
:1016C000C3F89C0DC3F8A02D02F5A0221E4C0C32CD
:1016D0001E48C3F89C4DC3F8A02D1D4AC3F89C0DAD
:1016E0001C4CC3F8A02D01221B48C3F89C4DC3F825
:1016F000A00DC3F8942DBFF34F8FBFF36F8FC3F8C6
:10170000501FBFF34F8FBFF36F8FD3F8142D5DF8C9
:10171000044B42F44032C3F8142D70473F000010D0
:1017200025000803090010002033002013002000CA
:1017300021000207140000202500081309000010F2
:101740001600202027000B1317000040180000602F
:101750002F000B07190000702F000B13F0B5B84BCA
:101760001822B84E0120B84F83B0C3F85C62B74965
:10177000C3F86072B64DC3F86462A6F53046B54C46
:10178000C3F86862C3F86C52C3F87052C3F874525D
:10179000C3F8785248F20C75DA661A675A679A6786
:1017A000DA67C3F88020C3F88420C3F88820C1F822
:1017B0002C03A94AC1F83003C1F83403C1F8380337
:1017C000C1F83C03C1F85003A169A44B0A40A448E6
:1017D000A4491343A44AA361D4F8843043F00C0312
:1017E000C4F884304FF0FF34036843F00203036011
:1017F00003682B404FF400551A439C4B0260446031
:101800008A689B4C13409B4A43F000538360C36833
:1018100023F07803C360036A134023430362036A1F
:101820001340954A2343954C43628262C262002270
:10183000D1F8B83023F03F0343F00103C0F8B830CB
:10184000D1F8BC308E4923F03F0343F00103C0F8C8
:10185000BC3040F20563026105660467C0F8803061
:10186000456644670224C0F88430036823F002030D
:1018700003608161834B8449C46143F8042B8B422C
:10188000FBD1774A136843F001031360136813F028
:101890000103FBD17A48022140F2F564906140F2E5
:1018A0009940D16140F26641C2F8004242F20144DF
:1018B000C2F810127549C2F82002C2F8301240F284
:1018C00035417348C2F83442C2F84012714CC2F834
:1018D000500242F201207049C2F854120121C2F8AC
:1018E0006042C2F864025E48C2F8A030C2F8A43078
:1018F000C2F8B0104369DA07FCD5012300244FF485
:10190000803257494361C0F8A040C0F8A420C0F815
:10191000B0304B69DB07FCD5012300244FF40030C5
:101920004F4A4B61C1F8A040C1F8A400C1F8B030E3
:101930005369DF07FCD50123002458484849536107
:10194000C2F8A040C2F8A400C2F8B0304B69DE076C
:10195000FCD5D1F8003145F60D5221209BB24861EB
:10196000934265D100244FF4802201233C48C1F802
:10197000A040C1F8A420C1F8B0304369DD07FCD510
:1019800001234FF400040021354A4361C0F8A04010
:10199000C0F8A410C0F8B0305369DC07FCD50123AF
:1019A0004FF400044FF480302D495361C2F8A04039
:1019B000C2F8A400C2F8B0304B69D807FCD50123A7
:1019C0004FF400044FF40030254A4B61C1F8A040A9
:1019D000C1F8A400C1F8B0305369D907FCD5012380
:1019E0004FF400042D481E495361C2F8A040C2F8CC
:1019F000A400C2F8B0304B69DA07FCD5D1F8003149
:101A000045F60D5221209BB24861934250D00825E3
:101A10004FF4000422490020224B234A0090157005
:101A20005A1A01232148224400F0FEF903B0F0BD08
:101A30001E4B0022C3E90022C3E9022203B0F0BD1D
:101A400000801F40F9B00100F910010000841F4020
:101A5000F970010000C00F40FFFCFF1F000300A051
:101A600000402A4000802A401200FFFFFF37F700A5
:101A70004000008000FFF07CFF000F836300020045
:101A8000F05AF05A00422A4000432A409F0418307E
:101A9000EB06180A3806180A06320126040003006D
:101AA0000000007000000070BE320020582A0020A4
:101AB0004FF400044FF4802201230848C1F8A040ED
:101AC000C1F8A420C1F8B0304369DB07FCD501237D
:101AD00010254FF0807443619CE700BF00402A400E
:101AE000F0B4154A40274FF480314FF480564FF43C
:101AF00000554FF4404443F24200136913F0020FC3
:101B00000ED113F4005F0FD013F4805F0ED0002BC2
:101B1000F3DA13F4803F0BD15B060BD5F0BC7047B2
:101B2000946151619061E8E75561E6E75661E4E749
:101B30009161E2E75761E0E700800D40104BA02083
:101B4000104AD96E41F4403110B4D96640F237647E
:101B5000D96E41F44071D96654649064936C1B064D
:101B6000FCD4094A40F23761A02351649364936C1A
:101B700013F08003FBD1054A13705DF8044B7047E6
:101B800000C00F4000400C4000800C40BD320020DF
:101B90003F4A03203F49F3EE095AD2F880304FF014
:101BA000000C9FED3D6A23F001039FED3C5A30B4D9
:101BB000C2F88030C2F89000D1F8E010384DCBB2B6
:101BC000384C39482B6007EE903A0B0DC1F30B21CE
:101BD000F8EEE77A06EE903A07EE101A334BB8EEBD
:101BE000C77A2160F8EEE66A314937EEC66A37EE09
:101BF000C55A76EEC76A77EEE57A26EE266AC3ED19
:101C0000006A25EE265AD2F8803067EEA64AC0ED6B
:101C1000007AC6EE275A274885EE276AC4EEA76ADF
:101C200075EE875AFCEEE55A36EE076A15EE904AD5
:101C3000BCEEC66A43EA045376EE877AC2F8803077
:101C400016EE103AD2F89041FCEEE77A01EA034131
:101C5000214317EE903AC2F89011C3F30B03D2F868
:101C600090110B431449C2F89031D2F8803043F000
:101C70000203C2F88030114B80F840C0C1F84031F7
:101C80004FF0E023012230BCC3F80821704700BFA9
:101C900000810D4000441F400000AA420000B442F1
:101CA000082B0020042B00200C2B0020102B0020E0
:101CB0000000FF0F00E400E000180020695F000052
:101CC000314B40F6617210B5C3F8202140F2044454
:101CD00000F0B2F82D4A2E49D2F880302D4843F05A
:101CE0000303C2F880302C4BC1F8604102681A42ED
:101CF00003D1D1F8A8319A071BD0254A4FF00041F3
:101D0000244B5963D2F8403143F00203C2F840310A
:101D1000D2F840319B07FBD44FF400304FF0E02164
:101D20001C4B4FF00042C1F88C0219209A6300F05E
:101D300077F8184A4FF08040154C002190630A2034
:101D4000164B11604FF42072C4F8A801184600F039
:101D500063F84FF4800203464FF4810040F24311D0
:101D60001860C4F858311A640D4B0E4AC4F8481173
:101D7000C3F804224FF0E0224FF400310123C2F8EF
:101D80000C11C4F8403110BD00800D4000C00F4060
:101D900000002E4000900D40001C1E00000000209E
:101DA000001800205161000008B50E4B1B6E9B0708
:101DB00000D4FBBE72B60C4B00200C4AC3F84001A5
:101DC00003F160430A49A3F55F2311649D46BFF305
:101DD0004F8F4FF400130748074ADB6902609B6886
:101DE000984700BF00441F4000002E4000C00A403A
:101DF0000300200000802020000012EBF8B500BF97
:101E0000F8BC08BC9E4670475FF800F0117F0000E8
:101E10005FF800F0815D00005FF800F0617E000077
:101E20005FF800F0055900005FF800F0E55E000083
:101E30005FF800F0915300005FF800F0C168000007
:101E40005FF800F0155600000101000089750000E0
:101E5000097600008D76000011770000957700006C
:0C1E6000197800009D7800002179000036
:101E6C001603550053004200200053006500720019
:101E7C00690061006C0000001803540065006500E7
:101E8C006E00730079006400750069006E006F00CD
:101E9C000403090409026200030100C032080B00AC
:101EAC0002020201000904000001020201000524E3
:101EBC00001001052401010104240206052406007A
:101ECC00010705820310001009040100020A00003A
:101EDC0000070503024000000705840240000009CA
:101EEC0004020002FF6AFF0007058102400001079F
:101EFC00050102400001000009026200030100C05C
:101F0C0032080B0002020201000904000001020267
:101F1C00010005240010010524010101042402061E
:101F2C0005240600010705820310000509040100C1
:101F3C00020A0000000705030200020007058402E4
:101F4C000002000904020002FF6AC70007058102B3
:101F5C000002010705010200020100000A0600024E
:101F6C00EF0201400100000000010101010101012B
:041F7C000100000060
:101F80000000000000000000000000000000000051
:101F90000000000000000000000000000000000041
:101FA000F8B54FF084439D695A6915400DD0244F10
:101FB00001269D6195FAA5F4B4FA84F457F824300B
:101FC00006FA04F49847A543F4D11E4B9D695A695B
:101FD00015400DD01C4F01269D6195FAA5F4B4FA69
:101FE00084F457F8243006FA04F49847A543F4D152
:101FF000164B9D695A6915400DD0154F01269D61FC
:1020000095FAA5F4B4FA84F457F8243006FA04F4E7
:102010009847A543F4D10F4B9D695A6915400DD0DF
:102020000D4F01269D6195FAA5F4B4FA84F457F892
:10203000243006FA04F49847A543F4D1F8BD00BF54
:10204000D8110020004000425812002000800042B9
:10205000D812002000C00042581300200548064B4B
:102060001B1AD90F01EBA301491002D0034B03B196
:1020700018477047C01A0020C01A00200000000056
:1020800008B5054B1BB105490548AFF30080BDE815
:102090000840FFF7E3BF00BF00000000842A0020D3
:1020A00000C8006011B1012918BF022105F03ABA39
:1020B00011B1012105F0FAB905F0F8B908B505F03C
:1020C0001FFAA0F10100B0FA80F0400908BD00BF7E
:1020D0000D284FF0000138B50446C5B210D805F1FF
:1020E0000E0005F00705C0B205F01CFA0123601CC4
:1020F000E408AB40DBB20E4A115D0B43135538BD0B
:10210000284605F0070505F00DFA0123621C04EBD3
:10211000030003FA05F3DBB207D1064991F8FF2F5C
:1021200022EA030381F8FF3F38BDC4F3CF04E2E79E
:102130003C2A00203C1A012010F0FF0010B50C468C
:1021400001D1208010BD0138C0B205F069F980B21C
:10215000208010BD10F0FF0000D17047013801232E
:10216000054900F00702C0F3C40093400A5CDBB2EB
:1021700022EA03030B5470473C2A00200122C0F3DB
:10218000CF0300F0070110B4064C8A40E35C134013
:1021900004D001305DF8044B80B2704718465DF8FA
:1021A000044B70473C2A0020B5EEC00B38B5F1EE69
:1021B00010FA0446C5B207DD104B0122B7EEC00B82
:1021C00028461A5505F026FD012305F00705621C77
:1021D00004EB030003FA05F3DBB206D0C4F3CF042B
:1021E000074A115D0B43135538BD064991F8FF2F7F
:1021F00022EA030381F8FF3F38BD00BF9828002082
:10220000342200203412012010F0FF000DD00138DC
:10221000064BC0B21B5C012B08BFB1EE400BFDEEBC
:10222000C07B17EE901A05F08FBC704798280020ED
:1022300010F0FF0000D1704701380123054900F07C
:102240000702C0F3C40093400A5CDBB222EA030336
:102250000B547047342200200122C0F3CF0300F05A
:10226000070110B4064C8A40E35C134004D00130EF
:102270005DF8044B80B2704718465DF8044B704718
:102280003422002000207047002934D0002832D0AA
:102290001A4AB8EE007B92ED006B38B5B4EE476B8E
:1022A000F1EE10FA22D0D2E90045C1E900454368B9
:1022B00013491C68134D144892ED007B0C60D968DB
:1022C000D3E90124114B2A60114A046011600022F5
:1022D0001A6001F0F5FE0F4B0F4AC3E9002201F02E
:1022E0003FFE10B90D4B01221A7038BDD1E90045EF
:1022F000C2E90045DBE74FF0FF307047F00E0020E9
:10230000883200208C320020903200209832002049
:1023100094320020E82B002099210000DA320020BE
:102320002DE9F04F2D4E0223DFF8B8A083B096F8C8
:10233000009005468AF800305FFA89F3019308B9E6
:1023400033787BB3337803F0FF0B002B3AD1244F63
:10235000002442F210780FE0BBF1000F37D105F0F6
:1023600091FAA54248462CBF4FF0000B4FF0010BED
:1023700001F01EFE337833B93B780A20444403F061
:10238000FF09002BE8D0BBF1000F4FF003030CBF97
:1023900000206FF063008AF80030019B5BB103B04E
:1023A000BDE8F08F0E4F3B78002BCBD1337873B95B
:1023B0004FF0010BCCE7019002F02EF9019803B029
:1023C000BDE8F08F032300208AF80030E5E70323FF
:1023D0006FF063008AF80030DFE700BFD9320020D9
:1023E000DB320020DA320020B5EEC00BF1EE10FA3D
:1023F00040D4FF2830B5044683B038D81F4B1A7834
:10240000032A0ED01A78012A0BD0012C0DD92046B0
:1024100001F082FD0146204603B0BDE8304002F0E5
:10242000D1BA0422012C1A70F1D8154D55F8243078
:10243000002BECD08DED000B02F0D0FA02289DEDC0
:10244000000BE4D155F8243020468DED000B984761
:10245000054620469DED000B01F05EFD0146002D76
:10246000D9D1204602F0D6FA284603B030BD4FF04D
:10247000FF30FAE74FF0FF30704700BFDA3200203C
:10248000E82B0020002001F093BD00BF70B50623AB
:10249000064E0025337001F0BBFD054B0446C3E931
:1024A000005502F057F82046357070BDDA32002032
:1024B000E82B0020014B1878704700BFDB3200206A
:1024C000014B1878704700BFD63200200000000092
:1024D00070B5334D334C95F88C3194F84920013B5D
:1024E000012B8CBF0023032385F88C31002A4AD0AE
:1024F000012A46D094F84A3004EB8302FF212720BA
:102500001346D26C84F848105B6DC4E91023FFF7C2
:10251000D5FD06462520FFF7D1FDB7EE007B8642AC
:1025200094ED115A4FF0FF331F49B8EE455B4FF061
:102530000402C5F8E0314FF002001C4B85F88C21F5
:1025400095ED766B9FED123B9FED134B0CBF36EE76
:10255000076B36EE476B94ED107AB8EE477B85ED4E
:10256000766BA5EE037B85ED486B81EDB06BBDE826
:10257000704027EE047BB0EE470B83ED007BFFF746
:1025800033BF0023B8E70123B6E700BFAFF30080F5
:10259000000000000000F0417B14AE47E17A543F98
:1025A00020200020581F0020901C0020801C0020AC
:1025B00070B5334D334C95F88B3194F86520013B61
:1025C000012B8CBF0023032385F88B31002A4CD0CC
:1025D000012A48D094F8663003F11A021C33FF2117
:1025E000192054F8222054F8233084F86410C4E9E8
:1025F0001723FFF763FD06461B20FFF75FFDB7EECD
:10260000007B864294ED185A4FF0FF331E49B8EE16
:10261000455B4FF00402C5F8D0314FF003001B4B6F
:1026200085F88B2195ED726B9FED113B9FED124B61
:102630000CBF36EE076B36EE476B94ED177AB8EEAB
:10264000477B85ED726BA5EE037B85ED4C6B81EDD1
:10265000AE6BBDE8704027EE047BB0EE470B83ED18
:10266000007BFFF7C1BE0023B6E70123B4E700BF3C
:10267000000000000000F0417B14AE47E17A543FB7
:1026800020200020581F0020901C0020801C0020CB
:1026900070B5334D334C95F88A3194F88120013B65
:1026A000012B8CBF0023032385F88A31002A4AD0EE
:1026B000012A46D094F8823004EB8302FF211D20CA
:1026C0001346D2F8842084F88010D3F88C30C4E903
:1026D0001E23FFF7F3FC06461F20FFF7EFFCB7EEC3
:1026E000007B864294ED1F5A4FF0FF334FF00400F9
:1026F000B8EE455B1C4AC5F8C0311C4B85F88A0111
:1027000095ED6E6B9FED123B9FED134B0CBF36EEBC
:10271000076B36EE476B94ED1E7AB8EE477B85ED7E
:102720006E6BA5EE037B85ED4E6B82EDAC6BBDE869
:10273000704027EE047BB0EE470B83ED007BFFF784
:1027400053BE0023B8E70123B6E700BFAFF3008014
:10275000000000000000F0417B14AE47E17A543FD6
:1027600020200020581F0020901C0020801C0020EA
:1027700070B5334D334C95F8893194F89D20013B69
:10278000012B8CBF0023032385F88931002A4CD00C
:10279000012A48D094F89E3003F128022A33FF2101
:1027A000232054F8222054F8233084F89C10C4E9E4
:1027B0002523FFF783FC06462120FFF77FFCB7EEB9
:1027C000007B864294ED265A4FF0FF331E49B8EE47
:1027D000455B4FF00402C5F8B0314FF005001B4BCC
:1027E00085F8892195ED6A6B9FED113B9FED124BAA
:1027F0000CBF36EE076B36EE476B94ED257AB8EEDC
:10280000477B85ED6A6BA5EE037B85ED4A6B81ED19
:10281000AA6BBDE8704027EE047BB0EE470B83ED5A
:10282000007BFFF7E1BD0023B6E70123B4E700BF5B
:10283000000000000000F0417B14AE47E17A543FF5
:1028400020200020581F0020901C0020801C002009
:10285000034BB3F8B230B3FA83F35B0943707047AC
:10286000581F0020000000009FED137BB0EEC06BEE
:10287000B4EEC76BF1EE10FA16D5B6EE007BB4EEEF
:10288000C70BF1EE10FA04DB30EE070BBBFE400B7A
:102890007047BEEE006BB4EEC60BF1EE10FA04DC2E
:1028A00030EE470BBAFE400B70479FED057B20EEE4
:1028B000070B7047AFF300800000000000003043BA
:1028C00000000000000000002DE9F04FDA4E10205B
:1028D000DA4DB6F8B23095F88D210133D84F013A70
:1028E0009BB2B3F5C86F28BF0023012A8CBF00221A
:1028F0000322A6F8B23085F88D2195F8882195F845
:10290000A531013A013B012A8CBF00220322012B91
:1029100085F888218CBF002303232DED028B93B013
:1029200085F8A531FFF72AFC03220DF13601C5F821
:10293000DC00FFF701FC1120FFF720FC03220DF162
:102940003E01C5F8CC00FFF7F7FB1420FFF716FC9B
:1029500003220EA9C5F8BC00FFF7EEFB1520FFF718
:102960000DFC03220DF13A01C5F8AC00FFF7E4FBC2
:102970000F20FFF703FC03220FA9C5F89C00FFF707
:10298000DBFBD5F8683106EE903A97EDC07BB8EEE8
:10299000E66BB4EE476BF1EE10FA02D5002B80F235
:1029A000AE859FEDA10B97EDBE7BB7EE005BA54C0E
:1029B000A549012037EE457B84EDA00BB4EEC76B33
:1029C000F1EE10FAB4BF01330023C5F8683101F00D
:1029D000F9F900284AD0BDF8363001EE103ABDF8BA
:1029E0003E3000EE103ABDF83830B8EE411B08EE2C
:1029F000103AB8EE400BBDF83A30B8EE488B97ED80
:102A0000B05B97EDAC4B97EDAE7B97EDB22B97EDAE
:102A1000A83BA4EE007BA5EE082B97EDAA6B97EDE3
:102A2000B44B84ED927BA3EE016B01EE103ABDF83E
:102A30003C3005EE903A0423B0EE420BB8EE411B59
:102A400085F88831B8EE652B97EDB63B97EDBA5B0C
:102A500097EDB87BA3EE014BA5EE027B84ED906B66
:102A600084ED940B84ED964B84ED987BD5F87C3106
:102A700006EE903A97ED8A7BB8EEE66BB4EE476BC4
:102A8000F1EE10FA02D5002B80F235859FED660B32
:102A900097ED887BB7EE005B6C49012037EE457BF4
:102AA00084EDA00BB4EEC76BF1EE10FAB4BF0133A6
:102AB0000023C5F87C3101F085F9002840F09082B0
:102AC00094ED9A5B97EDC86B97EDCA4B97EDCC7B75
:102AD00036EE456B26EE046BB4EEC76BF1EE10FAE2
:102AE00008DC97EDCE7BB4EEC76BF1EE10FA58BF61
:102AF000B0EE467B02209FED4E6BB4EEC67BF1EE4E
:102B000010FA88BFB0EE467B84EDA07BFFF7A4FBF4
:102B100000220023C5F81C0194EDA07BB5EEC07B1C
:102B2000F1EE10FAC0F2F5849FED416B27EE067BC3
:102B300087EE060BB1EE400BFFF766FB97EDD06B0F
:102B400094ED9C4B97EDD25B97EDD47B36EE446BC6
:102B500026EE056BB4EEC76BF1EE10FA08DC97EDCC
:102B6000D67BB4EEC76BF1EE10FA58BFB0EE467BE1
:102B700004209FED2F6BB4EEC67BF1EE10FA88BFF8
:102B8000B0EE467B84EDA07BFFF766FB00220023BE
:102B9000C5F80C0194EDA07BB5EEC07BF1EE10FA08
:102BA000C0F2B1849FED226B27EE067B87EE060B09
:102BB000B1EE400BFFF728FBD5F86C3106EE903AEA
:102BC00097EDDC7BB8EEE66BB4EE476BF1EE10FAF6
:102BD00002D5002B80F28B849FED130B97EDDA7BEF
:102BE000B7EE005B1A49012037EE457B95ED488B27
:102BF000B4EEC76B84EDA00BF1EE10FA84ED9E8B62
:102C0000B4BF01330023C5F86C3101F0DBF818B311
:102C1000104B13ED027B042327EE087B85F8A531CA
:102C200084EDA87B18E000BF000000000000000059
:102C30000000000000E06F40581F0020202000200E
:102C4000700A0020901C0020A02A0020A12A002049
:102C50009F2A0020F00E0020D5F8703106EE903A41
:102C600097EDE67BB8EEE66BB4EE476BF1EE10FA4B
:102C700002D5002B80F237849FEDCB0B97EDE47BE0
:102C8000B7EE005BCE49012037EE457B95ED4A8BD0
:102C9000B4EEC76B84EDA00BF1EE10FA84ED9E8BC1
:102CA000B4BF01330023C5F8703101F08BF848B18F
:102CB000C44B13ED027B042327EE087B85F8A33178
:102CC00084EDA47BD5F8743106EE903A97EDF07B55
:102CD000B8EEE66BB4EE476BF1EE10FA02D5002BBE
:102CE00080F2FE839FEDB00B97EDEE7BB7EE005BBD
:102CF000B549012037EE457B95ED4C8BB4EEC76BA3
:102D000084EDA00BF1EE10FA84ED9E8BB4BF01337D
:102D10000023C5F8743101F055F848B1AB4B13ED01
:102D2000027B042327EE087B85F8A43184EDA67B83
:102D3000D5F8783106EE903A97EDFA7BB8EEE66B6F
:102D4000B4EE476BF1EE10FA02D5002B80F2C5838A
:102D50009FED950B97EDF87BB7EE005B9C4901204A
:102D600037EE457B95ED4E8BB4EEC76B84EDA00B33
:102D7000F1EE10FA84ED9E8BB4BF01330023C5F849
:102D8000783101F01FF848B1924A042312ED027B1A
:102D900085F8A23127EE087B84EDA27B8E4F17EDDC
:102DA000026B17ED045B97ED007B26EE056BB4EE2E
:102DB000C76BF1EE10FA40F3EC80103705209FED61
:102DC0007C6BB4EEC67BF1EE10FA88BFB0EE467BAA
:102DD00084EDA07BFFF740FA00220023C5F8FC0039
:102DE00094EDA07BB5EEC07BF1EE10FAC0F29C83AF
:102DF0009FED6F6B27EE067B87EE060BB1EE400B67
:102E0000FFF702FA754B97ED005B13ED026B93ED44
:102E1000007B26EE056BB4EEC76BF1EE10FA08DC12
:102E200093ED027BB4EEC76BF1EE10FA58BFB0EE33
:102E3000467B06209FED5E6BB4EEC67BF1EE10FA8A
:102E400088BFB0EE467B84EDA07BFFF705FA002239
:102E50000023C5F8EC0094EDA07BB5EEC07BF1EE4D
:102E600010FAC0F25C839FED526B27EE067B87EE73
:102E7000060BB1EE400BFFF7C7F9B36AF26A0133F4
:102E8000B3620BB90132F26207EE902A96F848104D
:102E900096ED0C5BB8EE677B9FED476B27EE057BED
:102EA00027EE067B06EE903AB8EE666BA6EE057B43
:102EB00086ED087B002900F04583012966D096F84D
:102EC0004A00B0FA80F04009014686F84A00FF2027
:102ED00006EB810486F8490096F86400E3646265B5
:102EE000002800F02C8301284DD096F86600B0FA37
:102EF00080F04009014686F86600FF2001F11A04BF
:102F00001C3186F8650096F8800046F8243046F8B3
:102F10002120002800F01083012831D096F882008B
:102F2000B0FA80F04009014686F88200FF2006EBE7
:102F3000810486F8810096F89C00C4F88430C4F8B7
:102F40008C20002800F0F582012816D096F89E000B
:102F5000B0FA80F04009014686F89E00FF2086F80E
:102F60009D0001F128002A3146F8203046F8212042
:102F700013B0BDEC028BBDE8F08F00210846EBE7F3
:102F800000210846D0E700210846B4E700210846A2
:102F90009BE797ED027B1037B4EEC76BF1EE10FAAA
:102FA00058BFB0EE467B09E70000000000000000BB
:102FB0000000000000E06F40000000000000F04151
:102FC0009D2A0020D00E00209E2A0020E00E002026
:102FD0009C2A0020C00E0020800E0020A00E0020A1
:102FE0004FF0FF33C44AC5F88431002302F504785A
:102FF0009646C4F810329C46C2F82432C2E98533A2
:10300000C2E98733012384F8103207EE103A84F8BE
:10301000163284F81C3284F8223284F8283214469E
:10302000B64B03F128000A93A0F1280341467246EB
:10303000B8EEC77BB3EC026B36EE477B8342A2EC63
:10304000027B04D011F9019F07EE109AF0E70CF112
:10305000070C0EF1380E03F12800BCF1230F04D049
:1030600018F9053F07EE103ADEE7DFF89C82DFF83B
:103070009CE2B8E80F00AEE80F00B8E80F00AEE839
:103080000F0008F1080A0EF11809AEF1200BA8F1A3
:10309000E80C98E803009FED967B8EE80300BAE801
:1030A0000F00A9E80F00BAE80F00A9E80F009AE89E
:1030B000030084ED507B89E8030084ED527B84EDAE
:1030C0005E7B84ED607BAEF59C74234638330CF157
:1030D000100CDCE942015B4543E90401DCE94401F1
:1030E00043E90201F2D12822002185484FF0070868
:1030F00006F076FE834B824A0020109340F205636F
:10310000A2F5C0710992ADF8443010AB02928E4620
:103110000193A2F5A87302224FF0330B039382466A
:103120008446DDF80C908DF846800B910794CDE92C
:103130000582D7E9C423C4E96C23D7E9C623C4E9CF
:103140006E231EED023B4FEACA00724601230021A6
:10315000B0EEC33BB2EC025BB0EEC55BB4EEC35B5A
:10316000F1EE10FA02DDB0EE453B1946013343455E
:10317000F0D10844079B03EBC00090ED007BB5EE57
:10318000407BF1EE10FA40F0D280019B93F90030C1
:103190000893CAF10503CCF109010EF1380003933D
:1031A0000CF13003049303E00731383059451ED049
:1031B00010ED026BB5EE406BF1EE10FAF4D0039B0C
:1031C0000B449942F0DC049CB1EE466B7246034618
:1031D000044493ED007BB2EC024BA4EE067BA3EC1F
:1031E000027BA342F5D1073138305945E0D10AF1CD
:1031F000010A089B9A450CD007993033029A01EBDB
:10320000C30392ED003BD3E90001C2E9000183ED65
:10321000003B029BBAF1060F0BF1010B0EF1400EC1
:1032200003F10803ACF1080C08F1FF3809F1380983
:103230000293019B03F101030193059B03F1070333
:103240000593069B03F1080306937FF47AAF079C6E
:1032500002202B4ADDF82CE002F1380C84ED9E5B55
:1032600084EDA03B04E001300EF1400E09281CD093
:10327000B2EC026BB5EE406BF1EE10FAF3D0082819
:1032800013D07146134601E012ED026B93ED007B03
:10329000B1EC025BA5EE467BA3EC027B6345F3D168
:1032A00001300EF1400E0928E2D1DFF864800520DC
:1032B000A8F1700EA8F5E07C424606E0431C4ED013
:1032C0000138AEF1380EACF1400C32ED027BB5EEB8
:1032D000407BF1EE10FAF1D0431C9CED605B002BBB
:1032E00087EE056B82ED006BE8DD7146099B13E00C
:1032F0000000000000000000901C0020700A002068
:10330000181E002001020304380B0020A81D002015
:10331000501E002092ED006B93ED007BB1EC025B40
:10332000A5EE467BA3EC027B9342F3D1C8E70029CC
:1033300040F00B81019B93F900300893DDE90523F0
:1033400093423FF726AF734693ED004B1EED026BA1
:1033500084EE067BA3EC027B4B45F5D119E79FED8C
:10336000885BDFF848928A4BB0EE456B09F1280183
:103370004A461033B2EC027B93ED423B93ED444B53
:103380009142A3EE076BA4EE075BF2D1814B4A4654
:10339000099903F1280094ED902B94ED923B84ED74
:1033A000A06B32EE462B33EE453B84ED9E3B9C46B4
:1033B00008339CED007B9CED0A4B92ED005B22EE06
:1033C000077B8342B1EC026BA3EE047B37EE057BF7
:1033D00037EE466BA2EC027B81ED0C6BE7D1DFF898
:1033E000BCA142466A4B9FED666BB2EC025B93ED6B
:1033F0005A7B10339245A5EE076BF6D14246644BDB
:1034000094ED6C5B9FED5E7B35EE465B84ED8C5BF3
:10341000B2EC026B93ED5C5B10339245A5EE067B3C
:10342000F6D1002128225C4894ED6E6B36EE476B96
:1034300084ED8E6B06F0D4FC48460021DDF828C0F0
:1034400062464346B0EC025B93ED007BB2EC026B4C
:10345000A6EE057BA3EC027B9A45F5D105310CF174
:10346000280C1929ECD1282200214C4806F0B8FC80
:103470004A4B4B491A4694ED8C5B92ED007BB1ECC4
:10348000026B4848A5EE067BA2EC027B9042F4D189
:10349000454A94ED8E5B93ED007BB2EC026B4149A3
:1034A000A6EE057BA3EC027B9942F4D1B8EC026B4B
:1034B00098ED087BC24537EE067BA9EC027BF5D17F
:1034C000D4E98E2394ED8C5BC4E99C23042384ED22
:1034D0009A5B85F88D31FFF7F5BA97EDF60B39E475
:1034E00097EDEC0B00E497EDE20BFFF7C7BB97ED10
:1034F000D80BFFF773BB97ED860BFFF7C9BA97EDB3
:10350000BC0BFFF750BA9FED200BC4E9A023FFF7D7
:1035100051BB9FED1D0BC4E9A023FFF70DBB9FED31
:103520001A0BC4E9A023A6E49FED170BC4E9A0235E
:1035300066E4012108460FE501210846F4E4012173
:103540000846D8E401210846BFE401EB0A03029CC7
:103550000799581CA4F5C47201EBC30341B201984A
:1035600008910170D3E9000192ED003BE2E80E0101
:103570001946A24203F1380381ED003BF2D1DDE6AA
:1035800000000000000000000000000000000080BB
:10359000700A0020280C0020501E0020781E0020F9
:1035A000380B0020A01E0020600B002060210020AE
:1035B0002B492C4AD1F8803106EE903A92ED927B5D
:1035C000B8EEE66B00B5B4EE476B83B0F1EE10FADF
:1035D00001D5002B34DA9FED1E0B92ED907BB7EEF8
:1035E000005B37EE457BB4EEC76BF1EE10FAB4BF6B
:1035F00001330023C1F88031FFF736F99FED167BC8
:10360000B4EEC70BF1EE10FA0BD5B5EEC00BF1EE30
:1036100010FA18DBFCEEC07BCDED017A9DF80410AA
:1036200000E0FF210D20FEF743FD0F4A936B0133AD
:10363000936313B9D36B0133D36303B05DF804FB19
:1036400092ED8E0BC9E70021ECE700BFAFF30080DD
:1036500000000000000000000000000000007040BA
:1036600020200020700A0020581F002000000000C9
:103670002DE9F047EA4FC8220021EA4C3846EA4ECD
:1036800004F28D154FF00008DFF8CC934FF0FF0ADD
:103690002DED048B06F0A4FBE44AE54B04F5C57060
:1036A000BA60E44AE449D8650B607960C3E9002256
:1036B000C3E90422C3E90622C3E90822C3E90A22B6
:1036C000C3E90C22C3E9025504F5C672DB4DC3E918
:1036D0000F22C3E91122C7E9036504F28B12D84D0A
:1036E00000267D6104F5C4759FEDC77BC3E91322F5
:1036F000C3E9152204F289129D63012587ED0C7B35
:10370000C7E92E89C3E91800C3E91A02C3E91C22DC
:103710009A6704F2A512DFF84493DA6704F5D272CF
:103720004846DFF83C83C3F8802004F2A312C3F8B4
:10373000842004F5D172C3F8882007F118034FF4F0
:1037400032728B6007F108034B6007F12003CB60F6
:10375000002106F045FB4FF4F4720021204606F0EC
:103760003FFB102084F89E51C4F8D450FEF7B0FC03
:10377000C4F8DC00112084F8C06084F8C86084F8C4
:10378000D85084F89D51C4F8C450FEF7A1FCC4F889
:10379000CC00142084F8B06084F8B86084F8C85075
:1037A00084F89C51C4F8B450FEF792FCC4F8BC00F5
:1037B000152084F8A06084F8A86084F8B85084F8D4
:1037C0009B51C4F8A450FEF783FCC4F8AC000F2052
:1037D00084F8906084F8986084F8A85084F89A512E
:1037E000C4F89450FEF774FC2946C4F89C000D20E0
:1037F000C4F868612670267284F8985084F8A15144
:1038000065609FED839B9FED848BC4E95F66FEF747
:1038100049FCB0EE491BB0EE480B022084F8106161
:1038200084F81861257284F89151C4F81451FEF798
:10383000BBFCB0EE491BC4F81C01B0EE480B0420E1
:1038400084F8006184F8086184F8185184F8905174
:10385000C4F80451FEF7A8FC3146C4F80C01272037
:10386000C4F86C6184F8806084F8085184F8995138
:10387000C4F88450FEF716FC3146252084F87060A9
:1038800084F8885084F898516567FEF70BFC042291
:103890006C49282084F8785003F0D6FA314623206A
:1038A000C4F8706184F8206084F893516562FEF773
:1038B000F9FB31462120267484F8285084F892516F
:1038C0006561FEF7EFFB04225F492420257603F0B3
:1038D000BBFA31461920C4F8746184F8606084F83A
:1038E00097516566FEF7DEFB31461B2084F8506079
:1038F00084F8685084F896516565FEF7D3FB04227E
:1039000052491A2084F8585003F09EFA31461D207F
:10391000C4F8786184F8406084F895516564FEF7D6
:10392000C1FB31461F2084F8306084F8485084F889
:1039300094516563FEF7B6FB042245491E2084F8C6
:10394000385003F081FAB0EE491BB0EE480B052069
:1039500084F8F06084F8F86084F88F51C4F8F4506B
:10396000FEF722FCB0EE491BC4F8FC00B0EE480B99
:10397000062084F8E06084F8E86084F8F85084F861
:103980008E51C4F8E450FEF70FFC324B4FF0033277
:103990003146C4F8EC001A6040F2033204F5A0701E
:1039A00087F84A609A80282287F8666087F88260E4
:1039B00087F89E6008F58C6684F8E85087F849A07F
:1039C00087F865A087F881A087F89DA098EDE07B37
:1039D00084ED487B98EDEA7B84ED4A7B98EDF47B9F
:1039E00084ED4C7B98EDFE7B84ED4E7B06F0F8F980
:1039F00008F58E624FF0FF3384F8A05184F8E5514A
:103A000008F58A6C2EE000BF7B14AE47E17A543F84
:103A10000000000000E06F40000000000040AF40E8
:103A2000581F002020200020D6CB5E9BE40F9F393A
:103A3000182B002048090020B82A0020B0FF591098
:103A40008D6FCC7E51050000F107000031060000AB
:103A5000110700009C2A00200000F0BF901C0020ED
:103A6000700A0020C4F8843187F84830C4F8E03187
:103A700098ED827BD2E90001FA6C89ED9A7B98ED92
:103A8000847B3A647A6D89ED9C7B98ED9E7B7A64A9
:103A9000D7F8A02089ED907B98EDA07BC9E9A8011B
:103AA000C7F8942000200021D7F8A82089ED927B48
:103AB00098EDA27BC7F8982008F5886289ED947B81
:103AC00098EDA47BC4E9760189ED967B98EDA67B01
:103AD00089ED987B98ED967B89EDB07B87F89CA06B
:103AE000C4F8B031C4F8D031C4F8C031D7F884304C
:103AF00084F8B551BB67D7F88C3087F864A0FB67B2
:103B000087F880A084F8D55184F8C551D2E9002304
:103B1000C4E96A01C9E9A223C4E97201BA6E3B6F24
:103B2000C4E96E01DCE90001C7E91723C9E9A40172
:103B3000D8E99823D6E90001C9E9AE23C9E9A6016D
:103B4000D8E99C23D8E99A01C9E9AA23C9E9AC01BB
:103B5000BDEC048BBDE8F08710B5994C94F8D030DB
:103B60003BB90122D4F8D430934284F8D02000F03D
:103B7000EF8094F8C0303BB90122D4F8C4309342AE
:103B800084F8C02000F0F18094F8B0303BB90122F5
:103B9000D4F8B430934284F8B02000F0F38094F865
:103BA000A0303BB90122D4F8A430934284F8A0207D
:103BB00000F0F58094F890303BB90122D4F89430AD
:103BC000934284F8902000F0B68023780BB901234B
:103BD000237094F81031002B57D094F80031002B4B
:103BE00000F08B8094F8803013B9012384F8803082
:103BF00094F8703013B9012384F8703094F82030B1
:103C000013B9012384F82030237C0BB901232374DA
:103C100094F8603013B9012384F8603094F8503080
:103C200013B9012384F8503094F8403013B90123BC
:103C300084F8403094F8303013B9012384F83030E0
:103C400094F8F030002B3CD094F8E03003B110BD74
:103C50000122D4F8E430934284F8E020F7D194F8BC
:103C6000E830002BF3D00620FEF7F6FAC4F8EC009B
:103C70009FED510BFEF7C8FA0620FEF7EDFAC4F8E7
:103C8000EC00BDE81040FEF7D3BA0122D4F814319D
:103C9000934284F81021A0D194F81831002B9CD0C5
:103CA0000220FEF7D9FAC4F81C019FED430BFEF782
:103CB000ABFA0220FEF7D0FAC4F81C01FEF7B8FAFE
:103CC0008BE70122D4F8F430934284F8F020BBD182
:103CD00094F8F830002BB7D00520FEF7BDFAC4F8F1
:103CE000FC009FED350BFEF78FFA0520FEF7B4FAC6
:103CF000C4F8FC00FEF79CFAA6E70122D4F80431D0
:103D0000934284F800217FF46DAF94F80831002BC2
:103D10003FF468AF0420FEF79FFAC4F80C019FED52
:103D2000260BFEF771FA0420FEF796FAC4F80C0190
:103D3000FEF77EFA56E794F89830002B3FF445AF33
:103D40000F20FEF71BFAC4F89C00FEF703FA3CE7CD
:103D500094F8D830002B3FF40CAF1020FEF70EFA89
:103D6000C4F8DC00FEF7F6F903E794F8C830002B3E
:103D70003FF40AAF1120FEF701FAC4F8CC00FEF7B9
:103D8000E9F901E794F8B830002B3FF408AF1420AC
:103D9000FEF7F4F9C4F8BC00FEF7DCF9FFE694F88E
:103DA000A830002B3FF406AF1520FEF7E7F9C4F862
:103DB000AC00FEF7CFF9FDE6000000000000008037
:103DC00020200020B5EEC00B91F800C010B5F1EE38
:103DD00010FA0CF0030424DD4FF0010E724601309E
:103DE000174BC0B203EB8403022813F80E3015D82A
:103DF000144C205C034211D01CF0080F4FEA9C00C9
:103E00000AD1C40613D442EA830213F0380F0A70B1
:103E100010D04FF0FF3010BD5C07F2D500200A70C3
:103E200010BD4CBF0122002252009646D7E79806EB
:103E3000F4D4E8E713F0070018BF012010BD00BF5D
:103E4000540700209002002008B52DED048B9FED53
:103E5000269BB0EE408B20EE099B9FED251BB0EE1C
:103E6000490B05F049FEBCEEC00B9FED236BB4EE91
:103E7000C69BF1EE10FA33DD89EE067BFCEEC77BC4
:103E800017EE902A204BBFEE007B204983ED000AFD
:103E90005A6091ED006BB4EE476BF1EE10FA19D059
:103EA000B8EE007B91ED006BB4EE476BF1EE10FACB
:103EB00010D0174B9FED127B91ED006B28EE077B26
:103EC00036EE486BB4EEC76BF1EE10FA4CBF012230
:103ED00000221A700F4B83ED008BBDEC048B08BDE4
:103EE0000022CFE7AFF300800000000000408F40C9
:103EF000000000000000F0410000E0FFFFFFEF4184
:103F0000000000000000B03CE02B0020F00E00207C
:103F1000D63200200822002008B52DED028BB0EE2D
:103F2000408B80B1B6EE000B9FED097B9FED0A1B25
:103F3000A8EE070B05F0E0FDFCEEC07BBDEC028BAC
:103F400017EE900A08BDFFF77FFFEBE7AFF30080A5
:103F50000000000080842E41000000000000F041BD
:103F600000B5002383B000200021CDE900330E4BC3
:103F7000C3E900010D4B00200021C3E9000101A9A4
:103F8000684602F045FDDDE9000101F0E5FE38B9C3
:103F900001A9684602F042FDDDE9000100F002FCE3
:103FA00003B05DF804FB00BF18220020202200208F
:103FB000F8B50646002003F065FC01F095FF851C6E
:103FC000044618BF012560B15DB10025012736B157
:103FD00085F00105002003F055FC2F43EDD020466D
:103FE000F8BD00F0FFFB831C044618BF012308B195
:103FF000002BEBD11D4301F03FFF831C044618BF8B
:10400000012308B1002BE1D11D430027DFE700BFEA
:10401000F8B51F4F3B78002B36D100F0DFFC80B1A4
:10402000002442F210761B4D0A20344403F02AFC8F
:104030000120FFF7BDFF00F0D1FCAC4201D2002807
:10404000F2D100F0D1FC002401F0F8FF0023124966
:104050004FF04045114A0B7013701149114A0B6023
:1040600013601149114A0B601360114A1149136022
:10407000114AC1E90045C2E9003300240F4A002576
:104080003B70C2E90045F8BD002000F0C1FCC4E768
:10409000D632002000879303D9320020DB32002083
:1040A000883200208C320020903200209432002090
:1040B00098320020F00E0020E02B00200822002083
:1040C0009FED0B7B0C4B00200C4A0D4910B483ED87
:1040D000007B12780B4B08701A700B490B4B0C4C81
:1040E0000C4A08701870207010605DF8044B70471F
:1040F000000000000000000028220020D432002030
:10410000DD320020DC320020E0320020D5320020F9
:10411000E2320020A83200208D4BF0B5002832D1C9
:104120008C4A1C7811781D788C42157007D08A490A
:104130008A4D8B4C8B4A08702870206010701A785A
:10414000012A00F096801A78012A77D0854A1178E2
:1041500001F0FF0000292CD0834E0020834C3070EA
:10416000217801F0FF0C002900F09B807A49107043
:10417000087020701378042B00F2D781DFE803F079
:1041800055313C44AA001A78012A08D0784B1B7894
:1041900013B9714B1878F0BD764B1878F0BD764A9C
:1041A000128892B29042F1D1744A116800294FD11D
:1041B000ECE76E4C6C4E694D20703178287001B37D
:1041C0000221117030701978D9B91078C0B2042862
:1041D00000F2A881DFE810F02800B700A100170066
:1041E000B90000205E4C2368002B00F02181013BC8
:1041F0002360002B00F01C8108785D4B00221A70B0
:10420000F0BD5549B6E75449554C2368002B7AD187
:104210005B4D2B68002B00F012812D6801200423D8
:10422000087025601370E8E74B493378002BE3D022
:1042300002240023087814703370DEE74E4A128897
:1042400092B2002A82D14D4A116800293FF47EAF14
:104250004C4C2478002C5CD0424A1278022A00F0A0
:10426000998000283FF472AF414B1B78002B90D00F
:1042700092E73C4A117821B93B4E317809B1384C6C
:1042800009E0117801297FF45EAF354C21680129DE
:104290007FF459AF344E002131702160022111703A
:1042A00051E71978002990D02C4D1178287885F89D
:1042B00000C0042900F22E810FF2040C5CF821F0FA
:1042C000A9220000C7230000A524000087220000C7
:1042D000CD2300000020224C23681BB1013B23604A
:1042E000002B89D1284B1B78012B00F0B180274B84
:1042F0001D68002D00F0B1801D68002001230870AA
:104300002560137079E7013B2360002B7FF474AFC5
:104310007EE71268002AA4D09EE71D49086800289D
:1043200003DD1B78012B00F0A08015490B68002BE2
:1043300000F0898009680120094B074C19600423AB
:104340002070137059E704494CE701200249C2E785
:10435000D4320020DC320020E2320020E0320020A3
:10436000A8320020D532002065140020D032002071
:10437000D7320020D8320020B6320020DC2B0020BB
:1043800030140020D3320020D2320020D82B00205D
:10439000D42B0020664D2C78002C7FF462AF654F43
:1043A0003A7891ED007B002A76D0634A1178002993
:1043B00067D111780129CCB203D01478A21E5442DF
:1043C00054415E4A92ED006BB4EEC67BF1EE10FAFA
:1043D00080F292805A4E92ED006BB4EEC67BF1EE05
:1043E00010FA12DD92ED006B96ED005BB4EE465BC9
:1043F000F1EE10FA09D15349096821B952494FF039
:10440000010E81F800E001212970002C4AD12A78A0
:10441000B2FA82F2520986ED007B3A7000287FF4EE
:1044200023AF93E600287FF478AF474B1878E4E693
:1044300000287FF4EDAE022308781370DDE61846FD
:104440000B701370D9E64049184613700B70D4E610
:10445000002318460B701370CFE670B13B4B042558
:1044600008781B6815702360C7E60C68032338487A
:104470003549046013700878BFE602230870137092
:10448000BBE611781678C9B2012E07D01278022A3D
:1044900004D0022995D02246294EB9E7022937D007
:1044A000264A274E92ED006BB4EEC67BF1EE10FA71
:1044B00011D592ED006B96ED005BB4EEC65BF1EEAC
:1044C00010FA08DB1F4A126812B91F4901220A704C
:1044D00001222A709CE792ED006BB4EE467BF1EE70
:1044E00010FA94D192ED006B96ED005BB4EEC65BD2
:1044F000F1EE10FA8BDDE5E7114E92ED006B96EDD3
:10450000005BB4EEC65BF1EE10FA3FF574AF62E704
:10451000012456E70C490023237018460B702B70BA
:1045200013706AE60849024DF5E7014DF3E700BF55
:10453000E0320020DD320020D132002010220020A5
:1045400028220020D42B0020E2320020301400204A
:10455000A832002010B4002200231A4C00201A496F
:104560004FF0010CC4E90023184C08702070184962
:10457000184C087020801849184C08702070184991
:10458000184C086020701849184C087020601849B1
:10459000184C08701849C4E900234FF47A74174B7B
:1045A000174A0C601860174B106017491870174BAA
:1045B00081F800C0164A1870164B107018705DF81C
:1045C000044B704728220020DD320020D532002025
:1045D000DC320020B6320020E2320020E03200203F
:1045E000A8320020D8320020D7320020DC2B002057
:1045F000D33200201022002030140020D82B0020BD
:10460000D42B0020D132002065140020D0320020AD
:10461000D4320020D2320020104B1B7893B9104BBB
:104620001A7882B90F4A12784AB11B7803F0FF0258
:104630002BB90D4801210D4B0270197070470B4BBF
:1046400000221A707047074A11780029EBD1012324
:104650000549064A0B701370704700BFD432002022
:1046600065140020D0320020D8320020D73200203C
:1046700002234FF0FF301360704700BF10B514469F
:1046800008B101F0A5FD0020206010BD10B9FF2386
:104690000B707047FE2310300B700F2836D8DFE800
:1046A00000F0322F2C292623201D1A1714110E0B6F
:1046B000083522234B70704730234B7070472923F5
:1046C0004B70704700234B70704723234B7070472B
:1046D00021234B70704711234B7070472A234B7076
:1046E000704727234B70704710234B70704724236B
:1046F0004B70704728234B70704726234B707047D0
:1047000031234B70704733234B70704720234B701D
:10471000704700BF014B1878704700BFE13200209E
:10472000014B1870704700BFE1320020014B187830
:10473000704700BFDF320020024B1A781043187018
:10474000704700BFDF320020024A137823EA0000DE
:1047500010707047DF320020014B1878704700BF9F
:10476000DE320020014B1888704700BFB8320020AD
:1047700079B18AB1002300B501E09A420ED091F8D8
:1047800000E08C4601330C318645F6D160465DF879
:1047900004FB8C46604670479446FBE74FF0000CE4
:1047A000F4E700BF70B50D4E34789CB90C4D00F0A5
:1047B00045FA00F04BFA286000F0A4FE00F0B8FEC5
:1047C000A86001F05BFA01F061FA012368603370C0
:1047D000204670BD6FF00B04FAE700BFC032002026
:1047E0006C2A0020734B00202DE9F04188B01B7823
:1047F000CDE90300CDE905000790002B00F0C08053
:1048000006AC05AB04AA03A9009401F093FB431D79
:104810000446DBB2012B01D9002865D1039800289A
:1048200069D0049ADDE9051301EB030C944507D91F
:104830006FF0070401F0CCFC204608B0BDE8F08121
:10484000425C012B5C4B00EB0106A2F1C0051B781A
:10485000B5FA85F54FEA55150ED96DB1002B5DD02F
:1048600002F12D037578DBB20F2B03D9013D012D29
:1048700000F28F80022304E0002B42D0F02A5AD9A4
:1048800000234E4D55F82330002B4DD0104698474D
:10489000002847D0D0E90138002B3CD007AA059961
:1048A000039898470746B8F1000FC5D0079D002D23
:1048B000C2D0069A954245D80021304605F090FABC
:1048C000059B03993846079A1944C047079C039AE9
:1048D0004FF6FF71DDE90430CDE90004012001F05D
:1048E0008BFA04460028A7D003980028A2D12046BE
:1048F00008B0BDE8F0816FF00704204608B0BDE8BD
:10490000F081FF2A0AD12D4B1B68002B48D010469E
:1049100098470028BED16FF00B04E5E707AAFFF720
:10492000ADFE89E70398059907AADFF89480FFF7A1
:104930009FFE0746BAE702F11C03DBB20C2B22D81C
:1049400001239EE701F074FB0446039801F040FC4C
:104950000021284601F03CFB049001F033FB049950
:10496000059001B3204601F063FD069A03900028EC
:10497000A2D1014630466FF0090405F031FA5BE739
:104980006FF0080458E702F12D03DBB20F2B7FF61E
:1049900071AF02F13803DBB20A2BC5D8032370E7ED
:1049A0006FF00B0446E7069A30466FF0070405F0F7
:1049B00017FA41E7C0320020E13200206C2A0020C3
:1049C0000D270000044B1B7813B1002200F0B6BD88
:1049D0006FF00800704700BFC0320020014B18780C
:1049E000704700BFE132002008B501F055F901F031
:1049F000E3F800F031F90020034B044AC3E900005A
:104A0000C3E90200107008BD6C2A0020C0320020EB
:104A100000F088BF0122002100F090BD0623002095
:104A200013607047084410B4C37841683BB931B98A
:104A300002246FF00B0014605DF8044B70470448CB
:104A4000012403710160002014605DF8044B70477D
:104A50009C32002007220149FFF78ABE700800201F
:104A6000F8B544180B4B154666781F6801F0C8FA74
:104A7000B04207D957B16378002007495A1C0B7020
:104A80002A60F8BD02226FF00100F9E702226FF000
:104A90000B00F5E79C320020E332002070B544188B
:104AA0001546667801F0ACFAB04212D9E378626834
:104AB0002BB922B902236FF00B002B6070BD617817
:104AC0000648026003714B1C054A00202B601170E0
:104AD00070BD02236FF00100EFE700BF9C320020A1
:104AE000E332002010B5144600F0D0FF20B90223B5
:104AF0006FF00400236010BD01F090FA00F0D2FFC7
:104B000002236FF00400236010BD00BF0023FF22CA
:104B100010B50C46C1F801304B710A70FFF706FE64
:104B20006070FFF719FEA070FFF71CFEA08010BD9B
:104B300010B5144600F0B8FF30B10020FFF7F0FDCB
:104B400001230020236010BD02236FF00A00F9E763
:104B500038B54518144600F0A7FF68B16B78012BF3
:104B600006D80120FFF7DCFD08230020236038BDB4
:104B700002236FF00100F9E702236FF00A00F5E766
:104B800088B9052210B50C46FF21206060602170B5
:104B9000627001F035FAE07001F030FA0123A08074
:104BA000A371E37110BDFFF771BD00BF80B99446DA
:104BB000FF222DE9F0410D4E0A70356835B1DFF85E
:104BC000308098F800707A1C944503D0BDE8F081DD
:104BD000FFF75CBD0446481C29463D443A4601F0B7
:104BE000D7FF88F800403560F0E700BF9C32002016
:104BF000E332002080B99446FF222DE9F0410D4EAA
:104C00000A70356835B1DFF8308098F800707A1C8A
:104C1000944503D0BDE8F081FFF738BD0446481C39
:104C200029463D443A4601F0B3FF88F8004035601C
:104C3000F0E700BF9C320020E3320020014B024A23
:104C40001A607047A42A0020D52A0000014B18687A
:104C5000704700BFA42A0020014B00221A60704751
:104C6000A42A0020014B1868704700BF9C32002026
:104C7000034611B908B900207047024A01201360A9
:104C8000117170479C320020024A1368184410606A
:104C9000704700BF9C320020F0B4244C01442368CC
:104CA0003BB3234DA4882888844222D900EB4000DE
:104CB00053F8304003EBC003DCB1A8781E7986427C
:104CC00017D9C0EBC00054F8206004EB800486B113
:104CD0002479E87884420CD95B79023B012B21D9F5
:104CE0004B78FF2B0BD002236FF00100F0BC136058
:104CF000704702236FF005001360F0BC704791F815
:104D000002C006EBC0044F6806F83030013084F86A
:104D100001C0CB78E8700020A370012367601360A6
:104D2000F0BC704702236FF00700E5E7F02B00208E
:104D30003C14002010B51B4C236833B30144A488F5
:104D40004888844221D900EB400003EBC003587926
:104D50000238012822D9B1F804E01FFA8EF07F282A
:104D600013D8C87988B991F801C03CF0100011D16E
:104D7000012483F808C0A3F806E089799872A1425B
:104D800038BF21465972146010BD02246FF0010033
:104D9000146010BD02246FF00900F4E702246FF0E4
:104DA0000700F0E7F02B0020082300201360704775
:104DB000FF2201234FF0340C00200A704B708A70E0
:104DC000CB700A7181F805C08B71C871704700BF44
:104DD00002236FF00F001360704700BF0844437850
:104DE000012B32D130B5B0F806C0448801791FFAE2
:104DF0008CFE45791D480368A3B38088A04229D959
:104E0000F4B9B1FA81F011F0FD0F4FEA501017D14B
:104E1000012D15D1BEF1010F0ED168B158790238BC
:104E200001281BD90124002019732146A3F80EC0C4
:104E30005C731882116030BD11B1BEF1010FEDD865
:104E400002216FF00900116030BD02214FF0FF30E8
:104E50001160704702216FF00100EBE702216FF053
:104E60000700E7E702216FF00300E3E7F02B0020E3
:104E7000FF2300224FF0110C6FF07F00CA800B70EF
:104E800081F801C08B70CB7008714A71704700BF08
:104E90000D220149FFF76CBC480300202DE9F047C3
:104EA000254E0844154682B0326843880479477914
:104EB000002A38D0B188994231D903EB43034FEA35
:104EC000C30802EBC30352F808A0BAF1000F2AD0BE
:104ED0001B79A34223D9C4EBC404A4005AF804905C
:104EE000B9F1000F1FD1D7B1FA001046019201F0BD
:104EF00043F933684AF8040053F808301859B0B140
:104F0000019A494604F06CFF33684846012253F881
:104F1000083023441F712A6002B0BDE8F0870222E6
:104F20006FF00100F7E702226FF00300F3E70222BF
:104F30006FF00200EFE700BFF02B00202DE9F043F7
:104F40001F4E084483B01746D6F80090448890F866
:104F50000480B9F1000F27D0B388A34228D908F103
:104F6000FF33DBB2FB2B23D804EB4404E40059F8F5
:104F70000450CDB9C8EBC80292001046019201F06E
:104F8000FBF8336849F804001859A8B1019A29467A
:104F900004F026FF336828460122234483F8048066
:104FA0003A6003B0BDE8F08302226FF00300F7E738
:104FB00002226FF00100F3E702226FF00200EFE738
:104FC000F02B00202DE9F047DFF888A001441746B8
:104FD000DAF80050B1F8029085BB1FFA89F84FF655
:104FE000FE7308F1FF329A422CD808EB4801CE003C
:104FF000304601F0C1F8044640B33246294604F079
:10500000EFFEAAF80490CAF80040B8F1000F10D0E3
:1050100020464FF0FF32A11901234261183000F8F9
:105020000C5C00F80B3C20F80A3C20F8085C884235
:10503000F3D1012300203B60BDE8F08702236FF02D
:105040000300F8E702236FF00100F4E702236FF09A
:105050000200F0E7F02B00200B4660B9074AFF2062
:1050600007491268187002EB4202096801EBC2029C
:10507000D27A5A707047FFF709BB00BF14140020A2
:10508000F02B0020082300201360704770B50179D1
:10509000044651B300252E462B462268C3EBC300BD
:1050A0000121013502EB8000E28994F808C0806894
:1050B00000FB02F250181BB91CF0100F18BF501D56
:1050C00000F086FF21798642EBB238BF064699424E
:1050D000E3D801EB410104F11402304601F0A4F8D9
:1050E00010B14FF0FF33636170BD0E46F3E700BFB0
:1050F0002DE9F04FDFF8F481461883B0D8F80000AE
:105100000192B6F8029018B1B8F804304B4507D8B0
:105110006FF001000223019A136003B0BDE8F08F25
:105120006F4BC3F800907378022B2CD809EB490120
:1051300000EBC10AC9009AF8054094B99AF80840F2
:1051400014F0020F44585BD0002C6FD098F8075031
:105150009AF804402C44802C68DC8AF80B5088F8BC
:105160000740013B012B11D972B65E4B1C68002C25
:1051700042D17378012B5ED0022B75D0002B78D0F2
:1051800062B60020C6E76FF00900C3E79AF8043062
:10519000002BE9D040584FF0000BCBEBCB0300EBDA
:1051A00083019D000979002943D050F8233008225B
:1051B000002412FB013193F801C008339942644482
:1051C000F9D1BBF1000F03D19AF80830DB0624D4E3
:1051D000BAF80E3004FB03F35F1C00F00FFF8742A8
:1051E00024D8DAF800000BF1010B0544AC609AF802
:1051F00004305B45D1DCB7E762B66FF00A0089E79F
:10520000A4B198F806509AF804402C44FC2C0DDC0C
:105210008AF80B5088F80640A3E7BAF80E3004FB72
:1052200003F35F1D00F0EAFE8742DAD96FF0080051
:1052300070E70C46C5E7DAF8143001330AD12A4B7F
:10524000BAF806101888884237D0B9F1000F01D19A
:1052500005293ED9032302208AF80530FFF760FABA
:105260004020FFF769FA8BE78AF8053062B62046DE
:1052700050E701238AF80530B8F80430B3B1013B98
:10528000D8F8002099B201EB410102EBC10102E024
:10529000012B7FF675AF53798A4202F11802A3F110
:1052A0000203DBB2F4D1012B7FF66AAF0120FFF7D6
:1052B00037FA4020FFF748FA62E70AF11402D3E90F
:1052C000010101F083F80028C4D062B66FF002003B
:1052D00020E75046FFF7DAFEAAF81040F3E700BFD8
:1052E00014140020A432002040140020F02B0020D1
:1052F00070B41C4C23685BB30844B4F804C0448801
:10530000A1B28C4524D901EB410153F8315003EB94
:10531000C103EDB190F804C01979614518D9CCEBFF
:10532000CC0155F8216005EB81058EB140792979D2
:1053300081420DD95B79023B012B0FD90A4B012128
:10534000D87000201C8083F802C0116070BC7047C8
:1053500002216FF00100116070BC704702216FF0F4
:105360000700F8E7F02B00203C14002008442DE94A
:10537000F84343781446022B0FD85F4E336893B13D
:10538000B38883B172B65D4B1F6897B162B60223D2
:105390006FF00A002360BDE8F88302236FF0090074
:1053A0002360BDE8F88302236FF001002360BDE8AD
:1053B000F8834378012B3FD0022B06D063B362B64B
:1053C000012300202360BDE8F883B588E5B131688A
:1053D00005EB450001260B4601EBC0005A79183356
:1053E000022A08BF03F8136C9842F7D1002201E0AB
:1053F000012BE4D901324B79183192B2023BAA4217
:10540000DBB2F5D3012BDAD90120FFF789F940206F
:10541000FFF79AF962B6D3E7B1880029F4D0336870
:1054200001EB4101012003EBC1015A7902B158712E
:1054300018338B42F9D1E7E7B1880029BFD03D4648
:10544000DFF8BC803068B8F800C005EB45024FEAD1
:10545000C20900EBC2025379022B1AD001358D42EA
:10546000F3DB0029ABD000254FF0030802E0B3883E
:10547000AB4234DD336801353B4418375879022894
:10548000F5D183F80580FFF74BF94020FFF754F979
:10549000EDE75369013303D00135A942D5DCE0E7DC
:1054A000D388634508D0002DF6D1052B19D90129E1
:1054B0004FF00105C9D8D4E714320135D8E901010C
:1054C00000F084FFB188A94213DD0028BAD062B68B
:1054D00000283FF475AF02236FF0020060E7002060
:1054E000F5E71046FFF7D2FD33684B441D820125D6
:1054F000E8E70028B5D0EAE7F02B0020A43200202E
:10550000401400200023064A0649074810B4074CFF
:1055100013605360236008605DF8044B704700BF60
:10552000F02B0020A82A0020112F0000A432002018
:10553000014B1868704700BFA82A00202DE9F04FE2
:105540002DED028B8DB00490CDE9052172B6DFF808
:10555000CC83D8F800300133C8F8003062B6DFF8E9
:10556000C0A3DAF80070002F3ED0BAF80430002B48
:105570003AD04FF0000907E009F10109BAF8043008
:105580001FFA89F94B452FD909EB4903DE0007EBD8
:10559000C303187A10F00204EED15A79032AEBD132
:1055A000DB88049A9342E7D14946204600F020FC6C
:1055B000059B09903BB3DAF80030002B00F0958191
:1055C000BAF804204A4540F2C9809C19237B022B7B
:1055D00000F04C81099B002B40F0808109F101090A
:1055E0001FFA89F94A45CFD80023039372B6D8F839
:1055F0000030013BC8F8003062B603980DB0BDEC36
:10560000028BBDE8F08FDAF80030002B00F09E80AE
:10561000BAF804204A4540F299801E44337B022B9D
:1056200000F00F81059B0793012308933379002B2A
:1056300000F0CC80099B0022B3FA83F303925B094C
:105640005B4208EE103A0123CDE90A971F4607F1A5
:10565000FF3B346800F0B6FC079B5FFA8BF5814690
:10566000AB46C5EBC50504EB8504AD00002B40F04F
:10567000C18033682B449A68F38902FB03F3327AC2
:10568000581CBBF1000F02D1D10648BF581D0121A3
:10569000206100F09DFC736901465A1C00F0C58032
:1056A000184600F0C5FEE060002800F0A8803368CE
:1056B000484400222B4460619A615869F17A02469D
:1056C000594402F8011BBBF1000F0AD1317AC90617
:1056D00007D50699C0F801109969C3F818B00431CC
:1056E0000A445A61E368002B4FD08B4BF2881B8829
:1056F0009A4252D022796369002A4DD000252A4669
:1057000011E00A68104214BF012200221A70A16938
:1057100001359BF801200A4400211344A161EAB23B
:105720002179914238D9216801EBC20B11F832205E
:105730000121FF2A01FA02F0DBF80410E1D118463A
:105740009BF8012001F024FA0346E0E7099B002BB7
:1057500040F0D6804FF0FF33039347E7099B002BBF
:10576000F8D009F101034FF0FF329BB20392494692
:105770000020994600F03EFBBAF804304B457FF616
:1057800035AF002C7FF400AF30E73379BB4240F2F5
:1057900094800137FFB25AE76361089B002BF4D075
:1057A0000121206900F014FC034618EE100AD4E928
:1057B0000321CDE900910A9900F01EFB0390002817
:1057C00036D13379BB42E4D8DDE90A9700230124BE
:1057D0000393338AF2890133B3FBF2F102FB1133F5
:1057E0003382099B002B40F0938009F101091FFAD5
:1057F00089F9C1E7338A002B3FF43BAF72E76FF0C2
:105800000903DDE90A970393338AF2890133B3FB75
:10581000F2F102FB11333382099B002B3FF4E6AE19
:1058200009F1010300249BB2A1E700F0A5FC3AE7CF
:10583000E06800F0CDFC3379BB42AAD8DDE90A97D5
:10584000E2E7354BF2881B889A423FF4EBAEB9F1A0
:10585000000F7FF4E7AE338AF28901339B1AB3FA63
:1058600083F35B09089301230793DFE62A4BE18862
:105870001B8899423FF4AEAEB9F1000F7FF4AAAE97
:10588000238A0BB323795BB100252E4623680136AA
:105890002B441C35D86800F09BFC23799E42F5DB35
:1058A0004FF000032382099B9BB9BAF80430012B07
:1058B0007FF69AAE4FF0010966E6039BB3FA83F4D4
:1058C000DDE90A97640984E7099B13B9012AF1D835
:1058D0008AE6002301240393234648E709F10103E4
:1058E000002201249BB2039241E700283FF432AF2B
:1058F0001C464FF0FF3209F1010303929BB236E7D9
:1059000009F101034FF0FF32059C9BB203922EE791
:1059100009F101039BB22AE740140020A4320020C1
:10592000F02B00202DE9F04F554F89B03B68002B3C
:1059300000F0978072B6534B1D68002D40F08A80AE
:10594000B7F804B0D7F800A0BBF1000F7CD00AF183
:10595000050253462C46A94603920AF1100204920E
:1059600005E001340635A4B2A3456ED03B6803EBD5
:1059700085031A7B022AF4D1DA88434B1B889A42AA
:10598000EFD0002CEDD1039B13F82530032BE8D189
:10599000049B33F82530002BE3D02146204600F04D
:1059A00027FA0AF10403B0FA80F013F82520400921
:1059B0004142002A5ED0A046CDF818B007948B462D
:1059C0004C46994607E019F8252008F101081FFA0E
:1059D00088F39A424AD9C8EBC8065AF82530012103
:1059E00003EB8603B600D8680028EED0186900F0F3
:1059F000EFFA059000F0E6FA5AF825200446002157
:105A000002EB060CDCF80C200244DCE904C0821A2C
:105A1000ACEB020204F0E4F95AF82520059B0021C2
:105A200002EB060C5846DCE903E2CDE9004272467F
:105A300000F0E2F904460028C5D05AF82530334476
:105A4000D86800F0C5FBBEE7D94662B6484609B043
:105A5000BDE8F08F62B66FF00509484609B0BDE8B1
:105A6000F08F9946484609B0BDE8F08FA146DDF8B1
:105A700018B0079C0023049A22F8253071E700BF74
:105A8000F02B0020A43200204014002072B6044BFA
:105A90001B68002B0CBF0120002000D062B67047AD
:105AA000A432002062B670472DE9F84F364B1F68CC
:105AB000002F57D09E8872B6344A1568002D0CBF4F
:105AC0004FF001094FF0000943D14FF0FF3AC3E90D
:105AD00000552F4BC3F800A062B600F093FA7EB3D6
:105AE000BB46DFF8B08004E001350BF1180BAE4285
:105AF00026D0BBF80630B8F800209A422DD00DB958
:105B0000052B34D9DBF80030002BEDD09BF80410C6
:105B100071B10024C4EBC402013453F8220028B14F
:105B200000F056FB9BF80410DBF80030A142F1DCDA
:105B30000135184600F04CFB0BF1180BAE42D8D1E2
:105B4000384600F045FB4020FEF7FEFD4846BDE824
:105B5000F88F62B64846BDE8F88FDBF8140000F015
:105B600059FCCFE74FF001094846BDE8F88FDBF854
:105B70001400431C02D1CBF814A0C3E700F0E8FBEB
:105B8000CBF814A0BEE700BFF02B0020A432002009
:105B9000141400204014002010B51446FFF784FFB1
:105BA00030B10120FEF7BCFD01230020236010BDB1
:105BB00002236FF00A00F9E708B5FFF775FF024B03
:105BC00000221A6008BD00BFA82A00200222014955
:105BD000FEF7CEBD3003002070B5441882B01546E4
:105BE000667800F00DFA0838864215D8E1786068CA
:105BF000FFF73EF8A0B162780192FFF733F8019AFF
:105C000004F1080100F0C4FF6078FFF73DF80123BC
:105C100000202B6002B070BD02236FF00100F8E796
:105C200002236FF00B00F4E7F0B5441883B015467B
:105C3000FFF718F86778064600F0E2F99FB1831E77
:105C40009F4210D8AEB162780192FFF70BF8019A2B
:105C5000A11C00F09DFF6078FFF716F801230020DB
:105C60002B6003B0F0BD02236FF001002B6003B086
:105C7000F0BD02236FF00B00F2E700BF014B024AB8
:105C80001A607047AC2A00204D3C0000014B186898
:105C9000704700BFAC2A0020704700BF0023C0E956
:105CA00000307047436800220A6019604160704705
:105CB00003680B6013B11B68036003B17047406059
:105CC000704700BF03680B600BB101607047416013
:105CD000016070470023C0E90030704710B5002311
:105CE00082B0019372B60E4C204601A9FFF7E0FF87
:105CF000019820B100F06CFA019B002BF4D1094C03
:105D000003E000F065FA019B33B1204601A9FFF7DB
:105D1000CFFF01980028F4D162B602B010BD00BFD9
:105D2000B02B0020B82B002010B5002382B00193C7
:105D300072B6084C03E000F04BFA019B33B12046E9
:105D400001A9FFF7B5FF01980028F4D162B602B0AF
:105D500010BD00BFCC2A00202DE9F0411F4F3B7839
:105D600023B16FF00B042046BDE8F08105461C48C6
:105D70000E46FFF793FF1B48FFF790FF1A48FFF707
:105D80008DFF00F089F904460028ECD100F010FEE8
:105D9000804600F00DFE80451ED808F1080800F08E
:105DA000FFFD804400F0FEFD4044DFF8408002210A
:105DB000424600F039FA04460028D4D1D8F8000051
:105DC00000F006FE3146284600F098FC0446002804
:105DD000C9D101233B70C6E72046E6E7C132002067
:105DE000B02B0020B82B0020CC2A00203414002037
:105DF00001207047002070472DE9F0411D4682B018
:105E00000023089E0193431CDDF82480022B29D82F
:105E100014463AB3074600F0C3FD0830B04221D122
:105E2000B8F1000F1ED04644AE421BD8104B1B7871
:105E3000DBB172B6A5F10801434601AA04F10800DE
:105E400000F03EFD054620B162B6284602B0BDE82E
:105E5000F081019B21460748636000EBC700FFF714
:105E600021FFF1E74FF0FF35EFE76FF00805ECE7B2
:105E7000C1320020B02B0020194B70B5002582B034
:105E80001B7801954BB372B6164E01A906F10800B6
:105E9000FFF70EFF62B6019898B10125426808210C
:105EA00000F048FC044610B9204602B070BD72B63E
:105EB000019906EBC500FFF705FF62B6204602B068
:105EC00070BD72B601A93046FFF7F2FE62B60198C6
:105ED0000028E3D16FF00104E6E76FF00804E3E780
:105EE000C1320020B02B0020104A002310B582B030
:105EF0001278CDE90033AAB16A46082101A800F062
:105F00007DFC044610B1204602B010BDDDE900233F
:105F10005A6072B606480199FFF7C4FE62B6204681
:105F200002B010BD6FF00804EDE700BFC1320020E1
:105F3000CC2A0020F0B583B01C46089F002F18BF64
:105F4000002B4FF000030CBF4FF0010C4FF0000C82
:105F50000193002A08BF4CF0010C002908BF4CF047
:105F6000010CBCF1000F1FD1F0B9144B1B78F3B139
:105F700015460E4672B6124801A9FFF799FE62B6A1
:105F80000198B8B13A464168083000F0B3FC019B73
:105F9000074633605B6808332B6000F001FD083072
:105FA0002060384603B0F0BD4FF0FF37F9E76FF0DF
:105FB0000807F6E76FF00107F3E700BFC1320020E2
:105FC000CC2A002008B500F0EBFC083008BD00BF6B
:105FD00010B5044629B900F0EBFCA04205D2002020
:105FE00010BD00F0E1FCA042F9D3083400F0D8FC69
:105FF000044400F0D7FC204410BD00BF00F0D4BC26
:1060000000F0D6BC10B500F0D5FC044618B9FFF777
:1060100065FEFFF789FE204610BD00BF10B500F0F9
:10602000C9FC044608B9FFF759FE204610BD00BF61
:10603000014B1868704700BF3414002038B5114D6B
:106040002C780CB9204638BD00F0C8FC0446002866
:10605000F8D1FFF743FEFFF767FE0B4B186800F01F
:1060600077F900F01DFA04460028EBD10748FFF746
:1060700031FE0748FFF72EFE0648FFF72BFE2C7077
:10608000E0E700BFC132002034140020B02B002014
:10609000B82B0020CC2A00202DE9F04F2E4B83B0E6
:1060A000DFF8CCB00322DFF8CCA018462B4F5946BE
:1060B0000193564600F0FEFA27F003074FF000095F
:1060C0004FF0FF08019B53F8042B5BF8045B141D91
:1060D000F260376005FB04F2C6E901553261C7B1D1
:1060E00000213846019303F07BFE019B85B13A46BF
:1060F0000021C7F8049087F8008004E0C2F80490FB
:1061000000F8048042600131104622448D42F5D1EE
:1061100032691744124A14369345D4D140F246529C
:106120000021104803F05CFE00200F4B0F4ACAF814
:106130003C00CAF844001060CAF84000CAF8500099
:10614000CAE91200CAE91500CAE91700C3E900004C
:1061500003B0BDE8F08F00BF4C140020032C0020DA
:10616000641400203C2D0020F82B002084320020F5
:1061700058140020D82C002020B330B472B6124935
:106180000023124C0A4654F8045B5FFA83FCA842D1
:1061900001D8556835B901331432032BF3D162B6F7
:1061A00000200DE003EB83039B00C8580028F6D0C5
:1061B0004268013DCA5019444D6000F804CB62B6F4
:1061C00030BC7047704700BFD82C00204C14002012
:1061D000F0B110F8043C021F052B1AD0042B17D87D
:1061E00010B472B603EB83030D4CFF214FEA830C0E
:1061F00000F8041C04EB830354F80C100160596888
:1062000044F80C200131596062B65DF8044B7047C8
:106210007047044B5B68002BFAD01046184700BF4C
:10622000D82C0020F82B0020002918BF002800F0EF
:1062300085802DE9F84F1546002A48D00330414E9D
:106240000C4620F0030026F00306071D01FB07FBA8
:1062500072B63D4BD96BDA6C51B1196D79B362B638
:106260004FF0FF386FF00900C5F80080BDE8F88FE7
:10627000002A60D09345F0D84FF0030808EB88015E
:1062800043F8216003EB8103C3E902405C609EB1E7
:106290005A460021304603F0A3FD0022FF21334679
:1062A00010467260317003E07060D9555E603B4407
:1062B00001323E449442F7D862B60020D4E7196E0A
:1062C000164439B18B45CAD84FF00408D6E74FF0D1
:1062D000FF30CBE74FF00408DFF870A040F24351E5
:1062E000DAF80090A1EB09015945B8D308EB880111
:1062F00043F8216003EB8103C3E902405C60C3F80B
:1063000010B09EB15A460021304603F069FD0023CB
:10631000FF2031461A467360307003E07260C85542
:106320004E60394401333E449C42F7D809EB0B02DE
:10633000CAF80020C0E74FF00308CDE74FF0FF3068
:10634000704700BF3F2D0020D82C00208432002051
:10635000C31E012B32D872B603281A4B03D11A6D13
:1063600092B91A6E82B900EB80000022810003EB23
:1063700080005A50D96BC260C0E9012261B11A6D28
:106380009AB162B6002070470022DA639A64C3E9CA
:10639000102262B600207047DA6C002AEFD00A485B
:1063A000D9640168891A0160E9E7196E0029E8D00B
:1063B00005481A6603685B1A0360E2E74FF0FF3096
:1063C000704700BFD82C002084320020002918BF5D
:1063D000002819D0C2B110B472B60D4C23680BB9A5
:1063E000636843B162B64FF0FF316FF009005DF8AA
:1063F000044B11607047C4E9000162B605211846DC
:106400005DF8044B116070474FF0FF30704700BFDC
:10641000F82B0020052806D172B6044B0020C3E9F2
:10642000000062B670474FF0FF307047F82B002035
:1064300081B3052838B5044621D0C31E012B1CD8D2
:1064400000EB8003144A4FEA830C02EB830352F8FB
:106450000C0090B1D86888420FD372B6596859B110
:1064600052F80C0040B14568013942F80C505960AF
:1064700000F8044B62B638BD62B6002038BD074B49
:106480001B68002BF9D0081D98470028F5D000F8AC
:10649000044B38BD00207047D82C0020F82B00207A
:1064A0000021D7220B4810B50C4603F099FC40F2AE
:1064B00046520948214603F093FC084B64222146CA
:1064C00007481C6003F08CFC064B2046C3E90044DF
:1064D00010BD00BF002C00203C2D00208432002085
:1064E000D82C0020F82B002038B5094C25686B1CEF
:1064F00006D100F04DFE0028206004DB002038BDEE
:106500006FF00B0038BD6FF00B00256038BD00BF89
:10651000D41100200128034603D8034A0020137039
:1065200070474FF0FF307047BF3200202DE9F04F29
:10653000002383B00193002943D0B0FA80F80646C7
:106540004FEA581800283CD0214F3868431C3BD0F4
:106550000D46DFF88090DFF880A044462A1B3119F1
:1065600001AB00F025FE00BB019B53EA04021C4472
:106570000DD0A54294BF4FF0010B4FF0000B0BD88C
:10658000BBF1000F0FD0002003B0BDE8F08F9AF8E8
:1065900000309BB114469346C84509D96FF00E00F0
:1065A00003B0BDE8F08F3868D8E76FF00B00EBE779
:1065B000002008F10A0801F065F9E1E76FF0050035
:1065C000E2E74FF0FF30DFE76FF00800DCE700BFE5
:1065D000D41100207F841E00BF3200202DE9F04F2F
:1065E000002383B00193002943D0B0FA80F8064617
:1065F0004FEA581800283CD0214F3868431C3BD044
:106600000D46DFF88090DFF880A044462A1B311940
:1066100001AB00F0D7FD00BB019B53EA04021C4410
:106620000DD0A54294BF4FF0010B4FF0000B0BD8DB
:10663000BBF1000F0FD0002003B0BDE8F08F9AF837
:1066400000309BB114469346C84509D96FF00D0040
:1066500003B0BDE8F08F3868D8E76FF00B00EBE7C8
:10666000002008F10A0801F00DF9E1E76FF00100E0
:10667000E2E74FF0FF30DFE76FF00800DCE700BF34
:10668000D41100203F420F00BF32002010B5084C4B
:106690002068431C06D000F0C5FD28B94FF0FF3339
:1066A000236010BD002010BD6FF00B0010BD00BFB7
:1066B000D411002002B3F0B5A0F1040E0EEB820E4F
:1066C000012A18D08C46034601261D4653F8044B78
:1066D0006D68A54209D2DCF800500026DCF8047091
:1066E000CCE900751D6843E901549E450CF1040C8A
:1066F000EBD1002EE4D0F0BD704700BF10B5094CBF
:1067000023785BB9FFF7F0FE38B9074B0749084A11
:106710001880012308801060237010BD6FF00B00FB
:1067200010BD00BFC2320020AC320020B0320020C9
:10673000682A0020052A2DE9F84354D9B0FA80F3DD
:1067400004465B0900284ED02A48007800284DD026
:1067500034F801806718B8F1000F41D008F1060144
:1067600091423DD8244D4FF6FC7208F1040C298863
:10677000904507EB0C06798008D017FA8CF03A4662
:1067800012F8011B0B4482429BB2F9D10421384616
:1067900027F80C30FFF7CAFE814610B14846BDE825
:1067A000F8830120FFF7B6FE4146381DFFF7BEFE15
:1067B000814628B902213046FFF7B8FE814628B14C
:1067C0000020FFF7A7FE4846BDE8F8832046FFF704
:1067D000FFFC2B88002001332B80FFF79BFEF2E7A4
:1067E0006FF00609DAE74FF0FF39D7E76FF00809D5
:1067F000D4E700BFC2320020B03200202DE9F047BC
:1068000082B0002852D01746002A4FD02A4B1B785E
:10681000002B45D00C46042106460DEB0100FFF786
:10682000DDFE054660BBBDF804A0BAF1000F3AD00A
:10683000224B0AF10609186804EB0901FFF7F8FD7D
:106840008046B0B32946224603F0CAFA019B0120D4
:1068500048F804304444FFF75DFE514604342046B6
:10686000FFF7BCFE80B904EB0A000221FFF7B6FE79
:10687000054648B9FFF74EFEC6F80080C7F80090FD
:10688000284602B0BDE8F08700206FF00605FFF74C
:1068900041FE0023404633603B60FFF799FCEFE781
:1068A0006FF00805ECE76FF00605E9E74FF0FF35FC
:1068B000E6E76FF00905E3E7C23200203814002054
:1068C000002B18BF002A0ED0B0FA80FC4FEA5C1CE7
:1068D00048B110B49C1D8C4208D8038060461460F7
:1068E0005DF8044B70474FF0FF3070474FF0FF30BA
:1068F000F6E700BF002A18BF042947D970B504463F
:10690000002837D0234B1B78002B3CD005884388C8
:10691000A81D1FFA83FC884232D11F49086800B3C2
:106920001E490888844520D901308445D4BF002001
:106930006FF004000B806319B3F804E04FF6FC73AA
:106940009D4215D005F1040C002314FA8CFC14F8B8
:10695000011B0B4464459BB2F9D19E450DD11560D6
:1069600070BD01260E600D49E4E76FF00300E1E71A
:106970000023F2E74FF0FF3070BD6FF00C0070BDE8
:106980006FF0060070BD6FF0080070BD4FF0FF3073
:10699000704700BFC2320020682A0020AC320020BD
:1069A00004207047022070474FF6FC70704700BF0C
:1069B000FF20704700200349034A044B08801080E1
:1069C00018607047B0320020AC320020682A0020E6
:1069D000014B1860704700BF3814002010B5084CF8
:1069E000207800B910BDFFF751FE0028FAD1054903
:1069F000054A064B207008801080186010BD00BF4B
:106A0000C2320020B0320020AC320020682A0020C0
:106A100018B111B1002303600B60704718B111B1B8
:106A2000002303600B60704700224FF4165110469C
:106A300000F004B808B500F02BFBFEE72DE9F043A9
:106A40000023DFF8448183B0C8F80030082814D848
:106A5000DFE800F02248525C66707A051600802359
:106A600000223E480191C8F8003002F0EBFAD8F855
:106A70000030019913F4807F03D003B0BDE8F083A8
:106A8000002343F4807300223548C8F8003003B077
:106A9000BDE8F04302F0D6BA0123324D324CC8F8BB
:106AA000003040F2EE28314F2E68DFF8E09004E02D
:106AB000B3F5FA6FE1D802F073FF02F071FF2378AB
:106AC00043B13B78DB0705D52B68D9F800209B1A2A
:106AD0000E2BD2D82B6822789B1B002AE8D1434585
:106AE000E9D9CAE7022300222148C8F8003003B0E0
:106AF000BDE8F04302F0A6BA042300221D48C8F8FE
:106B0000003003B0BDE8F04302F09CBA0823002235
:106B10001948C8F8003003B0BDE8F04302F092BA5B
:106B2000102300221548C8F8003003B0BDE8F04338
:106B300002F088BA202300221148C8F8003003B0C0
:106B4000BDE8F04302F07EBA402300220D48C8F8A9
:106B5000003003B0BDE8F04302F074BA8024002096
:106B6000E0240020A82B0020CD320020CC320020D1
:106B700040220020A02200200023002060230020CB
:106B8000C02300202024002000290020C82B002042
:106B9000844641EA000313F003036DD1403A41D328
:106BA00051F8043B40F8043B51F8043B40F8043BE7
:106BB00051F8043B40F8043B51F8043B40F8043BD7
:106BC00051F8043B40F8043B51F8043B40F8043BC7
:106BD00051F8043B40F8043B51F8043B40F8043BB7
:106BE00051F8043B40F8043B51F8043B40F8043BA7
:106BF00051F8043B40F8043B51F8043B40F8043B97
:106C000051F8043B40F8043B51F8043B40F8043B86
:106C100051F8043B40F8043B51F8043B40F8043B76
:106C2000403ABDD2303211D351F8043B40F8043B16
:106C300051F8043B40F8043B51F8043B40F8043B56
